:03000000021EE1FC
:101EE100787FE4F6D8FD750804750900758109024B
:021EF1001F2EA2
:05291D0090022EEFF016
:102922001229E17F6C12210E90022EE0FF12210E7D
:102932001229E17F6D12210EE4900207F012208D20
:0D29420090022FEFF0122A0D90022FE0FFFF
:01294F002265
:0525A30090018DEFF036
:1025A8001229E17F6C12210E90018DE0FF12210E9D
:1025B8001229E17F6D12210E9002077401F012209A
:1025C8008D90018EE4F0A3EFF0E0F8E4F0E89001DC
:1025D8008EF0E4900207F012208D90018EE0F0A3B7
:0E25E800E04FF0122A0D90018EE0FEA3E0FFFE
:0125F60022C2
:102A8700900230EFF0A3EDF01229E17F6C12210ED6
:102A9700900230E0FF12210E900231E0FF12210E6A
:032AA700022A0DF3
:1029B20090022BEFF0A3ECF0A3EDF01229E17F6C73
:1029C20012210E90022BE0FF12210E90022CE0FF4A
:0F29D20012210E90022CA3E0FF12210E022A0DFB
:0E1E4D0041021BFF41021CFF4302180000006F
:030063000227442D
:10274400C0E0C0F0C083C082C0D075D000C000C05B
:1027540001C002C003C004C005C006C0079002182F
:10276400E0FBA3E0FAA3E0F9EA494B6003120B9EF5
:10277400D007D006D005D004D003D002D001D000B9
:0B278400D0D0D082D083D0F0D0E03263
:0225F700A90732
:1025F900ED24FD600A24027048AC92AE938004ACCD
:1026090096AE97E914601414601614601C240370C4
:1026190030EBF4FF5CFCEE5FFE8014EBF45C800BA6
:10262900EC4BFCEBF45EFE8006EC4BFCEE4BFEED56
:1026390024FD6009240270098C928E93228C968E57
:0126490097F9
:01264A00226D
:1028E400EF24FD601C2402702FEB90021B6006E0B5
:1028F4004DFFF08009E0FFEDF4FEEF5EFFF08F90F6
:1029040022EB90021C6006E04DFFF08009E0FFED31
:09291400F4FEEF5EFFF08FB0222B
:102AF000EF24FD600F24027016E5905D60037F01F6
:102B0000227F0022E5B05D60037F01227F00227FEB
:022B10000022A1
:102B1200EF24FD600D2402701190021BE04DF0F5D0
:0B2B2200902290021CE04DF0F5B02264
:102A6200EF24FD60122402701B90021BE0FFEDF4C4
:102A7200FEEF5EF0F5902290021CE0FFEDF4FEEF17
:052A82005EF0F5B0223A
:102AAA00900208EFF0AE05A3EEF0A3EBF0900190D0
:102ABA00E090020BF0122B1290020AE0FFA3E0FD55
:032ACA00022B12CA
:1029E10090020AE0FFA3E0FD122A62900208E0FFD4
:1029F100A3E0FD122B1290020AE0FFA3E0FD122BCF
:0C2A010012900208E0FFA3E0FD022A6230
:102A0D0090020AE0FFA3E0FD122A62900208E0FFA7
:102A1D00A3E0FD122A6290020AE0FFA3E0FD122B53
:0C2A2D0012900208E0FFA3E0FD022B1253
:05210E00900190EFF0CC
:10211300E4A3F0900191E0C3940874809480503557
:1021230090020AE0FFA3E0FD122A62900208E0FF9A
:10213300A3E0FD900190E05480FB1228E490020A92
:10214300E0FFA3E0FD122B12900190E025E0F0A345
:10215300E004F080BE90020AE0FFA3E0FD122A62D1
:10216300900208E0FFA3E0FD122B1290020AE0FFA9
:10217300A3E0FD122B12900208E0FFA3E0FD122A58
:08218300F0EF6401900206F088
:01218B002231
:10208D00E4900190F0A3F0900191E0C39408748066
:10209D009480503F90020AE0FFA3E0FD122A629067
:1020AD000208E0FFA3E0FD122B1290020AE0FFA34D
:1020BD00E0FD122B12900190E025E0F0900208E077
:1020CD00FFA3E0FD122AF0900190E04FF0A3E00491
:1020DD00F080B490020AE0FFA3E0FD122A629002A4
:1020ED0008E0FFA3E0FD900207E06401FB1228E485
:1020FD0090020AE0FFA3E0FD122B12900190E0FF89
:01210D0022AF
:0F1E5B0041020E0042020C000043020F00000083
:03006B0002248CE0
:10248C00C0E0C0F0C083C082C0D075D000C000C016
:10249C0001C002C003C004C005C006C00790020EF4
:1024AC00E0F5FF90020DE004F0700690020CE004E1
:1024BC00F090020FE0FBA3E0FAA3E0F9EA494B60CD
:1024CC0003120B9ED007D006D005D004D003D00247
:0F24DC00D001D000D0D0D082D083D0F0D0E03269
:102B830075A15575A1AA53B1FEEF42B175A1FF22FC
:102B720075A15575A1AAE5B9543F4FF5B975A1FFE5
:012B82002230
:102B930075A15575A1AA53B9F8EF42B975A1FF22E2
:0D000E0075A15575A1AA43B11075A1FF227F
:102B2D00EF4E601505A105A105A105A105A105A102
:0A2B3D0005A1EF1F70EA1E80E722D9
:102B4700AD07AC06ED4C600E7FE87E03122B2DED32
:072B57001D70F11C80EE224D
:101E6A004301B20000004301B50000004301B8007D
:021E7A00000066
:03000B0002235F6E
:10235F00C0E0C0F0C083C082C0D075D000C000C044
:10236F0001C002C003C004C005C006C0079001AE83
:10237F00E0FEA3E0F58AEEF58C9001A9E004F07081
:10238F00069001A8E004F09001B2E0FBA3E0FAA3ED
:10239F00E0F9EA494B6003120B9ED007D006D00537
:1023AF00D004D003D002D001D000D0D0D082D083BF
:0523BF00D0F0D0E03277
:03001B000223C4F9
:1023C400C0E0C0F0C083C082C0D075D000C000C0DF
:1023D40001C002C003C004C005C006C0079001B01C
:1023E400E0FEA3E0F58BEEF58D9001ABE004F07018
:1023F400069001AAE004F09001B5E0FBA3E0FAA383
:10240400E0F9EA494B6003120B9ED007D006D005D1
:10241400D004D003D002D001D000D0D0D082D08359
:05242400D0F0D0E03211
:03002B0002254863
:10254800C0E0C0F0C083C082C0D075D000C000C059
:1025580001C002C003C004C005C006C0079001AD99
:10256800E004F070069001ACE004F09001B8E0FBE4
:10257800A3E0FAA3E0F9EA494B6003120B9EC2CF2D
:10258800D007D006D005D004D003D002D001D000A7
:0B259800D0D0D082D083D0F0D0E03251
:101F730090018DEBF0A3EAF0A3E9F0EF14603114C4
:101F830060582402707AC28C5389F043890143C993
:101F930090E49001A8F0A3F090018DE0F9A3E0FA9A
:101FA300A3E09001B2C9F0A3EAF0A3E9F0D2A92219
:101FB300C28E53890F43891043C9A0E49001AAF04C
:101FC300A3F090018DE0F9A3E0FAA3E09001B5C975
:101FD300F0A3EAF0A3E9F0D2AB22E4F5C853C9F0C9
:101FE30043C9C09001ACF0A3F090018DE0F9A3E0E8
:101FF300FAA3E09001B8C9F0A3EAF0A3E9F0D2ADE7
:0120030022BA
:1026F200EDF4FDECF4FCED2401FDE43CFCEF146090
:102702001A14602A240270399001AEECF0A3EDF0A5
:10271200F58AECF58CE49001A880239001B0ECF0EE
:10272200A3EDF0F58BECF58DE49001AA80108CCB33
:102732008DCAAE04AF058ECD8FCCE49001ACF0A370
:01274200F0A6
:012743002273
:102A3900EF1460111460182402701DED6003D38037
:102A490001C392A922ED6003D38001C392AB22EDA9
:092A59006003D38001C392AD2299
:10002E00EF14600A14600A24027008D28C22D28E59
:04003E0022D2CA22DE
:102B5E00EF14600A14600A24027008C28C22C28E1E
:042B6E0022C2CA2293
:10278F00EF14601414602A24027035AF8CEFFCAF85
:10279F008AEFFD9001AE800BAF8DEFFCAF8BEFFD9D
:1027AF009001B0E0FEA3E0FFC3ED9FFDEC9EFC8027
:1027BF0013ACCDADCCC3ED95CAFDEC95CBFC80042D
:0827CF00E4FEFF22AF05AE0499
:0127D70022DF
:1027D800EDF4FDECF4FCED2401FDE43CFCEF1460A9
:1027E800161460222402702F8D8AECF58CC28DD2CB
:1027F8008C308DFDC28C228D8BECF58DC28FD28EE4
:10280800308FFDC28E22AE04AF058ECD8FCCC2CFE5
:07281800D2CA30CFFDC2CA95
:01281F002296
:10298200AE07EE25E024A8F582E43401F583E4F0F5
:10299200A3F012002EEE25E024A8F582E43401F51E
:1029A20083E0FAA3E0C39DEA9C40EAAF06022B5EF5
:101E7C0043019400000043000100000043000100F6
:101E8C00000043000100000043019D0000004301DD
:041E9C00A0000000A2
:030043000214FFA5
:1014FF00C0E0C0F0C083C082C0D075D000C000C0B3
:10150F0001C002C003C004C005C006C00720D90334
:10151F000215B1E5D9543024F0602624F06045243B
:10152F00F0605B2430707990019AE0FBA3E0FAA39E
:10153F00E0F9EA494B6069E5D9540FFF90019A80B1
:10154F00559001A4E004F070069001A3E004F09020
:10155F000194E0FBA3E0FAA3E0F9EA494B604112E2
:10156F000B9E803C900197E0FBA3E0FAA3E0F9EA21
:10157F00494B602CE5D9540FFF90019780189001CB
:10158F00A5E0FBA3E0FAA3E0F9EA494B6012E5D925
:10159F00540FFF9001A5A3A3E0F5828A83120BA23B
:1015AF00C2D930D81C90019DE0FBA3E0FAA3E0F96B
:1015BF00EA494B6003120B9E75E300C2DAC2D9C22F
:1015CF00D830DA1CC2DA9001A0E0FBA3E0FAA3E066
:1015DF00F9EA494B600DE5DA30E208120B9E800301
:1015EF0075D8FFD007D006D005D004D003D002D0D5
:0E15FF0001D000D0D0D082D083D0F0D0E03226
:10200400E49001A3F0A3F075E229F5E375D1811200
:1020140008E885F0EDF5EC90000212091385F0EF65
:10202400F5EE90000412091385F0E5F5E49000063E
:1020340012091385F0E7F5E6900008120849F5DC6B
:10204400900009120849F5D290000A120849F5D403
:1020540090000B120849F5D690000C120849F5DEE1
:1020640090000D120849F5EA90000E120849F5EBAC
:10207400E4F5DDF5D3F5D5F5D7F5DF90000F1208BB
:0920840049F5E175D8FFD2EA220A
:101EA00042015B0000420160000041015900410114
:101EB0005D0041015E004101680041015708410198
:101EC0005F0841016900410156004101580041018C
:101ED0006C0041015A0042016F000042016A00009B
:1019CE0090015CE004F0700690015BE004F0900181
:1019DE0061E004F07006900160E004F0900136E0E2
:1019EE00602890015BE0FEA3E07802CEC313CE1315
:1019FE00D8F9FF900136E0FEEFC39E400D900159DD
:101A0E007401F0E490015BF0A3F0900153E06028C4
:101A1E00900160E0FEA3E07802CEC313CE13D8F996
:101A2E00FF900153E0FEEFC39E400D90015D7401E7
:101A3E00F0E4900160F0A3F090015EE06402605863
:101A4E00900169E0605290016FE07002A3E06022A5
:101A5E0090015AE0FF700590015604F0EF540770A4
:101A6E000590015804F0900170E024FFF090016F92
:101A7E00801490016AE07002A3E0601090016BE0A8
:101A8E0024FFF090016AE034FFF0800690016C7440
:091A9E0001F090015AE004F0226D
:10006E007F06122B937BE27D01E4FF1225F77B11B5
:10007E007D017F021225F77B3E7D037F011225F75E
:10008E007B017D03E4FF1225F77D047F03122A62B4
:10009E009001907410F07B017D017F01122AAA7BE2
:1000AE00FF7A1979CE7F02121F737DC07C5D7F02AD
:1000BE001226F27F0212002ED2AFC2AEE587543066
:1000CE00642070077FF47E01122B4712269F900248
:1000DE0027120AE4DEADBEEFE4F5FF7F01122B839B
:1000EE007D207F03122A627D207F01122AF090016B
:1000FE0075EFF07D407F01122AF0900176EFF07DD2
:10010E00807F01122AF0900177EFF0E4A3F0A3F0C4
:10011E00A3F07F0C1225A3EFC4F8540FC868FFEEAE
:10012E00C454F048FE900181F0A3EFF0A3EEF0A3CB
:10013E00EFF0E4900189F0A3F0A3F0A3F07D207F0F
:10014E0001122AF0EF601B900178E0C394087480CE
:10015E00948050047F0180027F00900178E02FF0A0
:10016E008014900178E0FF60047E0180027E00C35F
:10017E00EF9E900178F07D407F01122AF0EF601B18
:10018E00900179E0C394087480948050047F0180BC
:10019E00027F00900179E02FF08014900179E0FF4A
:1001AE0060047E0180027E00C3EF9E900179F07D97
:1001BE00807F01122AF0EF601B90017AE0C3940851
:1001CE007480948050047F0180027F0090017AE059
:1001DE002FF0801490017AE0FF60047E0180027E91
:1001EE0000C3EF9E90017AF0900175E0FF600A90D7
:1001FE000178E070047E0180027E0090017BEEF0BB
:10020E00900176E0FE600A900179E070047D018035
:10021E00027D0090017CEDF0900177E0FD600A9088
:10022E00017AE070047C0180027C0090017DECF08C
:10023E00EF700C900178E0640870047F0180027FFB
:10024E000090017EEFF0EE700C900179E064087082
:10025E00047F0180027F0090017FEFF0ED700C9023
:10026E00017AE0640870047F0180027F00900180B3
:10027E00EFF0900175E06006900178E07008900153
:10028E0078E0640870047F0180027F00900175EFB2
:10029E00F0A3E06006900179E07008900179E064C7
:1002AE000870047F0180027F00900176EFF0A3E0DA
:1002BE00600690017AE0700890017AE0640870049C
:1002CE007F0180027F00900177EFF07F0C1225A353
:1002DE00EFC4F8540FC868FFEEC454F048AD07FCE5
:1002EE00900181E0FEA3E0FFC3ED9FFFEC9EFE9028
:1002FE000185F0A3EFF0C3EE64809478400ED3E056
:10030E009400900185E0648094884039900185E0E6
:10031E00FEA3E0D39400EE6480948040047B0180C1
:10032E00027B00900187EBF0C3EE64809480500452
:10033E007F0180027F00900188EFF0900181ECF048
:10034E00A3EDF08007E4900187F0A3F0900183E025
:10035E00FEA3E0FFC3ED9FFFEC9EFEEF7804CEA25E
:10036E00E713CE13D8F8FF900185EEF0A3EFF0C39C
:10037E0094FCEE6480947F400ED3E094049001854B
:10038E00E064809480400CAF05900183ECF0A3EF05
:10039E00F08007E4900185F0A3F0900176E06064B0
:1003AE0090017BE0600690015EE014F090017DE02C
:1003BE00600690015EE004F090015EE0FF30E7051C
:1003CE007402F0800FD3EF9402748094804005E4A1
:1003DE0090015EF0900168E0FF90015EE06F602496
:1003EE007D387F03122B1290015EE0FFF874200817
:1003FE008002C313D8FCFD7F03122A6290015EE0D7
:10040E00900168F090015EE014700302051B1470F9
:10041E0003020617240260030206A8900176E0602C
:10042E006D900185E07002A3E07003020509900152
:10043E0057E0FF3395E0FE900185E0FCA3E0FD124E
:10044E0008AA90018AE02FF0900189E03EF0E0FCCE
:10045E00A3E0FDAE047807CEA2E713CE13D8F8FBC7
:10046E00AA0690018BE0FEA3E07807CEA2E713CE9A
:10047E0013D8F8C39BFFEE9A900185F0A3EFF0908E
:10048E00018BECF0A3EDF0E4FD122BA3806D900137
:10049E007DE06016900169E070047F0180027F00AC
:1004AE00900169EFF0E4A3F0A3F090017BE060050A
:1004BE007F04122BE9900187E06006900157E0045B
:1004CE00F0900188E06006900157E014F09001571B
:1004DE00E0FF3395E0FEC3EF9401EE64809480500C
:1004EE00037401F0900157E0FF3395E0FED3EF94D3
:1004FE0010EE6480948040037410F0900180E0FF51
:10050E0090017EE04F70030206A802060F9001765E
:10051E00E06072900185E07002A3E07003020600B5
:10052E0090015FE0FF3395E0FE900185E0FCA3E0D3
:10053E00FD1208AA90018AE02FF0900189E03EF0AA
:10054E0090018BE0FEA3E07807CEA2E713CE13D87E
:10055E00F8FDAC06900189E0FAA3E0FBAE02780745
:10056E00CEA2E713CE13D8F8C39DFFEE9C90018563
:10057E00F0A3EFF090018BEAF0A3EBF0AD07E4FFF0
:10058E00122BA3806D90017DE06016900169E070E2
:10059E00047F0180027F00900169EFF0E4A3F0A3D5
:1005AE00F090017BE060057F04122BE9900187E05B
:1005BE00600690015FE004F0900188E06006900113
:1005CE005FE014F090015FE0FF3395E0FEC3EF941F
:1005DE0001EE6480948050037401F090015FE0FF9F
:1005EE003395E0FED3EF9410EE6480948040037454
:1005FE0010F0900180E0FF90017EE04F7003020644
:10060E00A87F04122BC90206A8900176E0602F90F5
:10061E000187E060127FE97E00122BD5900134E055
:10062E0070FAFFFE122BD5900188E0605B7FEA7EA8
:10063E0000122BD5900134E070FAFFFE8047900136
:10064E0087E060127FB57E00122BD5900134E070EA
:10065E00FAFFFE122BD5900188E060127FB67E0065
:10066E00122BD5900134E070FAFFFE122BD59001BB
:10067E007BE060077FE27E00122BD590017DE0606B
:10068E00077FCD7E00122BD5900180E0FF90017E7A
:10069E00E04F6006E4FFFE122BD5900156E0603568
:1006AE007F10121CF5900227A3A3A3E0900162F025
:1006BE00FB900227A3A3E0FEEE900163F0EB30E780
:1006CE0006900162E004F0900163E030E70204F06E
:1006DE00E4900156F0900158E0700302078F9001EC
:1006EE0062E0FF3395E0FE900165E02FF09001642B
:1006FE00E03EF0900163E0FF3395E0FE900167E08D
:10070E002FF0900166E03EF0900171E0FEA3E078DC
:10071E0004CEA2E713CE13D8F8FD900164E0FAA33D
:10072E00E0FBAE027804CEA2E713CE13D8F8C39D39
:10073E00FF90016DF0FC900173E0FEA3E07804CE13
:10074E00A2E713CE13D8F8FD900166E0FEA3E07881
:10075E0004CEA2E713CE13D8F8C39D90016EF0FD20
:10076E00900171EAF0A3EBF0900166E0FFA3E09038
:10077E000173CFF0A3EFF0AF04120056E4900158CE
:10078E00F090016CE060797F10121CF5900227A3A7
:10079E00A3E0FFA3E090016FCFF0A3EFF07F101264
:1007AE001CF5900227A3A3E0FFA3E090016ACFF00F
:1007BE00A3EFF090016FE0FEA3E07802CEC313CE5C
:1007CE0013D8F9F0EE90016FF090016AE0FEA3E00D
:1007DE007802CEC313CE13D8F9F0EE90016AF090E2
:1007EE000170E024E8F090016FE03403F090016BAB
:1007FE00E024E8F090016AE03403F0E490016CF03C
:10080E00900159E06008120046E4900159F0900101
:10081E005DE06008122BB0E490015DF0E4F5FF029C
:02082E00014B7C
:1022F4009001F6EBF0A3EAF0A3E9F09001FCE0F919
:10230400A3E0FF9001F6E0FBA3E0FAA3E0C98FF09D
:102314001209989001F9E0FBA3E0FAA3E0F9C003E5
:10232400C002C0019001F6E0FBA3E0FAA3E0F9903B
:102334000002120B459001F6E0FBA3E0FAA3E0F9DA
:10234400900005E4F5F01209B7900007E4F5F012E7
:0B23540009B7900009E4F5F00209B79A
:1017100090FFFF120BA4EDF090FFFD120BA4EBF075
:10172000A3EAF0A3E9F0850883850982E0FBA3E042
:10173000FAA3E0F9900005120913FFAEF01208E8D1
:10174000FDC3EF9DEE95F040057F0002180190006B
:1017500003120BC8E0FF850883850982E0FBA3E044
:10176000FAA3E0F9900002120B15C003C002C001F9
:10177000850883850982E0FBA3E0FAA3E0F99000E5
:1017800009120913D001D002D003F58285F083EF4E
:10179000120888850883850982E0FBA3E0FAA3E0AC
:1017A000F9900009E475F00112094BE92409F9E404
:1017B0003AFAC003C002C0011208E8FFAEF0850883
:1017C00083850982E0FBA3E0FAA3E0F91208E8248C
:1017D000FFFDE5F034FF5EFEEF5DFFD001D002D0EB
:1017E00003EE8FF0120998850883850982E0FBA338
:1017F000E0FAA3E0F9900005E475F00112094B7FCF
:0718000001900004020BA49B
:1018070090FFFD120BA4EBF0A3EAF0A3E9F090FF21
:04181700FF120BA40D
:10181B00850883850982A3E0FBA3E0FAA3E0F99096
:10182B00000512091345F07004FF0218EE850883BA
:10183B00850982A3E0FBA3E0FAA3E0F99000021272
:10184B000B15C003C002C001850883850982A3E084
:10185B00FBA3E0FAA3E0F9900007120913D001D023
:10186B0002D003F58285F083120849850883850928
:10187B0082F0A3E0FBA3E0FAA3E0F9900007E47584
:10188B00F00112094BE92407F9E43AFAC003C0024C
:10189B00C0011208E8FFAEF0850883850982A3E03A
:1018AB00FBA3E0FAA3E0F91208E824FFFDE5F0340E
:1018BB00FF5EFEEF5DFFD001D002D003EE8FF01282
:1018CB000998850883850982A3E0FBA3E0FAA3E0CE
:1018DB00F990000574FFF5F012094B850883850913
:0318EB0082E0FF99
:0618EE00900004020BA4AF
:0B0FA3009001BBEBF0A3EAF0A3E9F023
:100FAE00900005120913FFD39001C2E09F9001C17A
:100FBE00E095F040037F00229001BBE0FBA3E0FA36
:100FCE00A3E0F9900007120913FFAEF01208E8C370
:100FDE009FFFE5F09EFE9001C3F0A3EFF0C39001DA
:100FEE00C2E09F9001C1E09E50030210CC9001BB65
:100FFE00A3A3E0900002120B15C003C002C0019023
:10100E0001BBE0FBA3E0FAA3E0F99000071209137D
:10101E00D001D002D00329F9EA35F0FA9001C5EBE0
:10102E00F0A3EAF0A3E9F0E4A3F0A3F09001C3E08B
:10103E00FEA3E0FF9001C8E0FCA3E0FDC39FEC9E81
:10104E00503C9001C5E0FBA3E0FAA3E0F98D828C41
:10105E0083120849FF9001BEE0FBA3E0FAA3E0F97A
:10106E00EF1208769001BFE475F0011208BC9001F2
:10107E00C9E004F070069001C8E004F080AE900163
:10108E00BBE0FBA3E0FAA3E0F9900007E4F5F01251
:10109E0009B7E92405F9E43AFA1208E8FF9001C30A
:1010AE00E0FCA3E0FDC3EF9DFFE5F09C8FF012097D
:1010BE0098C39001C2E09DF09001C1E09CF09001B8
:1010CE00BBE0FBA3E0FAA3E0F9900002120B15C0FF
:1010DE0003C002C0019001BBE0FBA3E0FAA3E0F95C
:1010EE00900007120913D001D002D00329F9EA3576
:1010FE00F0FA9001C5EBF0A3EAF0A3E9F0E4A3F057
:10110E00A3F09001C1E0FEA3E0FF9001C8E0FCA3B4
:10111E00E0FDC39FEC9E503C9001C5E0FBA3E0FABE
:10112E00A3E0F98D828C83120849FF9001BEE0FB8B
:10113E00A3E0FAA3E0F9EF1208769001BFE475F090
:10114E00011208BC9001C9E004F070069001C8E0DD
:10115E0004F080AE9001C1E0FEA3E0FF9001BBE081
:10116E00FBA3E0FAA3E0F9900007EE8FF012094B13
:10117E00E92405F9E43AFA1208E8C39FFFE5F09E68
:07118E008FF01209987F01A8
:011195002237
:0B1196009001CAEBF0A3EAF0A3E9F01F
:1011A100900005120913FFAEF01208E8C39FFFE596
:1011B100F09EFED39001D1E09F9001D0E09E4003CC
:1011C1007F00229001CAE0FBA3E0FAA3E0F99000BE
:1011D10009120913FFAEF01208E8C39FFFE5F09E64
:1011E100FE9001D2F0A3EFF0C39001D1E09F9001F6
:1011F100D0E09E50030212BC9001CAA3A3E090006C
:1012010002120B15C003C002C0019001CAE0FBA38A
:10121100E0FAA3E0F9900009120913D001D002D03D
:101221000329F9EA35F0FA9001D4EBF0A3EAF0A32F
:10123100E9F0E4A3F0A3F09001D2E0FEA3E0FF9077
:1012410001D7E0FCA3E0FDC39FEC9E503C9001CD93
:10125100E0FBA3E0FAA3E0F9120830FF9001D4E02B
:10126100FBA3E0FAA3E0F98D828C83EF120888904A
:1012710001CEE475F0011208BC9001D8E004F070D1
:10128100069001D7E004F080AE9001CAE0FBA3E034
:10129100FAA3E0F9900009E4F5F01209B79001D240
:1012A100E0FEA3E0FF900005EE8FF012094BC39022
:1012B10001D1E09FF09001D0E09EF09001CAE0FBE7
:1012C100A3E0FAA3E0F9900002120B15C003C002DB
:1012D100C0019001CAE0FBA3E0FAA3E0F990000984
:1012E100120913D001D002D00329F9EA35F0FA909E
:1012F10001D4EBF0A3EAF0A3E9F0E4A3F0A3F090AA
:1013010001D0E0FEA3E0FF9001D7E0FCA3E0FDC324
:101311009FEC9E503C9001CDE0FBA3E0FAA3E0F9E5
:10132100120830FF9001D4E0FBA3E0FAA3E0F98DAD
:10133100828C83EF1208889001CEE475F0011208C7
:10134100BC9001D8E004F070069001D7E004F08071
:10135100AE9001D0E0FEA3E0FF9001CAE0FBA3E064
:10136100FAA3E0F9900009EE8FF012094B90000505
:08137100EE8FF012094B7F0121
:011379002251
:0C2BBD0001000201000D010018010023BE
:0300230002218C2B
:10218C00C0E0C0F0C083C082C0D075D000C000C019
:10219C0001C002C003C004C005C006C007309815BA
:1021AC00C298AD99902BBDE493FB740193FA740221
:1021BC0093F9121710309927C299902BC3E493FB13
:1021CC00740193FA740293F990000512091345F007
:1021DC0060071218078F9980069000007401F0D0E8
:1021EC0007D006D005D004D003D002D001D000D047
:0A21FC00D0D082D083D0F0D0E032C2
:0300530002220680
:10220600C0E0C0F0C083C082C0D075D000C000C09E
:1022160001C002C003C004C005C006C00730C01517
:10222600C2C0ADC1902BC0E493FB740193FA740253
:1022360093F912171030C127C2C1902BC6E493FB45
:10224600740193FA740293F990000512091345F08C
:1022560060071218078FC180069000017401F0D044
:1022660007D006D005D004D003D002D001D000D0CC
:0A227600D0D082D083D0F0D0E03247
:101AA700900213E0F8A3E0F9A3E0FAA3E0FBE8490A
:101AB7004A4B7005C29CC2AC22EF24FE603E046014
:101AC70003021B7C9000007401F043878053890F49
:101AD700438920C2CCC2CD43C9A0D28E900213E065
:101AE700F8A3E0F9A3E0FAA3E0FB7F607EE37D16AD
:101AF7007C00120A20EFF404F58D802F900000740B
:101B070001F075C83443C9C0900213E0F8A3E0F9A7
:101B1700A3E0FAA3E0FB7F607EE37D167C00120A58
:101B270020C3E49FFFE49EF5CB8FCA75985053C638
:101B3700EF900217E042C69001F97401F0A3740018
:101B4700F0A3742EF0A3E4F0A37440F07B017A00B5
:101B570079021222F49001F97401F0A37400F0A342
:101B670074AEF0A3E4F0A37440F07B017A00791817
:061B77001222F4D2AC22A0
:10228000EC4D4E4F7005C2C4C2EC229000017401A7
:10229000F075C030AB07AA06A905A8047F607EE3ED
:1022A0007D167C00120A20EFF404F5C253C6DF90BD
:1022B0000221E042C69001F97401F0A37400F0A37A
:1022C000746EF0A3E4F0A37440F07B017A00790D02
:1022D0001222F49001F97401F0A37400F0A374EEDB
:1022E000F0A3E4F0A37440F07B017A00792312227A
:0422F000F4D2EC2216
:102ACD00EF75F003A424BDF582E4342BF583E49374
:102ADD00FB740193FA740293F9900005120913FF28
:032AED00AEF02226
:10264B00EF75F003A424BDF582E4342BF583E493FA
:10265B00FB740193FA740293F9900002120B15C0EC
:10266B0003C002C001EF75F003A424BDF582E4346E
:10267B002BF583E493FB740193FA740293F99000A6
:10268B0007120913D001D002D003F58285F0831213
:04269B000849FF22C9
:05286600900232EFF0CA
:10286B00900232E0FF75F003A424BDF582E4342B13
:10287B00F583E493FB740193FA740293F9900005CA
:10288B0012091345F060D9EF6004C2EC8002C2ACB0
:0E289B00121807900232E06003D2EC22D2AC99
:0128A900220C
:0E18F4009001D9EFF0A3EBF0A3EAF0A3E9F026
:10190200A3E0FFA3E0A3CFF0A3EFF0E4A3F0A3F0E2
:101912009001DFE07002A3E070030219CD9001D9BB
:10192200E075F003A424BDF582E4342BF583E4933F
:10193200FB740193FA740293F9900005120913FFE4
:101942009001E1E5F0F0A3EFF09001DFE0FEA3E00B
:10195200FFD39001E2E09F9001E1E09E4005EEF0AE
:10196200A3EFF09001D9E06004C2EC8002C2ACC0E7
:1019720002C0019001DAE0F9A3E0FAA3E09001BE0F
:10198200C9F0A3EAF0A3E9F09001E1E0FFA3E0903F
:1019920001C1CFF0A3EFF0D001D002120FA390014A
:1019A200D9E06004D2EC8002D2AC9001E1E0FEA367
:1019B200E0FFC39001E0E09FF09001DFE09EF09035
:0B19C20001DBEE8FF01208BC021912CE
:0119CD0022F7
:101C44009001E3EFF0A3EDF0A3EBF0A3EAF0A3E936
:011C5400F09F
:101C5500A3E0FFA3E0A3CFF0A3EFF09001EAE070CB
:101C650002A3E060759001E3E0FF75F003A424BDD5
:101C7500F582E4342BF583E493FB740193FA740243
:101C850093F990000512091345F060CFEF6004C287
:101C9500EC8002C2AC1218079001ECEFF09001E362
:101CA500E06004D2EC8002D2AC9001E4E0FF900148
:101CB500ECE0FE6F60249001EBE024FFF09001EA78
:101CC500E034FFF09001E5E0FBA3E475F0011208B4
:101CD500D2A9F0FAEE12087680819001EAE0FEA31F
:0F1CE500E0FFC39001E9E09FFF9001E8E09EFE61
:011CF40022CD
:0E1B7D009001EDEFF0A3EBF0A3EAF0A3E9F086
:101B8B00E49001F3F0A3F09001F2E024FFF0900158
:101B9B00F1E034FFF09001F1E0FEA3E0FFC3900110
:101BAB00F4E09F9001F3E09E50749001EDE0FF751F
:101BBB00F003A424BDF582E4342BF583E493FB748A
:101BCB000193FA740293F990000512091345F06022
:101BDB00D9EF6004C2EC8002C2AC1218079001F579
:101BEB00EFF09001EDE06004D2EC8002D2AC9001FA
:101BFB00F5E0FF9001EEE0FBA3E0FAA3E0F9900122
:101C0B00F3E475F0011208D285F082F583EF120828
:101C1B0088EF640D6008EF640A6003021BA090015B
:101C2B00EEE0FBA3E0FAA3E0F99001F3E0FEA3E002
:091C3B00FFF5828E83E4020888A3
:10282000EF75F003A424C3F582E4342BF583E4931D
:10283000FB740193FA740293F9900005120913FDD9
:10284000ACF0EF75F003A424C3F582E4342BF583D8
:10285000E493FB740193FA740293F91208E8C39DA0
:06286000FFE5F09CFE22E2
:10242900900233EFF06004C2EC8002C2AC90023338
:10243900E0FF2400F582E43400F583E0601AEF60E0
:10244900048DC180028D99900233E02400F582E465
:102459003400F583E4F0801F900233E075F003A4A3
:1024690024C3F582E4342BF583E493FB740193FAD6
:10247900740293F9121710900233E06003D2EC2230
:03248900D2AC22B0
:0B24EB00900222EBF0A3EAF0A3E9F05E
:1024F600E4A3F0A3F0900222E0FBA3E0FAA3E0F944
:10250600A3E0FCA3E0F5828C8312084960109002D8
:1025160026E004F070DF900225E004F080D79002F8
:1025260022E0FBA3E0FAA3E0F9A3E0FDA3E090021A
:1025360002CDF0A3EDF012137A900225E0FEA3E09F
:01254600FF95
:012547002271
:10137A009001FFEBF0A3EAF0A3E9F09001FEEFF091
:10138A00E4900204F0A3F0EF6004C2EC8002C2AC65
:10139A009001FEE0FF2400F582E43400F583E0606A
:1013AA0049EF9001FF6014E0FBA3E475F001120815
:1013BA00D2A9F0FA120830F5C18012E0FBA3E47555
:1013CA00F0011208D2A9F0FA120830F5999001FE3C
:1013DA00E02400F582E43400F583E4F0900203E0AF
:1013EA0024FFF0900202E034FFF09001FEE0600476
:1013FA00D2EC8002D2AC900202E07002A3E0700349
:10140A000214FE9001FEE0FF75F003A424C3F582E6
:10141A00E4342BF583E493FB740193FA740293F991
:10142A00900005120913FDACF0EF75F003A424C374
:10143A00F582E4342BF583E493FB740193FA740286
:10144A0093F91208E8C39DFEE5F09C900204F0A30C
:10145A00CEF0900204E0FEA3E0FF4E6099900202F3
:10146A00E0FCA3E0FDD3EF9DEE9C4006A3ECF0A3C5
:10147A00EDF09001FEE0FF6004C2EC8002C2ACEF26
:10148A0075F003A424C3F582E4342BF583E493FBBB
:10149A00740193FA740293F9C002C0019001FFE04B
:1014AA00F9A3E0FAA3E09001CDC9F0A3EAF0A3E919
:1014BA00F0900204E0FFA3E09001D0CFF0A3EFF098
:1014CA00D001D0021211969001FEE06004D2EC80A5
:1014DA0002D2AC900204E0FEA3E0FFC3900203E054
:1014EA009FF0900202E09EF0900200EE8FF0120848
:0414FA00BC0214001C
:0114FE0022CB
:051CF50090018DEFF0ED
:101CFA0090018DE07003021DA3900227E0FCA3E08F
:101D0A00FDA3E0FEA3E0FF781F120AB290018EEF56
:101D1A00F0FB900227E0FCA3E0FDA3E0FEA3E0FFB6
:101D2A007815120AB2EB6F90018EF0FB900227E051
:101D3A00FCA3E0FDA3E0FEA3E0FF7801120AB2EBE8
:101D4A006F90018EF0FB900227A3A3A3E06B900192
:101D5A008EF05401F0900227E0FCA3E0FDA3E0FE20
:101D6A00A3E0FF7801120AC5900227120AD890024E
:101D7A0027E0F8A3E0F9A3E0FAA3E0FB90018EE0E4
:101D8A00FFEB4FFFEAFEE9FDE8FC900227120AD8B2
:091D9A0090018DE014F0021CFA26
:011DA300221D
:10160D001201100100000008861A0CFE00010102F3
:10161D00030109023B0002010080320904000001B0
:10162D000301020409211001000122430007058175
:10163D00030800010904010001030101050921103E
:10164D0001000122190007058203040001050109AB
:10165D0002A1010901A100050919012903150025A0
:10166D000175019503810275059501810305010938
:10167D0030093109381581257F75089503810605D7
:10168D000C0A38021581257F750895018106C0C0A9
:10169D00050C0901A101850119002A3C021500263E
:1016AD003C02950175108100C0040309040E0377F7
:1016BD0000630068002E0063006E00220355005386
:1016CD000042002000430043002000500061006EE6
:1016DD000020004D006F0075007300650016034477
:1016ED0000450041004400420045004500460030E1
:1016FD0000360001370141014B00000212120202B7
:03170D0040040392
:102950007B017A017937EF602890012EE0FCA3E03B
:10296000F5828C83E493120876740129F9E43AFA2B
:1029700090012FE004F0700690012EE004F01F801B
:01298000D581
:012981002233
:092BE000EF7005F5DD75DCC02283
:051DA400900192EFF038
:101DA9007068900154E054607055A3E024FB603CD6
:101DB900147047900151E0FEA3E0FFC39408EE942C
:101DC9000040067D087F088000900193EFF01229FA
:101DD90050900193E0FFFDC3900152E09DF0900106
:101DE90051E09400F08FDD63DC40801EE5E3548010
:101DF900FF900130E04FF5E38008E4F5DD8003E46E
:101E0900F5DDE5DC54FC4402F5DC900192E0FF7E4F
:101E19000064017019F5D3E5D254FC4402F5D2E40B
:101E2900900142F0A3F0A3F0A3F0900131F0EF6428
:101E3900024E700FF5D5E5D454FC4402F5D4E49074
:031E49000134F071
:011E4C002273
:100C1700EF6003020FA290013EE0FE90013DE0FD70
:100C2700EDFF900151EEF0A3EFF0900138E0900155
:100C370055F0900137E0FF900154F0E490012EF059
:100C4700A3F0900192F0EF5460FF6003020E1F9033
:100C57000155E0B40C004003020E1C900C69F82803
:100C67002873020C8D020C9D020E1C020CE4020E6E
:100C77001C020D33020D3E020E1C020DFE020E0475
:100C8700020E0F020F36E4900137F0A3F0900192A5
:100C97007402F0020F36900154E0541F6402703A58
:100CA700900139E0703490013BE0247F60101460BC
:100CB7001B2481707453D27F53D2F3020F3653D261
:100CC700BFE5D254FC4402F5D2020F3653D4BFE538
:100CD700D454FC4402F5D4020F36020F309001546D
:100CE700E0541F64027042900139E0703C90013B70
:100CF700E0247F60151460202481702A53D27FE599
:100D0700D254F3440CF5D2020F3653D2BFE5D25476
:100D1700FC4403F5D2020F3653D4BFE5D454FC4448
:100D270003F5D4020F36020F30020F30900139E07D
:100D3700900130F0020F3690013AE024FE6024144F
:100D4700603424E17003020DD224216003020DFBFD
:100D570090012E7416F0A3740DF09001927412F0A6
:100D6700020F3690012E7416F0A3741FF0900192B3
:100D7700743BF0020F36900139E014601614601FBF
:100D870014601E2403702690012E7416F0A374B607
:100D9700F0802490012E7416F0A374BAF0801880A6
:100DA7000C90012E7416F0A374EAF0800A90012EBD
:100DB7007416F0A374C8F090012EE0FCA3E0F5824E
:100DC7008C83E493900192F0020F3690013BE09000
:100DD700012E70107416F0A3745AF09001927443A8
:100DE700F0020F367416F0A3749DF09001927419F7
:100DF700F0020F36020F30900132020EF3900139E4
:100E0700E0900132F0020F36E4900137F090019242
:100E170004F0020F36020F30EF64206003020F3038
:100E2700900155E024FE7003020ECE147003020EEB
:100E3700E524FA7003020F36147003020F001470D2
:100E470003020F17240A6003020F2E90013BE07084
:100E57003B900193F0900193E0C3940574809480D4
:100E67005021E0FF2441F582E43401F583E0FE746C
:100E7700372FF582E43401F583EEF0900193E00417
:100E8700F080D29001927405F0020F36E49001933E
:100E9700F0900193E0C39403748094805021E0FFA5
:100EA700244BF582E43401F583E0FE74372FF58295
:100EB700E43401F583EEF0900193E004F080D290E2
:100EC70001927403F0806890013BE070079001364F
:100ED700E0A38007900153E0900137F08013900161
:100EE7003BE070059001338003900135E0900137B6
:100EF700F09001927401F0803690013BE090013A46
:100F07007007E0900136F08026E0900153F0801FD3
:100F170090013BE09001397007E0900133F0800FBA
:100F2700E0900135F08008800090019274FFF09006
:100F37000192E0FFF4700A90015574FFF075DCCF61
:100F4700227E00D3900152E09F900151E09E400520
:100F5700EEF0A3EFF0900151E0FEA3E0FFD3940879
:100F6700EE940040067D087F088000900192EFF024
:100F770090012EE07002A3E06008900192E0FF125A
:100F87002950900192E0FFFDC3900152E09DF0903F
:0B0F97000151E09400F08FDD75DCC01C
:010FA200222C
:1028AA0075DC0275D21275D412E4900141F0A3F0DE
:1028BA00A3F0A3F0A3F0900131F0900136F090015B
:1028CA003304F090014BF0E4A3F0A3F0900134F04C
:0A28DA00900153F090013504F02244
:10269F00900194E4F0A3F0A3F090019A74FFF0A3DB
:1026AF00742BF0A374E0F090019774FFF0A3741DE6
:1026BF00F0A374A4F09001A574FFF0A3740CF0A321
:1026CF007417F090019D74FFF0A37428F0A374AAFF
:1026DF00F09001A0E4F0A3F0A3F07BFF7A1779004C
:0326EF00022004C2
:0D0046009001317401F075D30553D2FC22F6
:092BE900900141E04FF0020046AA
:0C2BC900EFF4FF900141E05FF0020046D5
:0D005600900142E02FF0A3E02DF0020046E3
:0D2BA300900144E02FF0A3E02DF002004669
:0D2BB0009001347401F075D50353D4FC225C
:0B2BD50090014CEFF0EEA3F0022BB0DB
:101EF30002006EE493A3F8E493A34003F68001F297
:101F030008DFF48029E493A3F85407240CC8C333EF
:101F1300C4540F4420C8834004F456800146F6DFBE
:101F2300E4800B0102040810204080901E4DE47EE3
:101F3300019360BCA3FF543F30E509541FFEE493B3
:101F4300A360010ECF54C025E060A840B8E493A37A
:101F5300FAE493A3F8E493A3C8C582C8CAC583CAA5
:101F6300F0A3C8C582C8CAC583CADFE9DEE780BE5D
:011EE0000001
:10083000BB010689828A83E0225002E722BBFE02C6
:09084000E32289828A83E49322F9
:10084900BB010CE58229F582E5833AF583E0225064
:1008590006E92582F8E622BBFE06E92582F8E222AE
:0D086900E58229F582E5833AF583E49322C8
:10087600BB010689828A83F0225002F722BBFE0161
:02088600F3225B
:10088800F8BB010DE58229F582E5833AF583E8F0A6
:10089800225006E92582C8F622BBFE05E92582C852
:0208A800F2223A
:1008AA00EF8DF0A4A8F0CF8CF0A428CE8DF0A42E62
:0208BA00FE221C
:1008BC00C5F0F8A3E028F0C5F0F8E58215827002C7
:0608CC001583E038F02264
:1008D200A3F8E0C5F025F0F0E582158270021583D9
:0608E200E0C838F0E82236
:1008E800BB010A89828A83E0F5F0A3E022500687DB
:1008F800F009E71922BBFE07E3F5F009E31922899D
:0B090800828A83E493F5F074019322CF
:10091300BB0110E58229F582E5833AF583E0F5F022
:10092300A3E0225009E92582F886F008E622BBFEFF
:100933000AE92582F8E2F5F008E222E5832AF58345
:08094300E993F5F0A3E993220A
:10094B00BB010DC58229C582C5833AC5830208BC8C
:10095B005011C58229F808E5F026F618F5F0E58266
:10096B0036F622BBFE11C58229F808E225F0F5F018
:10097B00F218E23582F222F8E58229F582E5832A24
:0D098B00F58374019325F0F5F0E493382214
:10099800BB010A89828A83F0E5F0A3F0225006F7AA
:0F09A80009A7F01922BBFE06F3E5F009F31922A7
:1009B700F8BB0111E58229F582E5833AF583E8F072
:1009C700E5F0A3F0225009E92582C8F608A6F0222F
:0D09D700BBFE09E92582C8F2E5F008F22216
:1009E40075F008758200EF2FFFEE33FECD33CDCCCA
:1009F40033CCC58233C5829BED9AEC99E58298404D
:100A04000CF582EE9BFEED9AFDEC99FC0FD5F0D629
:100A1400E4CEFBE4CDFAE4CCF9A88222B800C1B953
:100A24000059BA002DEC8BF084CFCECDFCE5F0CB91
:100A3400F97818EF2FFFEE33FEED33FDEC33FCEBCA
:100A440033FB10D703994004EB99FB0FD8E5E4F985
:100A5400FA227818EF2FFFEE33FEED33FDEC33FC72
:100A6400C933C910D7059BE99A4007EC9BFCE99A66
:100A7400F90FD8E0E4C9FAE4CCFB2275F010EF2FAB
:100A8400FFEE33FEED33FDCC33CCC833C810D707AB
:100A94009BEC9AE899400AED9BFDEC9AFCE899F8E6
:0E0AA4000FD5F0DAE4CDFBE4CCFAE4C8F92279
:100AB200E8600FECC313FCED13FDEE13FEEF13FF22
:030AC200D8F12246
:100AC500E8600FEFC333FFEE33FEED33FDEC33FC8F
:030AD500D8F12233
:0C0AD800ECF0A3EDF0A3EEF0A3EFF02291
:100AE400A8828583F0D083D082120AFB120AFB12FB
:100AF4000AFB120AFBE473E493A3C583C5F0C58320
:100B0400C8C582C8F0A3C583C5F0C583C8C582C85B
:010B140022BE
:100B1500BB010DE58229F582E5833AF583020BE7F2
:100B25005007E92582F8020BD5BBFE07E92582F8B7
:100B3500020BF9E58229F582E5833AF583020C0B70
:100B4500BB0120E58229F582E5833AF583D0F0D013
:100B5500E0F8D0E0F9D0E0FAD0E0FBE8C0E0C0F082
:100B6500020BF05018E92582F8D083D082D0E0F945
:100B7500D0E0FAD0E0FBC082C083020BDEBBFE18DA
:100B8500E92582F8D083D082D0E0F9D0E0FAD0E030
:090B9500FBC082C083020C0222A5
:060B9E008A838982E473E2
:100BA400E5092582F582E5083583F583B5080485D2
:100BB40082092210AF06858209F50822858209F58B
:040BC40008D2AF2282
:0D0BC800E5092582F582E5083583F58322D5
:090BD500E6FB08E6FA08E6F92245
:090BDE00EBF608EAF608E9F6223C
:090BE700E0FBA3E0FAA3E0F9220F
:090BF000EBF0A3EAF0A3E9F02206
:090BF900E2FB08E2FA08E2F9222D
:090C0200EBF208EAF208E9F22223
:0C0C0B00E493FB740193FA740293F92245
:00000001FF
