:03000000021C1AC5
:101C1A00787FE4F6D8FD7508047509007581090214
:021C2A001C6735
:101EBB0090014CEBF0A3EAF0A3E9F0900152E0F9AA
:101ECB00A3E0FF90014CE0FBA3E0FAA3E0C98FF085
:101EDB001206AC90014FE0FBA3E0FAA3E0F9C003BC
:101EEB00C002C00190014CE0FBA3E0FAA3E0F99023
:101EFB00000212085990014CE0FBA3E0FAA3E0F9B1
:101F0B00900005E4F5F01206CB900007E4F5F01213
:0B1F1B0006CB900009E4F5F00206CBB5
:1014240090FFFF1208B8EDF090FFFD1208B8EBF042
:10143400A3EAF0A3E9F0850883850982E0FBA3E031
:10144400FAA3E0F9900005120627FFAEF01205FC9E
:10145400FDC3EF9DEE95F040057F00021515900049
:10146400031208DCE0FF850883850982E0FBA3E022
:10147400FAA3E0F9900002120829C003C002C001D7
:10148400850883850982E0FBA3E0FAA3E0F99000D4
:1014940009120627D001D002D003F58285F083EF2C
:1014A4001205AE850883850982E0FBA3E0FAA3E078
:1014B400F9900009E475F00112065FE92409F9E4E2
:1014C4003AFAC003C002C0011205FCFFAEF0850861
:1014D40083850982E0FBA3E0FAA3E0F91205FC246A
:1014E400FFFDE5F034FF5EFEEF5DFFD001D002D0DA
:1014F40003EE8FF01206AC850883850982E0FBA316
:10150400E0FAA3E0F9900005E475F00112065F7FAC
:07151400019000040208B879
:10151B0090FFFD1208B8EBF0A3EAF0A3E9F090FFFF
:04152B00FF1208B8EB
:10152F00850883850982A3E0FBA3E0FAA3E0F99085
:10153F00000512062745F07004FF02160285088386
:10154F00850982A3E0FBA3E0FAA3E0F99000021261
:10155F000829C003C002C001850883850982A3E062
:10156F00FBA3E0FAA3E0F9900007120627D001D001
:10157F0002D003F58285F08312056F8508838509F4
:10158F0082F0A3E0FBA3E0FAA3E0F9900007E47573
:10159F00F00112065FE92407F9E43AFAC003C0022A
:1015AF00C0011205FCFFAEF0850883850982A3E018
:1015BF00FBA3E0FAA3E0F91205FC24FFFDE5F034EC
:1015CF00FF5EFEEF5DFFD001D002D003EE8FF01271
:1015DF0006AC850883850982A3E0FBA3E0FAA3E0AC
:1015EF00F990000574FFF5F012065F8508838509F1
:0315FF0082E0FF88
:061602009000040208B88C
:0B0CB700900105EBF0A3EAF0A3E9F0C8
:100CC200900005120627FFD390010CE09F90010BC4
:100CD200E095F040037F0022900105E0FBA3E0FADB
:100CE200A3E0F9900007120627FFAEF01205FCC33D
:100CF2009FFFE5F09EFE90010DF0A3EFF0C390017F
:100D02000CE09F90010BE09E5003020DE090010564
:100D1200A3A3E0900002120829C003C002C0019000
:100D22000105E0FBA3E0FAA3E0F990000712062711
:100D3200D001D002D00329F9EA35F0FA90010FEB85
:100D4200F0A3EAF0A3E9F0E4A3F0A3F090010DE030
:100D5200FEA3E0FF900112E0FCA3E0FDC39FEC9E26
:100D6200503C90010FE0FBA3E0FAA3E0F98D828CE6
:100D72008312056FFF900108E0FBA3E0FAA3E0F9FC
:100D8200EF12059C900109E475F0011205D0900163
:100D920013E004F07006900112E004F080AE9001BE
:100DA20005E0FBA3E0FAA3E0F9900007E4F5F012F6
:100DB20006CBE92405F9E43AFA1205FCFF90010D8D
:100DC200E0FCA3E0FDC3EF9DFFE5F09C8FF012066F
:100DD200ACC390010CE09DF090010BE09CF09001FF
:100DE20005E0FBA3E0FAA3E0F9900002120829C093
:100DF20003C002C001900105E0FBA3E0FAA3E0F901
:100E0200900007120627D001D002D00329F9EA3553
:100E1200F0FA90010FEBF0A3EAF0A3E9F0E4A3F0FB
:100E2200A3F090010BE0FEA3E0FF900112E0FCA30F
:100E3200E0FDC39FEC9E503C90010FE0FBA3E0FA63
:100E4200A3E0F98D828C8312056FFF900108E0FB0D
:100E5200A3E0FAA3E0F9EF12059C900109E475F012
:100E6200011205D0900113E004F07006900112E027
:100E720004F080AE90010BE0FEA3E0FF900105E0DC
:100E8200FBA3E0FAA3E0F9900007EE8FF012065FF1
:100E9200E92405F9E43AFA1205FCC39FFFE5F09E46
:070EA2008FF01206AC7F0186
:010EA9002226
:0B0EAA00900114EBF0A3EAF0A3E9F0C4
:100EB500900005120627FFAEF01205FCC39FFFE563
:100EC500F09EFED390011BE09F90011AE09E400327
:100ED5007F0022900114E0FBA3E0FAA3E0F9900063
:100EE50009120627FFAEF01205FCC39FFFE5F09E31
:100EF500FE90011CF0A3EFF0C390011BE09F900151
:100F05001AE09E5003020FD0900114A3A3E09000B5
:100F150002120829C003C002C001900114E0FBA31E
:100F2500E0FAA3E0F9900009120627D001D002D01B
:100F35000329F9EA35F0FA90011EEBF0A3EAF0A3D4
:100F4500E9F0E4A3F0A3F090011CE0FEA3E0FF901C
:100F55000121E0FCA3E0FDC39FEC9E503C900117EE
:100F6500E0FBA3E0FAA3E0F9120556FF90011EE0AD
:100F7500FBA3E0FAA3E0F98D828C83EF1205AE9016
:100F85000118E475F0011205D0900122E004F0701B
:100F950006900121E004F080AE900114E0FBA3E08F
:100FA500FAA3E0F9900009E4F5F01206CB90011CD4
:100FB500E0FEA3E0FF900005EE8FF012065FC39000
:100FC500011BE09FF090011AE09EF0900114E0FBF8
:100FD500A3E0FAA3E0F9900002120829C003C002B9
:100FE500C001900114E0FBA3E0FAA3E0F990000929
:100FF500120627D001D002D00329F9EA35F0FA907C
:10100500011EEBF0A3EAF0A3E9F0E4A3F0A3F0904E
:10101500011AE0FEA3E0FF900121E0FCA3E0FDC37F
:101025009FEC9E503C900117E0FBA3E0FAA3E0F98A
:10103500120556FF90011EE0FBA3E0FAA3E0F98D2F
:10104500828C83EF1205AE900118E475F00112054C
:10105500D0900122E004F07006900121E004F080B8
:10106500AE90011AE0FEA3E0FF900114E0FBA3E0BF
:10107500FAA3E0F9900009EE8FF012065F900005E3
:08108500EE8FF012065F7F01FF
:01108D002240
:081DC600410172FF410173FFAE
:0221DC00A90751
:1021DE00ED24FD600A24027048AC92AE938004ACEC
:1021EE0096AE97E914601414601614601C240370E4
:1021FE0030EBF4FF5CFCEE5FFE8014EBF45C800BC6
:10220E00EC4BFCEBF45EFE8006EC4BFCEE4BFEED75
:10221E0024FD6009240270098C928E93228C968E76
:01222E009718
:01222F00228C
:10247E00EF24FD601C2402702FEB9001726006E0C9
:10248E004DFFF08009E0FFEDF4FEEF5EFFF08F9060
:10249E0022EB9001736006E04DFFF08009E0FFED46
:0924AE00F4FEEF5EFFF08FB02296
:1025BA00EF24FD600F24027016E5905D60037F0131
:1025CA00227F0022E5B05D60037F01227F00227F27
:0225DA000022DD
:1025DC00EF24FD600D24027011900172E04DF0F5B6
:0B25EC009022900173E04DF0F5B0224A
:10257200EF24FD60122402701B900172E0FFEDF463
:10258200FEEF5EF0F59022900173E0FFEDF4FEEFB6
:052592005EF0F5B0222F
:03000300021F9049
:101F9000C0E0C083C082C0D030B329900160E0604F
:101FA0000E90015FE004F0700690015EE004F09096
:101FB0000162E004F07006900161E004F0900160BD
:101FC000E4F0802A900160E06404600E90015FE01C
:101FD00024FFF090015EE034FFF0900162E024FF06
:101FE000F0900161E034FFF09001607404F0D0D013
:071FF000D082D083D0E03263
:03001300021F26A3
:101F2600C0E0C083C082C0D030B22C900160E064B3
:101F360007600E90015FE024FFF090015EE034FF41
:101F4600F0900162E024FFF0900161E034FFF09030
:101F560001607407F0802A900160E06401600E90D1
:101F6600015FE004F0700690015EE004F09001620B
:101F7600E004F07006900161E004F09001607401E5
:0A1F8600F0D0D0D082D083D0E0323A
:1024E900E490015EF0A3F0900161F0A3F0EFFD7CB0
:1024F900007009D288D28AD2A8D2AA22ED64014CEE
:10250900700DA2B23390015CF0A2B3E433A3F022C0
:10195800A2B2E433FFA2B3E433FEEFF4FD90015CDE
:10196800E0FC5D6021EE601090015FE004F070160D
:1019780090015EE004F0800E90015FE024FFF0909B
:10198800015EE034FFF0EEF4FD90015DE0FB5D6088
:1019980021EF601090015FE024FFF090015EE034D9
:1019A800FFF0800E90015FE004F0700690015EE0A9
:1019B80004F0ECF45F6021EE601090015FE024FF1A
:1019C800F090015EE034FFF0800E90015FE004F0DB
:1019D800700690015EE004F0EBF45E6021EF6010A9
:1019E80090015FE004F0701690015EE004F0800E54
:1019F80090015FE024FFF090015EE034FFF0900179
:081A08005CEFF0AF06A3EEF065
:011A100022B3
:101DCE004300FC0000004300FF000000430102003E
:021DDE00000003
:03000B00021FF7DA
:101FF700C0E0C0F0C083C082C0D075D000C000C0B0
:1020070001C002C003C004C005C006C0079000F8A5
:10201700E0FEA3E0F58AEEF58C9000F3E004F070A3
:10202700069000F2E004F09000FCE0FBA3E0FAA3C6
:10203700E0F9EA494B60031208B2D007D006D00591
:10204700D004D003D002D001D000D0D0D082D0832A
:05205700D0F0D0E032E2
:03001B0002205C64
:10205C00C0E0C0F0C083C082C0D075D000C000C04A
:10206C0001C002C003C004C005C006C0079000FA3E
:10207C00E0FEA3E0F58BEEF58D9000F5E004F0703A
:10208C00069000F4E004F09000FFE0FBA3E0FAA35C
:10209C00E0F9EA494B60031208B2D007D006D0052C
:1020AC00D004D003D002D001D000D0D0D082D083C5
:0520BC00D0F0D0E0327D
:03002B000221812E
:10218100C0E0C0F0C083C082C0D075D000C000C024
:1021910001C002C003C004C005C006C0079000F71B
:1021A100E004F070069000F6E004F0900102E0FB1C
:1021B100A3E0FAA3E0F9EA494B60031208B2C2CFE7
:1021C100D007D006D005D004D003D002D001D00072
:0B21D100D0D0D082D083D0F0D0E0321C
:101CAC0090012AEBF0A3EAF0A3E9F0EF14603114F1
:101CBC0060582402707AC28C5389F043890143C95D
:101CCC0090E49000F2F0A3F090012AE0F9A3E0FA7E
:101CDC00A3E09000FCC9F0A3EAF0A3E9F0D2A9229A
:101CEC00C28E53890F43891043C9A0E49000F4F0CD
:101CFC00A3F090012AE0F9A3E0FAA3E09000FFC959
:101D0C00F0A3EAF0A3E9F0D2AB22E4F5C853C9F092
:101D1C0043C9C09000F6F0A3F090012AE0F9A3E0CB
:101D2C00FAA3E0900102C9F0A3EAF0A3E9F0D2AD66
:011D3C002284
:1022D700EDF4FDECF4FCED2401FDE43CFCEF1460AF
:1022E7001A14602A240270399000F8ECF0A3EDF07C
:1022F700F58AECF58CE49000F280239000FAECF07C
:10230700A3EDF0F58BECF58DE49000F480108CCB09
:102317008DCAAE04AF058ECD8FCCE49000F6F0A346
:01232700F0C5
:012328002292
:10254900EF1460111460182402701DED6003D3802C
:1025590001C392A922ED6003D38001C392AB22ED9E
:092569006003D38001C392AD228E
:10002E00EF14600A14600A24027008D28C22D28E59
:04003E0022D2CA22DE
:10262800EF14600A14600A24027008C28C22C28E59
:0426380022C2CA22CE
:10232900EF14601414602A24027035AF8CEFFCAFEF
:102339008AEFFD9000F8800BAF8DEFFCAF8BEFFDBE
:102349009000FAE0FEA3E0FFC3ED9FFDEC9EFC8048
:1023590013ACCDADCCC3ED95CAFDEC95CBFC800497
:08236900E4FEFF22AF05AE0403
:012371002249
:10237200EDF4FDECF4FCED2401FDE43CFCEF146013
:10238200161460222402702F8D8AECF58CC28DD235
:102392008C308DFDC28C228D8BECF58DC28FD28E4E
:1023A200308FFDC28E22AE04AF058ECD8FCCC2CF50
:0723B200D2CA30CFFDC2CA00
:0123B9002201
:10251900AE07EE25E024F2F582E43400F583E4F019
:10252900A3F012002EEE25E024F2F582E43400F542
:1025390083E0FAA3E0C39DEA9C40EAAF060226289D
:0C26800001000200000001000D0000003D
:03002300021E4179
:101E4100C0E0C0F0C083C082C0D075D000C000C067
:101E510001C002C003C004C005C006C00730981508
:101E6100C298AD99902680E493FB740193FA7402B1
:101E710093F9121424309927C299902686E493FB92
:101E8100740193FA740293F990000512062745F044
:101E9100600712151B8F9980069000007401F0D025
:101EA10007D006D005D004D003D002D001D000D095
:0A1EB100D0D082D083D0F0D0E03210
:1017BB00900164E0F8A3E0F9A3E0FAA3E0FBE849A9
:1017CB004A4B7005C29CC2AC22EF24FE603E046003
:1017DB00030218909000007401F043878053890F27
:1017EB00438920C2CCC2CD43C9A0D28E900164E004
:1017FB00F8A3E0F9A3E0FAA3E0FB7F607EE37D169C
:10180B007C00120734EFF404F58D802F90000074E8
:10181B0001F075C83443C9C0900164E0F8A3E0F946
:10182B00A3E0FAA3E0FB7F607EE37D167C0012074A
:10183B0034C3E49FFFE49EF5CB8FCA75985053C613
:10184B00EF900168E042C690014F7401F0A3740061
:10185B00F0A37418F0A3E4F0A37440F07B017A00BA
:10186B007902121EBB90014F7401F0A37400F0A318
:10187B007458F0A3E4F0A37440F07B017A00790D67
:06188B00121EBBD2AC22CC
:10259700EF75F003A42480F582E43426F583E493F1
:1025A700FB740193FA740293F9900005120627FF52
:0325B700AEF02261
:10223000EF75F003A42480F582E43426F583E4935B
:10224000FB740193FA740293F9900002120829C0FA
:1022500003C002C001EF75F003A42480F582E434CA
:1022600026F583E493FB740193FA740293F99000CA
:1022700007120627D001D002D003F58285F0831221
:04228000056FFF22C5
:05240000900174EFF0F3
:10240500900174E0FF75F003A42480F582E434267E
:10241500F583E493FB740193FA740293F990000534
:1024250012062745F060D9EF6004C2EC8002C2AC09
:0E24350012151B900174E06003D2EC22D2ACB1
:012443002276
:0E16080090012FEFF0A3EBF0A3EAF0A3E9F0BE
:10161600A3E0FFA3E0A3CFF0A3EFF0E4A3F0A3F0D1
:10162600900135E07002A3E070030216E190012FED
:10163600E075F003A42480F582E43426F583E49370
:10164600FB740193FA740293F9900005120627FFC2
:10165600900137E5F0F0A3EFF0900135E0FEA3E04E
:10166600FFD3900138E09F900137E09E4005EEF0F1
:10167600A3EFF090012FE06004C2EC8002C2ACC080
:1016860002C001900130E0F9A3E0FAA3E09001085E
:10169600C9F0A3EAF0A3E9F0900137E0FFA3E090D8
:1016A600010BCFF0A3EFF0D001D002120CB79001DE
:1016B6002FE06004D2EC8002D2AC900137E0FEA3AA
:1016C600E0FFC3900136E09FF0900135E09EF09078
:0B16D6000131EE8FF01205D002162645
:0116E10022E6
:101A1100900139EFF0A3EDF0A3EBF0A3EAF0A3E915
:011A2100F0D4
:101A2200A3E0FFA3E0A3CFF0A3EFF0900140E070AA
:101A320002A3E06075900139E0FF75F003A42480F1
:101A4200F582E43426F583E493FB740193FA74027D
:101A520093F990000512062745F060CFEF6004C2AB
:101A6200EC8002C2AC12151B900142EFF0900139DA
:101A7200E06004D2EC8002D2AC90013AE0FF900127
:101A820042E0FE6F6024900141E024FFF0900140AB
:101A9200E034FFF090013BE0FBA3E475F001120596
:101AA200E6A9F0FAEE12059C8081900140E0FEA3C7
:0F1AB200E0FFC390013FE09FFF90013EE09EFEEA
:011AC1002202
:0E189100900143EFF0A3EBF0A3EAF0A3E9F01F
:10189F00E4900149F0A3F0900148E024FFF090019B
:1018AF0047E034FFF0900147E0FEA3E0FFC3900153
:1018BF004AE09F900149E09E5074900143E0FF750C
:1018CF00F003A42480F582E43426F583E493FB74BB
:1018DF000193FA740293F990000512062745F06000
:1018EF00D9EF6004C2EC8002C2AC12151B90014B01
:1018FF00EFF0900143E06004D2EC8002D2AC900193
:10190F004BE0FF900144E0FBA3E0FAA3E0F9900164
:10191F0049E475F0011205E685F082F583EF1205B3
:10192F00AEEF640D6008EF640A60030218B4900113
:10193F0044E0FBA3E0FAA3E0F9900149E0FEA3E045
:09194F00FFF5828E83E40205AE6F
:1023BA00EF75F003A42486F582E43426F583E493CA
:1023CA00FB740193FA740293F9900005120627FD33
:1023DA00ACF0EF75F003A42486F582E43426F58385
:1023EA00E493FB740193FA740293F91205FCC39DFA
:0623FA00FFE5F09CFE224D
:1020C100900175EFF06004C2EC8002C2AC90017522
:1020D100E0FF2400F582E43400F583E0601AEF604C
:1020E100048DC180028D99900175E02400F582E490
:1020F1003400F583E4F0801F900175E075F003A4CE
:102101002486F582E43426F583E493FB740193FA83
:10211100740293F9121424900175E06003D2EC2249
:03212100D2AC221B
:0B212400900169EBF0A3EAF0A3E9F0E2
:10212F00E4A3F0A3F0900169E0FBA3E0FAA3E0F9C8
:10213F00A3E0FCA3E0F5828C8312056F6010900181
:10214F006DE004F070DF90016CE004F080D7900137
:10215F0069E0FBA3E0FAA3E0F9A3E0FDA3E090019F
:10216F0058CDF0A3EDF012108E90016CE0FEA3E0BD
:01217F00FF60
:01218000223C
:10108E00900155EBF0A3EAF0A3E9F0900154EFF0D4
:10109E00E490015AF0A3F0EF6004C2EC8002C2ACFF
:1010AE00900154E0FF2400F582E43400F583E06003
:1010BE0049EF9001556014E0FBA3E475F0011205B1
:1010CE00E6A9F0FA120556F5C18012E0FBA3E4750D
:1010DE00F0011205E6A9F0FA120556F599900154A1
:1010EE00E02400F582E43400F583E4F0900159E049
:1010FE0024FFF0900158E034FFF0900154E06004BA
:10110E00D2EC8002D2AC900158E07002A3E07003E2
:10111E00021212900154E0FF75F003A42486F582AA
:10112E00E43426F583E493FB740193FA740293F985
:10113E00900005120627FDACF0EF75F003A424868F
:10114E00F582E43426F583E493FB740193FA74027A
:10115E0093F91205FCC39DFEE5F09C90015AF0A395
:10116E00CEF090015AE0FEA3E0FF4E609990015838
:10117E00E0FCA3E0FDD3EF9DEE9C4006A3ECF0A3B4
:10118E00EDF0900154E0FF6004C2EC8002C2ACEFBF
:10119E0075F003A42486F582E43426F583E493FBEC
:1011AE00740193FA740293F9C002C001900155E0E4
:1011BE00F9A3E0FAA3E0900117C9F0A3EAF0A3E9BE
:1011CE00F090015AE0FFA3E090011ACFF0A3EFF0E8
:1011DE00D001D002120EAA900154E06004D2EC802D
:1011EE0002D2AC90015AE0FEA3E0FFC3900159E099
:1011FE009FF0900158E09EF0900156EE8FF0120590
:04120E00D0021114E5
:0112120022B9
:101DE0004300DE000000430001000000430001004A
:101DF00000004300010000004300E7000000430032
:041E0000EA000000F4
:0300430002121393
:10121300C0E0C0F0C083C082C0D075D000C000C0A1
:1012230001C002C003C004C005C006C00720D90323
:101233000212C5E5D9543024F0602624F060452419
:10124300F0605B243070799000E4E0FBA3E0FAA344
:10125300E0F9EA494B6069E5D9540FFF9000E48057
:10126300559000EEE004F070069000EDE004F0907D
:1012730000DEE0FBA3E0FAA3E0F9EA494B60411288
:1012830008B2803C9000E1E0FBA3E0FAA3E0F9EAB6
:10129300494B602CE5D9540FFF9000E18018900072
:1012A300EFE0FBA3E0FAA3E0F9EA494B6012E5D9CA
:1012B300540FFF9000EFA3A3E0F5828A831208B6D0
:1012C300C2D930D81C9000E7E0FBA3E0FAA3E0F911
:1012D300EA494B60031208B275E300C2DAC2D9C20D
:1012E300D830DA1CC2DA9000EAE0FBA3E0FAA3E00C
:1012F300F9EA494B600DE5DA30E2081208B28003DF
:1013030075D8FFD007D006D005D004D003D002D0C3
:0E13130001D000D0D0D082D083D0F0D0E03214
:101D3D00E49000EDF0A3F075E229F5E375D1811281
:101D4D0005FC85F0EDF5EC90000212062785F0EF0D
:101D5D00F5EE90000412062785F0E5F5E4900006F7
:101D6D0012062785F0E7F5E690000812056FF5DC01
:101D7D0090000912056FF5D290000A12056FF5D487
:101D8D0090000B12056FF5D690000C12056FF5DE65
:101D9D0090000D12056FF5EA90000E12056FF5EB30
:101DAD00E4F5DDF5D3F5D5F5D7F5DF90000F120588
:091DBD006FF5E175D8FFD2EA22AE
:101E04004200C500004200CA00004100C300410076
:101E1400C7004100C8004100C1014100C90141009F
:101E2400D2004100C0004100C2004100D500410081
:0C1E3400C4004200D800004200D30000AF
:1016E2009000C6E004F070069000C5E004F090009F
:1016F200CBE004F070069000CAE004F09000A0E095
:1017020060289000C5E0FEA3E07802CEC313CE139A
:10171200D8F9FF9000A0E0FEEFC39E400D9000C3F9
:101722007401F0E49000C5F0A3F09000BDE06028E1
:101732009000CAE0FEA3E07802CEC313CE13D8F91C
:10174200FF9000BDE0FEEFC39E400D9000C7740104
:10175200F0E49000CAF0A3F09000C8E06401705871
:101762009000D2E060529000D8E07002A3E06022C4
:101772009000C4E0FF70059000C004F0EF540770C1
:10178200059000C204F09000D9E024FFF09000D848
:1017920080149000D3E07002A3E060109000D4E0C7
:1017A20024FFF09000D3E034FFF080069000D5745F
:0917B20001F09000C4E004F022F3
:1000460012263C7BF07D01E4FF1221DC7B0D7D0353
:10005600E4FF1221DC7B327D037F011221DC7B0170
:100066007D017F011221DC7BFF7A1679E27F021285
:100076001CAC7DC07C5D7F021222D77F0212002E4F
:10008600D2AFC2AE1222847F011224E990016E1211
:1000960007F81337BEEF7D207F031225727D107F90
:1000A600011225BA900123EFF0E4A3F07D207F0131
:1000B6001225BAEF70169000C8F07D027F01122556
:1000C600DC7D107F031225DC7D20801E7D407F01B4
:1000D6001225BAEF70189000C804F07D02FF1225B1
:1000E600DC7D207F031225DC7D107F03801B7D8055
:1000F6007F011225BAEF70149000C87402F07D30AB
:100106007F031225DC7D027F011225727D107F019F
:100116001225BAEF601B900124E0D39404748094F6
:100126008050047F0180027F00900124E02FF08040
:1001360014900124E0FF60047E0180027E00C3EF7C
:100146009E900124F0900123E0FF6008A3E0700474
:100156007E0180027E00900125EEF0EF700C90018A
:1001660024E0640470047F0180027F00900126EF82
:10017600F0900123E06004A3E07008900124E0649D
:100186000470047F0180027F00900123EFF01219B2
:100196005890015EE0A3E0FF900127E0FEC3EF9ECA
:1001A600FEFD3395E0FCC3ED94FFEC6480947F4044
:1001B6000BD3ED9401EC648094804033D3ED94002E
:1001C600EC6480948040047D0180027D00900128CB
:1001D600EDF0EE3395E0C36480948050047E018098
:1001E600027E00900129EEF0900127EFF08007E4EF
:1001F600900128F0A3F09000C8E01470030202A159
:10020600147003020336240260030203CE7D207FAE
:10021600011225BAEF603B900125E060057F0412CC
:1002260026AC900126E060057F0412268C900128FA
:10023600E0600C9000C1E0F404FFE4FD1226669035
:100246000129E070030203CE9000C1E0FFE4FD0245
:1002560002E4900128E060069000C1E004F09001FD
:1002660029E060069000C1E014F09000C1E0FF3381
:1002760095E0FEC3EF9401EE648094805003740110
:10028600F09000C1E0FF3395E0FED3EF940AEE64F0
:1002960080948050030203CE0203307D407F01121A
:1002A60025BAEF603F900126E060119000D2E07021
:1002B600047F0180027F009000D2EFF0900128E0D9
:1002C600600A9000C9E0FDE4FF122666900129E06D
:1002D60070030203CE9000C9E0F404FDE4FF122689
:1002E600660203CE900128E060069000C9E004F0A3
:1002F600900129E060069000C9E014F09000C9E082
:10030600FF3395E0FEC3EF9401EE648094805003C2
:100316007401F09000C9E0FF3395E0FED3EF940A34
:10032600EE6480948050030203CE740AF00203CE7A
:100336007D807F011225BAEF6045900128E06012AA
:100346007FE97E0012269890009EE070FAFFFE126A
:100356002698900129E060127FEA7E001226989086
:10036600009EE070FAFFFE122698900125E06007D5
:100376007FE27E00122698900126E0604B80439033
:100386000128E060127FB57E0012269890009EE05C
:1003960070FAFFFE122698900129E060127FB67E61
:1003A6000012269890009EE070FAFFFE12269890A2
:1003B6000125E060077FCD7E00122698900126E099
:1003C6006006E4FFFE1226989000C0E060357F10BC
:1003D600121AC290016EA3A3A3E09000CCF0FB908A
:1003E600016EA3A3E0FEEE9000CDF0EB30E70690A1
:1003F60000CCE004F09000CDE030E70204F0E49099
:1004060000C0F09000C2E070030204B59000CCE09A
:10041600FF3395E0FE9000CFE02FF09000CEE03E57
:10042600F09000CDE0FF3395E0FE9000D1E02FF094
:100436009000D0E03EF09000DAE0FEA3E07804CE33
:10044600A2E713CE13D8F8FD9000CEE0FAA3E0FBA6
:10045600AE027804CEA2E713CE13D8F8C39DFF9060
:1004660000D6F0FC9000DCE0FEA3E07804CEA2E724
:1004760013CE13D8F8FD9000D0E0FEA3E07804CEAA
:10048600A2E713CE13D8F8C39D9000D7F0FD9000D5
:10049600DAEAF0A3EBF09000D0E0FFA3E09000DCF6
:1004A600CFF0A3EFF0AF04122659E49000C2F0900B
:1004B60000D5E060797F10121AC290016EA3A3E006
:1004C600FFA3E09000D8CFF0A3EFF07F10121AC27E
:1004D60090016EA3A3E0FFA3E09000D3CFF0A3EFBB
:1004E600F09000D8E0FEA3E07802CEC313CE13D876
:1004F600F9F0EE9000D8F09000D3E0FEA3E0780289
:10050600CEC313CE13D8F9F0EE9000D3F09000D9F5
:10051600E024E8F09000D8E03403F09000D4E02422
:10052600E8F09000D3E03403F0E49000D5F09000BA
:10053600C3E0600812264CE49000C3F09000C7E0C8
:1005460070030200B2122673E49000C7F00200B2F4
:10263C0075A15575A1AA53B9F843B90675A1FF2226
:1025F700EF4E601505A105A105A105A105A105A13E
:0A26070005A1EF1F70EA1E80E72214
:10261100AD07AC06ED4C600E7FE87E031225F7EDA9
:072621001D70F11C80EE2288
:101321001201100100000008861A0CFE00010102E2
:10133100030109023B00020100803209040000019F
:101341000301020409211001000122430007058164
:10135100030800010904010001030101050921102D
:10136100010001221900070582030400010501099A
:1013710002A1010901A1000509190129031500258F
:101381000175019503810275059501810305010927
:1013910030093109381581257F75089503810605C6
:1013A1000C0A38021581257F750895018106C0C098
:1013B100050C0901A101850119002A3C021500262D
:1013C1003C02950175108100C0040309040E0377E6
:1013D10000630068002E0063006E00220355005375
:1013E1000042002000430043002000500061006ED5
:1013F1000020004D006F0075007300650016034466
:1014010000450041004400420045004500460030CF
:1014110000350000A100AB00B5000002121202026B
:0314210040040381
:1024B7007B017A0079A1EF6028900098E0FCA3E007
:1024C700F5828C83E49312059C740129F9E43AFAA6
:1024D700900099E004F07006900098E004F01F80E7
:0124E700D51F
:0124E80022D1
:0926A300EF7005F5DD75DCC022C5
:051B710090012DEFF0D2
:101B760070689000BEE054607055A3E024FB603CA2
:101B86001470479000BBE0FEA3E0FFC39408EE94F8
:101B96000040067D087F08800090012EEFF0122499
:101BA600B790012EE0FFFDC39000BCE09DF09000D1
:101BB600BBE09400F08FDD63DC40801EE5E35480DB
:101BC600FF90009AE04FF5E38008E4F5DD8003E43A
:101BD600F5DDE5DC54FC4402F5DC90012DE0FF7EEA
:101BE6000064017019F5D3E5D254FC4402F5D2E441
:101BF6009000ACF0A3F0A3F0A3F090009BF0EF648C
:101C0600024E700FF5D5E5D454FC4402F5D4E490A9
:031C1600009EF03D
:011C190022A8
:10092B00EF6003020CB69000A8E0FE9000A7E0FD7C
:10093B00EDFF9000BBEEF0A3EFF09000A2E0900073
:10094B00BFF09000A1E0FF9000BEF0E4900098F0A3
:10095B00A3F090012DF0EF5460FF6003020B339076
:10096B0000BFE0B40C004003020B3090097DF82867
:10097B0028730209A10209B1020B300209F8020B1C
:10098B0030020A47020A52020B30020B12020B18FA
:10099B00020B23020C4AE49000A1F0A3F090012D6E
:1009AB007402F0020C4A9000BEE0541F6402703ACD
:1009BB009000A3E070349000A5E0247F60101460D9
:1009CB001B2481707453D27F53D2F3020C4A53D23F
:1009DB00BFE5D254FC4402F5D2020C4A53D4BFE516
:1009EB00D454FC4402F5D4020C4A020C449000BED1
:1009FB00E0541F640270429000A3E0703C9000A58D
:100A0B00E0247F60151460202481702A53D27FE587
:100A1B00D254F3440CF5D2020C4A53D2BFE5D25454
:100A2B00FC4403F5D2020C4A53D4BFE5D454FC4426
:100A3B0003F5D4020C4A020C44020C449000A3E0D0
:100A4B0090009AF0020C4A9000A4E024FE6024145B
:100A5B00603424E17003020AE624216003020B0FC9
:100A6B009000987413F0A37421F090012D7412F080
:100A7B00020C4A9000987413F0A37433F090012D7C
:100A8B00743BF0020C4A9000A3E014601614601F34
:100A9B0014601E240370269000987413F0A374CA7C
:100AAB00F080249000987413F0A374CEF08018801B
:100ABB000C9000987413F0A374FEF0800A900098C9
:100ACB007413F0A374DCF0900098E0FCA3E0F582C3
:100ADB008C83E49390012DF0020C4A9000A5E090DA
:100AEB00009870107413F0A3746EF090012D744382
:100AFB00F0020C4A7413F0A374B1F090012D741929
:100B0B00F0020C4A020C4490009C020C079000A3CC
:100B1B00E090009CF0020C4AE49000A1F090012DB3
:100B2B0004F0020C4A020C44EF64206003020C44F4
:100B3B009000BFE024FE7003020BE2147003020B63
:100B4B00F924FA7003020C4A147003020C1414708B
:100B5B0003020C2B240A6003020C429000A5E070E8
:100B6B003B90012EF090012EE0C39405748094808D
:100B7B005021E0FF24ABF582E43400F583E0FE74F2
:100B8B00A12FF582E43400F583EEF090012EE00402
:100B9B00F080D290012D7405F0020C4AE490012EE6
:100BAB00F090012EE0C39403748094805021E0FFF9
:100BBB0024B5F582E43400F583E0FE74A12FF582B1
:100BCB00E43400F583EEF090012EE004F080D29037
:100BDB00012D7403F080689000A5E070079000A0D1
:100BEB00E0A380079000BDE09000A1F0801390007F
:100BFB00A5E0700590009D800390009FE09000A100
:100C0B00F090012D7401F080369000A5E09000A4C7
:100C1B007007E09000A0F08026E09000BDF0801FF0
:100C2B009000A5E09000A37007E090009DF0800F6E
:100C3B00E090009FF08008800090012D74FFF090F1
:100C4B00012DE0FFF4700A9000BF74FFF075DCCF4C
:100C5B00227E00D39000BCE09F9000BBE09E40053D
:100C6B00EEF0A3EFF09000BBE0FEA3E0FFD39408FF
:100C7B00EE940040067D087F08800090012DEFF078
:100C8B00900098E07002A3E0600890012DE0FF1245
:100C9B0024B790012DE0FFFDC39000BCE09DF090C8
:0B0CAB0000BBE09400F08FDD75DCC0A2
:010CB600221B
:1024440075DC0275D21275D412E49000ABF0A3F0DF
:10245400A3F0A3F0A3F090009BF09000A0F09000F4
:102464009D04F09000B5F0E4A3F0A3F090009EF07A
:0A2474009000BDF090009F04F022DC
:102284009000DEE4F0A3F0A3F09000E474FFF0A368
:102294007426F0A374A3F09000E174FFF0A3741B00
:1022A400F0A37471F09000EF74FFF0A37409F0A32D
:1022B400742BF09000E774FFF0A37424F0A374442B
:1022C400F09000EAE4F0A3F0A3F07BFF7A14791411
:0322D400021D3DAB
:0D264C0090009B7401F075D30553D2FC2261
:0926AC009000ABE04FF002264C57
:0C268C00EFF4FF9000ABE05FF002264C82
:0D2659009000ACE02FF0A3E02DF002264C25
:0D2666009000AEE02FF0A3E02DF002264C16
:0D26730090009E7401F075D50353D4FC2235
:0B2698009000B6EFF0EEA3F0022673F6
:051AC20090012AEFF085
:101AC70090012AE07003021B7090016EE0FCA3E016
:101AD700FDA3E0FEA3E0FF781F1207C690012BEFDE
:101AE700F0FB90016EE0FCA3E0FDA3E0FEA3E0FFA6
:101AF70078151207C6EB6F90012BF0FB90016EE093
:101B0700FCA3E0FDA3E0FEA3E0FF78011207C6EB0C
:101B17006F90012BF0FB90016EA3A3A3E06B9001E4
:101B27002BF05401F090016EE0FCA3E0FDA3E0FE72
:101B3700A3E0FF78011207D990016E1207EC90011C
:101B47006EE0F8A3E0F9A3E0FAA3E0FB90012BE035
:101B5700FFEB4FFFEAFEE9FDE8FC90016E1207EC90
:091B670090012AE014F0021AC7F3
:011B70002252
:101C2C00020046E493A3F8E493A34003F68001F288
:101C3C0008DFF48029E493A3F85407240CC8C333B9
:101C4C00C4540F4420C8834004F456800146F6DF88
:101C5C00E4800B0102040810204080901DC6E47E35
:101C6C00019360BCA3FF543F30E509541FFEE4937D
:101C7C00A360010ECF54C025E060A840B8E493A344
:101C8C00FAE493A3F8E493A3C8C582C8CAC583CA6F
:101C9C00F0A3C8C582C8CAC583CADFE9DEE780BE27
:011E400000A1
:10055600BB010689828A83E0225002E722BBFE02A3
:09056600E32289828A83E49322D6
:10056F00BB010CE58229F582E5833AF583E0225041
:10057F0006E92582F8E622BBFE06E92582F8E2228B
:0D058F00E58229F582E5833AF583E49322A5
:10059C00BB010689828A83F0225002F722BBFE013E
:0205AC00F32238
:1005AE00F8BB010DE58229F582E5833AF583E8F083
:1005BE00225006E92582C8F622BBFE05E92582C82F
:0205CE00F22217
:1005D000C5F0F8A3E028F0C5F0F8E58215827002B6
:0605E0001583E038F02253
:1005E600A3F8E0C5F025F0F0E582158270021583C8
:0605F600E0C838F0E82225
:1005FC00BB010A89828A83E0F5F0A3E022500687CA
:10060C00F009E71922BBFE07E3F5F009E31922898B
:0B061C00828A83E493F5F074019322BE
:10062700BB0110E58229F582E5833AF583E0F5F011
:10063700A3E0225009E92582F886F008E622BBFEEE
:100647000AE92582F8E2F5F008E222E5832AF58334
:08065700E993F5F0A3E99322F9
:10065F00BB010DC58229C582C5833AC5830205D06A
:10066F005011C58229F808E5F026F618F5F0E58255
:10067F0036F622BBFE11C58229F808E225F0F5F007
:10068F00F218E23582F222F8E58229F582E5832A13
:0D069F00F58374019325F0F5F0E493382203
:1006AC00BB010A89828A83F0E5F0A3F0225006F799
:0F06BC0009A7F01922BBFE06F3E5F009F3192296
:1006CB00F8BB0111E58229F582E5833AF583E8F061
:1006DB00E5F0A3F0225009E92582C8F608A6F0221E
:0D06EB00BBFE09E92582C8F2E5F008F22205
:1006F80075F008758200EF2FFFEE33FECD33CDCCB9
:1007080033CCC58233C5829BED9AEC99E58298403B
:100718000CF582EE9BFEED9AFDEC99FC0FD5F0D618
:10072800E4CEFBE4CDFAE4CCF9A88222B800C1B942
:100738000059BA002DEC8BF084CFCECDFCE5F0CB80
:10074800F97818EF2FFFEE33FEED33FDEC33FCEBB9
:1007580033FB10D703994004EB99FB0FD8E5E4F974
:10076800FA227818EF2FFFEE33FEED33FDEC33FC61
:10077800C933C910D7059BE99A4007EC9BFCE99A55
:10078800F90FD8E0E4C9FAE4CCFB2275F010EF2F9A
:10079800FFEE33FEED33FDCC33CCC833C810D7079A
:1007A8009BEC9AE899400AED9BFDEC9AFCE899F8D5
:0E07B8000FD5F0DAE4CDFBE4CCFAE4C8F92268
:1007C600E8600FECC313FCED13FDEE13FEEF13FF11
:0307D600D8F12235
:1007D900E8600FEFC333FFEE33FEED33FDEC33FC7E
:0307E900D8F12222
:0C07EC00ECF0A3EDF0A3EEF0A3EFF02280
:1007F800A8828583F0D083D08212080F12080F12C6
:10080800080F12080FE473E493A3C583C5F0C583EA
:10081800C8C582C8F0A3C583C5F0C583C8C582C84A
:0108280022AD
:10082900BB010DE58229F582E5833AF5830208FBD0
:100839005007E92582F80208E9BBFE07E92582F895
:1008490002090DE58229F582E5833AF58302091F3C
:10085900BB0120E58229F582E5833AF583D0F0D002
:10086900E0F8D0E0F9D0E0FAD0E0FBE8C0E0C0F071
:100879000209045018E92582F8D083D082D0E0F922
:10088900D0E0FAD0E0FBC082C0830208F2BBFE18B8
:10089900E92582F8D083D082D0E0F9D0E0FAD0E01F
:0908A900FBC082C0830209162283
:0608B2008A838982E473D1
:1008B800E5092582F582E5083583F583B5080485C1
:1008C80082092210AF06858209F50822858209F57A
:0408D80008D2AF2271
:0D08DC00E5092582F582E5083583F58322C4
:0908E900E6FB08E6FA08E6F92234
:0908F200EBF608EAF608E9F6222B
:0908FB00E0FBA3E0FAA3E0F922FE
:09090400EBF0A3EAF0A3E9F022F4
:09090D00E2FB08E2FA08E2F9221B
:09091600EBF208EAF208E9F22212
:0C091F00E493FB740193FA740293F92234
:00000001FF
