:03000000021EDEFF
:101EDE00787FE4F6D8FD750804750900758109024E
:021EEE001F2BA8
:05291A0090022EEFF019
:10291F001229DE7F6C12210B90022EE0FF12210B89
:10292F001229DE7F6D12210BE4900207F012208A2C
:0D293F0090022FEFF0122A0A90022FE0FF05
:01294C002268
:0525A00090018DEFF039
:1025A5001229DE7F6C12210B90018DE0FF12210BA9
:1025B5001229DE7F6D12210B9002077401F01220A3
:1025C5008A90018EE4F0A3EFF0E0F8E4F0E89001E2
:1025D5008EF0E4900207F012208A90018EE0F0A3BD
:0E25E500E04FF0122A0A90018EE0FEA3E0FF04
:0125F30022C5
:102A8400900230EFF0A3EDF01229DE7F6C12210BDF
:102A9400900230E0FF12210B900231E0FF12210B73
:032AA400022A0AF9
:1029AF0090022BEFF0A3ECF0A3EDF01229DE7F6C79
:1029BF0012210B90022BE0FF12210B90022CE0FF53
:0F29CF0012210B90022CA3E0FF12210B022A0A07
:0E1E4A0041021BFF41021CFF43021800000072
:0300630002274130
:10274100C0E0C0F0C083C082C0D075D000C000C05E
:1027510001C002C003C004C005C006C00790021832
:10276100E0FBA3E0FAA3E0F9EA494B6003120B9BFB
:10277100D007D006D005D004D003D002D001D000BC
:0B278100D0D0D082D083D0F0D0E03266
:0225F400A90735
:1025F600ED24FD600A24027048AC92AE938004ACD0
:1026060096AE97E914601414601614601C240370C7
:1026160030EBF4FF5CFCEE5FFE8014EBF45C800BA9
:10262600EC4BFCEBF45EFE8006EC4BFCEE4BFEED59
:1026360024FD6009240270098C928E93228C968E5A
:0126460097FC
:012647002270
:1028E100EF24FD601C2402702FEB90021B6006E0B8
:1028F1004DFFF08009E0FFEDF4FEEF5EFFF08F90F9
:1029010022EB90021C6006E04DFFF08009E0FFED34
:09291100F4FEEF5EFFF08FB0222E
:102AED00EF24FD600F24027016E5905D60037F01F9
:102AFD00227F0022E5B05D60037F01227F00227FEF
:022B0D000022A4
:102B0F00EF24FD600D2402701190021BE04DF0F5D3
:0B2B1F00902290021CE04DF0F5B02267
:102A5F00EF24FD60122402701B90021BE0FFEDF4C7
:102A6F00FEEF5EF0F5902290021CE0FFEDF4FEEF1A
:052A7F005EF0F5B0223D
:102AA700900208EFF0AE05A3EEF0A3EBF0900190D3
:102AB700E090020BF0122B0F90020AE0FFA3E0FD5B
:032AC700022B0FD0
:1029DE0090020AE0FFA3E0FD122A5F900208E0FFDA
:1029EE00A3E0FD122B0F90020AE0FFA3E0FD122BD5
:0C29FE000F900208E0FFA3E0FD022A5F3A
:102A0A0090020AE0FFA3E0FD122A5F900208E0FFAD
:102A1A00A3E0FD122A5F90020AE0FFA3E0FD122B59
:0C2A2A000F900208E0FFA3E0FD022B0F5C
:05210B00900190EFF0CF
:10211000E4A3F0900191E0C394087480948050355A
:1021200090020AE0FFA3E0FD122A5F900208E0FFA0
:10213000A3E0FD900190E05480FB1228E190020A98
:10214000E0FFA3E0FD122B0F900190E025E0F0A34B
:10215000E004F080BE90020AE0FFA3E0FD122A5FD7
:10216000900208E0FFA3E0FD122B0F90020AE0FFAF
:10217000A3E0FD122B0F900208E0FFA3E0FD122A5E
:08218000EDEF6401900206F08E
:012188002234
:10208A00E4900190F0A3F0900191E0C39408748069
:10209A009480503F90020AE0FFA3E0FD122A5F906D
:1020AA000208E0FFA3E0FD122B0F90020AE0FFA353
:1020BA00E0FD122B0F900190E025E0F0900208E07D
:1020CA00FFA3E0FD122AED900190E04FF0A3E00497
:1020DA00F080B490020AE0FFA3E0FD122A5F9002AA
:1020EA0008E0FFA3E0FD900207E06401FB1228E18B
:1020FA0090020AE0FFA3E0FD122B0F900190E0FF8F
:01210A0022B2
:0F1E580041020E0042020C000043020F00000086
:03006B00022489E3
:10248900C0E0C0F0C083C082C0D075D000C000C019
:1024990001C002C003C004C005C006C00790020EF7
:1024A900E0F5FF90020DE004F0700690020CE004E4
:1024B900F090020FE0FBA3E0FAA3E0F9EA494B60D0
:1024C90003120B9BD007D006D005D004D003D0024D
:0F24D900D001D000D0D0D082D083D0F0D0E0326C
:102B800075A15575A1AA53B1FEEF42B175A1FF22FF
:102B6F0075A15575A1AAE5B9543F4FF5B975A1FFE8
:012B7F002233
:102B900075A15575A1AA53B9F8EF42B975A1FF22E5
:0D000E0075A15575A1AA43B11075A1FF227F
:102B2A00EF4E601505A105A105A105A105A105A105
:0A2B3A0005A1EF1F70EA1E80E722DC
:102B4400AD07AC06ED4C600E7FE87E03122B2AED38
:072B54001D70F11C80EE2250
:101E67004301B20000004301B50000004301B80080
:021E7700000069
:03000B0002235C71
:10235C00C0E0C0F0C083C082C0D075D000C000C047
:10236C0001C002C003C004C005C006C0079001AE86
:10237C00E0FEA3E0F58AEEF58C9001A9E004F07084
:10238C00069001A8E004F09001B2E0FBA3E0FAA3F0
:10239C00E0F9EA494B6003120B9BD007D006D0053D
:1023AC00D004D003D002D001D000D0D0D082D083C2
:0523BC00D0F0D0E0327A
:03001B000223C1FC
:1023C100C0E0C0F0C083C082C0D075D000C000C0E2
:1023D10001C002C003C004C005C006C0079001B01F
:1023E100E0FEA3E0F58BEEF58D9001ABE004F0701B
:1023F100069001AAE004F09001B5E0FBA3E0FAA386
:10240100E0F9EA494B6003120B9BD007D006D005D7
:10241100D004D003D002D001D000D0D0D082D0835C
:05242100D0F0D0E03214
:03002B0002254566
:10254500C0E0C0F0C083C082C0D075D000C000C05C
:1025550001C002C003C004C005C006C0079001AD9C
:10256500E004F070069001ACE004F09001B8E0FBE7
:10257500A3E0FAA3E0F9EA494B6003120B9BC2CF33
:10258500D007D006D005D004D003D002D001D000AA
:0B259500D0D0D082D083D0F0D0E03254
:101F700090018DEBF0A3EAF0A3E9F0EF14603114C7
:101F800060582402707AC28C5389F043890143C996
:101F900090E49001A8F0A3F090018DE0F9A3E0FA9D
:101FA000A3E09001B2C9F0A3EAF0A3E9F0D2A9221C
:101FB000C28E53890F43891043C9A0E49001AAF04F
:101FC000A3F090018DE0F9A3E0FAA3E09001B5C978
:101FD000F0A3EAF0A3E9F0D2AB22E4F5C853C9F0CC
:101FE00043C9C09001ACF0A3F090018DE0F9A3E0EB
:101FF000FAA3E09001B8C9F0A3EAF0A3E9F0D2ADEA
:0120000022BD
:1026EF00EDF4FDECF4FCED2401FDE43CFCEF146093
:1026FF001A14602A240270399001AEECF0A3EDF0A9
:10270F00F58AECF58CE49001A880239001B0ECF0F1
:10271F00A3EDF0F58BECF58DE49001AA80108CCB36
:10272F008DCAAE04AF058ECD8FCCE49001ACF0A373
:01273F00F0A9
:012740002276
:102A3600EF1460111460182402701DED6003D3803A
:102A460001C392A922ED6003D38001C392AB22EDAC
:092A56006003D38001C392AD229C
:10002E00EF14600A14600A24027008D28C22D28E59
:04003E0022D2CA22DE
:102B5B00EF14600A14600A24027008C28C22C28E21
:042B6B0022C2CA2296
:10278C00EF14601414602A24027035AF8CEFFCAF88
:10279C008AEFFD9001AE800BAF8DEFFCAF8BEFFDA0
:1027AC009001B0E0FEA3E0FFC3ED9FFDEC9EFC802A
:1027BC0013ACCDADCCC3ED95CAFDEC95CBFC800430
:0827CC00E4FEFF22AF05AE049C
:0127D40022E2
:1027D500EDF4FDECF4FCED2401FDE43CFCEF1460AC
:1027E500161460222402702F8D8AECF58CC28DD2CE
:1027F5008C308DFDC28C228D8BECF58DC28FD28EE7
:10280500308FFDC28E22AE04AF058ECD8FCCC2CFE8
:07281500D2CA30CFFDC2CA98
:01281C002299
:10297F00AE07EE25E024A8F582E43401F583E4F0F8
:10298F00A3F012002EEE25E024A8F582E43401F521
:10299F0083E0FAA3E0C39DEA9C40EAAF06022B5BFB
:101E790043019400000043000100000043000100F9
:101E8900000043000100000043019D0000004301E0
:041E9900A0000000A5
:030043000214FCA8
:1014FC00C0E0C0F0C083C082C0D075D000C000C0B6
:10150C0001C002C003C004C005C006C00720D90337
:10151C000215AEE5D9543024F0602624F060452441
:10152C00F0605B2430707990019AE0FBA3E0FAA3A1
:10153C00E0F9EA494B6069E5D9540FFF90019A80B4
:10154C00559001A4E004F070069001A3E004F09023
:10155C000194E0FBA3E0FAA3E0F9EA494B604112E5
:10156C000B9B803C900197E0FBA3E0FAA3E0F9EA27
:10157C00494B602CE5D9540FFF90019780189001CE
:10158C00A5E0FBA3E0FAA3E0F9EA494B6012E5D928
:10159C00540FFF9001A5A3A3E0F5828A83120B9F41
:1015AC00C2D930D81C90019DE0FBA3E0FAA3E0F96E
:1015BC00EA494B6003120B9B75E300C2DAC2D9C235
:1015CC00D830DA1CC2DA9001A0E0FBA3E0FAA3E069
:1015DC00F9EA494B600DE5DA30E208120B9B800307
:1015EC0075D8FFD007D006D005D004D003D002D0D8
:0E15FC0001D000D0D0D082D083D0F0D0E03229
:10200100E49001A3F0A3F075E229F5E375D1811203
:1020110008E585F0EDF5EC90000212091085F0EF6E
:10202100F5EE90000412091085F0E5F5E490000644
:1020310012091085F0E7F5E6900008120846F5DC74
:10204100900009120846F5D290000A120846F5D40C
:1020510090000B120846F5D690000C120846F5DEEA
:1020610090000D120846F5EA90000E120846F5EBB5
:10207100E4F5DDF5D3F5D5F5D7F5DF90000F1208BE
:0920810046F5E175D8FFD2EA2210
:101E9D0042015B0000420160000041015900410117
:101EAD005D0041015E00410168004101570841019B
:101EBD005F0841016900410156004101580041018F
:101ECD006C0041015A0042016F000042016A00009E
:1019CB0090015CE004F0700690015BE004F0900184
:1019DB0061E004F07006900160E004F0900136E0E5
:1019EB00602890015BE0FEA3E07802CEC313CE1318
:1019FB00D8F9FF900136E0FEEFC39E400D900159E0
:101A0B007401F0E490015BF0A3F0900153E06028C7
:101A1B00900160E0FEA3E07802CEC313CE13D8F999
:101A2B00FF900153E0FEEFC39E400D90015D7401EA
:101A3B00F0E4900160F0A3F090015EE06402605866
:101A4B00900169E0605290016FE07002A3E06022A8
:101A5B0090015AE0FF700590015604F0EF540770A7
:101A6B000590015804F0900170E024FFF090016F95
:101A7B00801490016AE07002A3E0601090016BE0AB
:101A8B0024FFF090016AE034FFF0800690016C7443
:091A9B0001F090015AE004F02270
:10006E007F06122B907BE27D01E4FF1225F47B11BB
:10007E007D017F021225F47B3E7D037F011225F464
:10008E007B017D03E4FF1225F47D047F03122A5FBA
:10009E009001907410F07B017D017F01122AA77BE5
:1000AE00FF7A1979CB7F02121F707DC07C5D7F02B3
:1000BE001226EF7F0212002ED2AFC2AEE587543069
:1000CE00642070077FF47E01122B4412269C90024E
:1000DE0027120AE1DEADBEEFE4F5FF7F01122B80A1
:1000EE007D207F03122A5F7D207F01122AED900171
:1000FE0075EFF07D407F01122AED900176EFF07DD5
:10010E00807F01122AED900177EFF0E4A3F0A3F0C7
:10011E00A3F07F0C1225A0EFC4F8540FC868FFEEB1
:10012E00C454F048FE900181F0A3EFF0A3EEF0A3CB
:10013E00EFF0E4900189F0A3F0A3F0A3F07D207F0F
:10014E0001122AEDEF601B900178E0C394087480D1
:10015E00948050047F0180027F00900178E02FF0A0
:10016E008014900178E0FF60047E0180027E00C35F
:10017E00EF9E900178F07D407F01122AEDEF601B1B
:10018E00900179E0C394087480948050047F0180BC
:10019E00027F00900179E02FF08014900179E0FF4A
:1001AE0060047E0180027E00C3EF9E900179F07D97
:1001BE00807F01122AEDEF601B90017AE0C3940854
:1001CE007480948050047F0180027F0090017AE059
:1001DE002FF0801490017AE0FF60047E0180027E91
:1001EE0000C3EF9E90017AF0900175E0FF600A90D7
:1001FE000178E070047E0180027E0090017BEEF0BB
:10020E00900176E0FE600A900179E070047D018035
:10021E00027D0090017CEDF0900177E0FD600A9088
:10022E00017AE070047C0180027C0090017DECF08C
:10023E00EF700C900178E0640870047F0180027FFB
:10024E000090017EEFF0EE700C900179E064087082
:10025E00047F0180027F0090017FEFF0ED700C9023
:10026E00017AE0640870047F0180027F00900180B3
:10027E00EFF0900175E06006900178E07008900153
:10028E0078E0640870047F0180027F00900175EFB2
:10029E00F0A3E06006900179E07008900179E064C7
:1002AE000870047F0180027F00900176EFF0A3E0DA
:1002BE00600690017AE0700890017AE0640870049C
:1002CE007F0180027F00900177EFF07F0C1225A056
:1002DE00EFC4F8540FC868FFEEC454F048AD07FCE5
:1002EE00900181E0FEA3E0FFC3ED9FFFEC9EFE9028
:1002FE000185F0A3EFF0C3EE64809478400ED3E056
:10030E009400900185E0648094884039900185E0E6
:10031E00FEA3E0D39400EE6480948040047B0180C1
:10032E00027B00900187EBF0C3EE64809480500452
:10033E007F0180027F00900188EFF0900181ECF048
:10034E00A3EDF08007E4900187F0A3F0900183E025
:10035E00FEA3E0FFC3ED9FFFEC9EFEEF7804CEA25E
:10036E00E713CE13D8F8FF900185EEF0A3EFF0C39C
:10037E0094FCEE6480947F400ED3E094049001854B
:10038E00E064809480400CAF05900183ECF0A3EF05
:10039E00F08007E4900185F0A3F0900176E06064B0
:1003AE0090017BE0600690015EE014F090017DE02C
:1003BE00600690015EE004F090015EE0FF30E7051C
:1003CE007402F0800FD3EF9402748094804005E4A1
:1003DE0090015EF0900168E0FF90015EE06F602496
:1003EE007D387F03122B0F90015EE0FFF87420081A
:1003FE008002C313D8FCFD7F03122A5F90015EE0DA
:10040E00900168F090015EE014700302051B1470F9
:10041E0003020614240260030206A5900176E06032
:10042E006D900185E07002A3E07003020509900152
:10043E0057E0FF3395E0FE900185E0FCA3E0FD124E
:10044E0008A790018AE02FF0900189E03EF0E0FCD1
:10045E00A3E0FDAE047807CEA2E713CE13D8F8FBC7
:10046E00AA0690018BE0FEA3E07807CEA2E713CE9A
:10047E0013D8F8C39BFFEE9A900185F0A3EFF0908E
:10048E00018BECF0A3EDF0E4FD122BA0806D90013A
:10049E007DE06016900169E070047F0180027F00AC
:1004AE00900169EFF0E4A3F0A3F090017BE060050A
:1004BE007F04122BE6900187E06006900157E0045E
:1004CE00F0900188E06006900157E014F09001571B
:1004DE00E0FF3395E0FEC3EF9401EE64809480500C
:1004EE00037401F0900157E0FF3395E0FED3EF94D3
:1004FE0010EE6480948040037410F0900180E0FF51
:10050E0090017EE04F70030206A502060C90017664
:10051E00E0606F900185E07002A3E070030205FDBC
:10052E0090015FE0FF3395E0FE900185E0FCA3E0D3
:10053E00FD1208A790018AE02FF0900189E03EF0AD
:10054E00E0FCA3E0FDAE047807CEA2E713CE13D8ED
:10055E00F8FBAA0690018BE0FEA3E07807CEA2E797
:10056E0013CE13D8F8C39BFFEE9A900185F0A3EF3C
:10057E00F090018BECF0A3EDF0AD07E4FF122BA091
:10058E00806D90017DE06016900169E070047F013E
:10059E0080027F00900169EFF0E4A3F0A3F09001D8
:1005AE007BE060057F04122BE6900187E0600690E9
:1005BE00015FE004F0900188E0600690015FE014B6
:1005CE00F090015FE0FF3395E0FEC3EF9401EE641F
:1005DE0080948050037401F090015FE0FF3395E04A
:1005EE00FED3EF9410EE6480948040037410F0906C
:1005FE000180E0FF90017EE04F70030206A57F04AC
:10060E00122BC60206A5900176E0602F900187E0BE
:10061E0060127FE97E00122BD2900134E070FAFF57
:10062E00FE122BD2900188E0605B7FEA7E00122BD7
:10063E00D2900134E070FAFFFE8047900187E060AF
:10064E00127FB57E00122BD2900134E070FAFFFEBD
:10065E00122BD2900188E060127FB67E00122BD250
:10066E00900134E070FAFFFE122BD290017BE06015
:10067E00077FE27E00122BD290017DE060077FCDD6
:10068E007E00122BD2900180E0FF90017EE04F6041
:10069E0006E4FFFE122BD2900156E060357F101259
:1006AE001CF2900227A3A3A3E0900162F0FB90023C
:1006BE0027A3A3E0FEEE900163F0EB30E706900176
:1006CE0062E004F0900163E030E70204F0E4900190
:1006DE0056F0900158E0700302078C900162E0FF23
:1006EE003395E0FE900165E02FF0900164E03EF05E
:1006FE00900163E0FF3395E0FE900167E02FF090EC
:10070E000166E03EF0900171E0FEA3E07804CEA217
:10071E00E713CE13D8F8FD900164E0FAA3E0FBAE28
:10072E00027804CEA2E713CE13D8F8C39DFF900132
:10073E006DF0FC900173E0FEA3E07804CEA2E71307
:10074E00CE13D8F8FD900166E0FEA3E07804CEA2A9
:10075E00E713CE13D8F8C39D90016EF0FD90017192
:10076E00EAF0A3EBF0900166E0FFA3E0900173CFF7
:10077E00F0A3EFF0AF04120056E4900158F0900190
:10078E006CE060797F10121CF2900227A3A3E0FFA9
:10079E00A3E090016FCFF0A3EFF07F10121CF29048
:1007AE000227A3A3E0FFA3E090016ACFF0A3EFF02E
:1007BE0090016FE0FEA3E07802CEC313CE13D8F9FA
:1007CE00F0EE90016FF090016AE0FEA3E07802CEA9
:1007DE00C313CE13D8F9F0EE90016AF0900170E0D9
:1007EE0024E8F090016FE03403F090016BE024E810
:1007FE00F090016AE03403F0E490016CF09001593E
:10080E00E06008120046E4900159F090015DE0604E
:0F081E0008122BADE490015DF0E4F5FF02014BF1
:1022F1009001F6EBF0A3EAF0A3E9F09001FCE0F91C
:10230100A3E0FF9001F6E0FBA3E0FAA3E0C98FF0A0
:102311001209959001F9E0FBA3E0FAA3E0F9C003EB
:10232100C002C0019001F6E0FBA3E0FAA3E0F9903E
:102331000002120B429001F6E0FBA3E0FAA3E0F9E0
:10234100900005E4F5F01209B4900007E4F5F012ED
:0B23510009B4900009E4F5F00209B4A3
:10170D0090FFFF120BA1EDF090FFFD120BA1EBF07E
:10171D00A3EAF0A3E9F0850883850982E0FBA3E045
:10172D00FAA3E0F9900005120910FFAEF01208E5DA
:10173D00FDC3EF9DEE95F040057F000217FE900072
:10174D0003120BC5E0FF850883850982E0FBA3E04A
:10175D00FAA3E0F9900002120B12C003C002C001FF
:10176D00850883850982E0FBA3E0FAA3E0F99000E8
:10177D0009120910D001D002D003F58285F083EF54
:10178D00120885850883850982E0FBA3E0FAA3E0B2
:10179D00F9900009E475F001120948E92409F9E40A
:1017AD003AFAC003C002C0011208E5FFAEF0850889
:1017BD0083850982E0FBA3E0FAA3E0F91208E52492
:1017CD00FFFDE5F034FF5EFEEF5DFFD001D002D0EE
:1017DD0003EE8FF0120995850883850982E0FBA33E
:1017ED00E0FAA3E0F9900005E475F0011209487FD5
:0717FD0001900004020BA1A2
:1018040090FFFD120BA1EBF0A3EAF0A3E9F090FF27
:04181400FF120BA113
:10181800850883850982A3E0FBA3E0FAA3E0F99099
:10182800000512091045F07004FF0218EB850883C3
:10183800850982A3E0FBA3E0FAA3E0F99000021275
:101848000B12C003C002C001850883850982A3E08A
:10185800FBA3E0FAA3E0F9900007120910D001D029
:1018680002D003F58285F08312084685088385092E
:1018780082F0A3E0FBA3E0FAA3E0F9900007E47587
:10188800F001120948E92407F9E43AFAC003C00252
:10189800C0011208E5FFAEF0850883850982A3E040
:1018A800FBA3E0FAA3E0F91208E524FFFDE5F03414
:1018B800FF5EFEEF5DFFD001D002D003EE8FF01285
:1018C8000995850883850982A3E0FBA3E0FAA3E0D4
:1018D800F990000574FFF5F0120948850883850919
:0318E80082E0FF9C
:0618EB00900004020BA1B5
:0B0FA0009001BBEBF0A3EAF0A3E9F026
:100FAB00900005120910FFD39001C2E09F9001C180
:100FBB00E095F040037F00229001BBE0FBA3E0FA39
:100FCB00A3E0F9900007120910FFAEF01208E5C379
:100FDB009FFFE5F09EFE9001C3F0A3EFF0C39001DD
:100FEB00C2E09F9001C1E09E50030210C99001BB6B
:100FFB00A3A3E0900002120B12C003C002C0019029
:10100B0001BBE0FBA3E0FAA3E0F990000712091083
:10101B00D001D002D00329F9EA35F0FA9001C5EBE3
:10102B00F0A3EAF0A3E9F0E4A3F0A3F09001C3E08E
:10103B00FEA3E0FF9001C8E0FCA3E0FDC39FEC9E84
:10104B00503C9001C5E0FBA3E0FAA3E0F98D828C44
:10105B0083120846FF9001BEE0FBA3E0FAA3E0F980
:10106B00EF1208739001BFE475F0011208B99001FB
:10107B00C9E004F070069001C8E004F080AE900166
:10108B00BBE0FBA3E0FAA3E0F9900007E4F5F01254
:10109B0009B4E92405F9E43AFA1208E5FF9001C313
:1010AB00E0FCA3E0FDC3EF9DFFE5F09C8FF0120980
:1010BB0095C39001C2E09DF09001C1E09CF09001BE
:1010CB00BBE0FBA3E0FAA3E0F9900002120B12C005
:1010DB0003C002C0019001BBE0FBA3E0FAA3E0F95F
:1010EB00900007120910D001D002D00329F9EA357C
:1010FB00F0FA9001C5EBF0A3EAF0A3E9F0E4A3F05A
:10110B00A3F09001C1E0FEA3E0FF9001C8E0FCA3B7
:10111B00E0FDC39FEC9E503C9001C5E0FBA3E0FAC1
:10112B00A3E0F98D828C83120846FF9001BEE0FB91
:10113B00A3E0FAA3E0F9EF1208739001BFE475F096
:10114B00011208B99001C9E004F070069001C8E0E3
:10115B0004F080AE9001C1E0FEA3E0FF9001BBE084
:10116B00FBA3E0FAA3E0F9900007EE8FF012094819
:10117B00E92405F9E43AFA1208E5C39FFFE5F09E6E
:07118B008FF01209957F01AE
:01119200223A
:0B1193009001CAEBF0A3EAF0A3E9F022
:10119E00900005120910FFAEF01208E5C39FFFE59F
:1011AE00F09EFED39001D1E09F9001D0E09E4003CF
:1011BE007F00229001CAE0FBA3E0FAA3E0F99000C1
:1011CE0009120910FFAEF01208E5C39FFFE5F09E6D
:1011DE00FE9001D2F0A3EFF0C39001D1E09F9001F9
:1011EE00D0E09E50030212B99001CAA3A3E0900072
:1011FE0002120B12C003C002C0019001CAE0FBA391
:10120E00E0FAA3E0F9900009120910D001D002D043
:10121E000329F9EA35F0FA9001D4EBF0A3EAF0A332
:10122E00E9F0E4A3F0A3F09001D2E0FEA3E0FF907A
:10123E0001D7E0FCA3E0FDC39FEC9E503C9001CD96
:10124E00E0FBA3E0FAA3E0F912082DFF9001D4E031
:10125E00FBA3E0FAA3E0F98D828C83EF1208859050
:10126E0001CEE475F0011208B99001D8E004F070D7
:10127E00069001D7E004F080AE9001CAE0FBA3E037
:10128E00FAA3E0F9900009E4F5F01209B49001D246
:10129E00E0FEA3E0FF900005EE8FF0120948C39028
:1012AE0001D1E09FF09001D0E09EF09001CAE0FBEA
:1012BE00A3E0FAA3E0F9900002120B12C003C002E1
:1012CE00C0019001CAE0FBA3E0FAA3E0F990000987
:1012DE00120910D001D002D00329F9EA35F0FA90A4
:1012EE0001D4EBF0A3EAF0A3E9F0E4A3F0A3F090AD
:1012FE0001D0E0FEA3E0FF9001D7E0FCA3E0FDC328
:10130E009FEC9E503C9001CDE0FBA3E0FAA3E0F9E8
:10131E0012082DFF9001D4E0FBA3E0FAA3E0F98DB3
:10132E00828C83EF1208859001CEE475F0011208CD
:10133E00B99001D8E004F070069001D7E004F08077
:10134E00AE9001D0E0FEA3E0FF9001CAE0FBA3E067
:10135E00FAA3E0F9900009EE8FF01209489000050B
:08136E00EE8FF01209487F0127
:011376002254
:0C2BBA0001000201000D010018010023C1
:030023000221892E
:10218900C0E0C0F0C083C082C0D075D000C000C01C
:1021990001C002C003C004C005C006C007309815BD
:1021A900C298AD99902BBAE493FB740193FA740227
:1021B90093F912170D309927C299902BC0E493FB1C
:1021C900740193FA740293F990000512091045F00D
:1021D90060071218048F9980069000007401F0D0EE
:1021E90007D006D005D004D003D002D001D000D04A
:0A21F900D0D082D083D0F0D0E032C5
:0300530002220383
:10220300C0E0C0F0C083C082C0D075D000C000C0A1
:1022130001C002C003C004C005C006C00730C0151A
:10222300C2C0ADC1902BBDE493FB740193FA740259
:1022330093F912170D30C127C2C1902BC3E493FB4E
:10224300740193FA740293F990000512091045F092
:1022530060071218048FC180069000017401F0D04A
:1022630007D006D005D004D003D002D001D000D0CF
:0A227300D0D082D083D0F0D0E0324A
:101AA400900213E0F8A3E0F9A3E0FAA3E0FBE8490D
:101AB4004A4B7005C29CC2AC22EF24FE603E046017
:101AC40003021B799000007401F043878053890F4F
:101AD400438920C2CCC2CD43C9A0D28E900213E068
:101AE400F8A3E0F9A3E0FAA3E0FB7F607EE37D16B0
:101AF4007C00120A1DEFF404F58D802F9000007411
:101B040001F075C83443C9C0900213E0F8A3E0F9AA
:101B1400A3E0FAA3E0FB7F607EE37D167C00120A5B
:101B24001DC3E49FFFE49EF5CB8FCA75985053C63E
:101B3400EF900217E042C69001F97401F0A374001B
:101B4400F0A3742EF0A3E4F0A37440F07B017A00B8
:101B540079021222F19001F97401F0A37400F0A348
:101B640074AEF0A3E4F0A37440F07B017A0079181A
:061B74001222F1D2AC22A6
:10227D00EC4D4E4F7005C2C4C2EC229000017401AA
:10228D00F075C030AB07AA06A905A8047F607EE3F0
:10229D007D167C00120A1DEFF404F5C253C6DF90C3
:1022AD000221E042C69001F97401F0A37400F0A37D
:1022BD00746EF0A3E4F0A37440F07B017A00790D05
:1022CD001222F19001F97401F0A37400F0A374EEE1
:1022DD00F0A3E4F0A37440F07B017A00792312227D
:0422ED00F1D2EC221C
:102ACA00EF75F003A424BAF582E4342BF583E4937A
:102ADA00FB740193FA740293F9900005120910FF2E
:032AEA00AEF02229
:10264800EF75F003A424BAF582E4342BF583E49300
:10265800FB740193FA740293F9900002120B12C0F2
:1026680003C002C001EF75F003A424BAF582E43474
:102678002BF583E493FB740193FA740293F99000A9
:1026880007120910D001D002D003F58285F0831219
:042698000846FF22CF
:05286300900232EFF0CD
:10286800900232E0FF75F003A424BAF582E4342B19
:10287800F583E493FB740193FA740293F9900005CD
:1028880012091045F060D9EF6004C2EC8002C2ACB6
:0E289800121804900232E06003D2EC22D2AC9F
:0128A600220F
:0E18F1009001D9EFF0A3EBF0A3EAF0A3E9F029
:1018FF00A3E0FFA3E0A3CFF0A3EFF0E4A3F0A3F0E6
:10190F009001DFE07002A3E070030219CA9001D9C1
:10191F00E075F003A424BAF582E4342BF583E49345
:10192F00FB740193FA740293F9900005120910FFEA
:10193F009001E1E5F0F0A3EFF09001DFE0FEA3E00E
:10194F00FFD39001E2E09F9001E1E09E4005EEF0B1
:10195F00A3EFF09001D9E06004C2EC8002C2ACC0EA
:10196F0002C0019001DAE0F9A3E0FAA3E09001BE12
:10197F00C9F0A3EAF0A3E9F09001E1E0FFA3E09042
:10198F0001C1CFF0A3EFF0D001D002120FA0900150
:10199F00D9E06004D2EC8002D2AC9001E1E0FEA36A
:1019AF00E0FFC39001E0E09FF09001DFE09EF09038
:0B19BF0001DBEE8FF01208B902190FD7
:0119CA0022FA
:101C41009001E3EFF0A3EDF0A3EBF0A3EAF0A3E939
:011C5100F0A2
:101C5200A3E0FFA3E0A3CFF0A3EFF09001EAE070CE
:101C620002A3E060759001E3E0FF75F003A424BADB
:101C7200F582E4342BF583E493FB740193FA740246
:101C820093F990000512091045F060CFEF6004C28D
:101C9200EC8002C2AC1218049001ECEFF09001E368
:101CA200E06004D2EC8002D2AC9001E4E0FF90014B
:101CB200ECE0FE6F60249001EBE024FFF09001EA7B
:101CC200E034FFF09001E5E0FBA3E475F0011208B7
:101CD200CFA9F0FAEE12087380819001EAE0FEA328
:0F1CE200E0FFC39001E9E09FFF9001E8E09EFE64
:011CF10022D0
:0E1B7A009001EDEFF0A3EBF0A3EAF0A3E9F089
:101B8800E49001F3F0A3F09001F2E024FFF090015B
:101B9800F1E034FFF09001F1E0FEA3E0FFC3900113
:101BA800F4E09F9001F3E09E50749001EDE0FF7522
:101BB800F003A424BAF582E4342BF583E493FB7490
:101BC8000193FA740293F990000512091045F06028
:101BD800D9EF6004C2EC8002C2AC1218049001F57F
:101BE800EFF09001EDE06004D2EC8002D2AC9001FD
:101BF800F5E0FF9001EEE0FBA3E0FAA3E0F9900125
:101C0800F3E475F0011208CF85F082F583EF12082E
:101C180085EF640D6008EF640A6003021B9D900164
:101C2800EEE0FBA3E0FAA3E0F99001F3E0FEA3E005
:091C3800FFF5828E83E4020885A9
:10281D00EF75F003A424C0F582E4342BF583E49323
:10282D00FB740193FA740293F9900005120910FDDF
:10283D00ACF0EF75F003A424C0F582E4342BF583DE
:10284D00E493FB740193FA740293F91208E5C39DA6
:06285D00FFE5F09CFE22E5
:10242600900233EFF06004C2EC8002C2AC9002333B
:10243600E0FF2400F582E43400F583E0601AEF60E3
:10244600048DC180028D99900233E02400F582E468
:102456003400F583E4F0801F900233E075F003A4A6
:1024660024C0F582E4342BF583E493FB740193FADC
:10247600740293F912170D900233E06003D2EC2236
:03248600D2AC22B3
:0B24E800900222EBF0A3EAF0A3E9F061
:1024F300E4A3F0A3F0900222E0FBA3E0FAA3E0F947
:10250300A3E0FCA3E0F5828C8312084660109002DE
:1025130026E004F070DF900225E004F080D79002FB
:1025230022E0FBA3E0FAA3E0F9A3E0FDA3E090021D
:1025330002CDF0A3EDF0121377900225E0FEA3E0A5
:01254300FF98
:012544002274
:101377009001FFEBF0A3EAF0A3E9F09001FEEFF094
:10138700E4900204F0A3F0EF6004C2EC8002C2AC68
:101397009001FEE0FF2400F582E43400F583E0606D
:1013A70049EF9001FF6014E0FBA3E475F001120818
:1013B700CFA9F0FA12082DF5C18012E0FBA3E4755E
:1013C700F0011208CFA9F0FA12082DF5999001FE45
:1013D700E02400F582E43400F583E4F0900203E0B2
:1013E70024FFF0900202E034FFF09001FEE0600479
:1013F700D2EC8002D2AC900202E07002A3E070034C
:101407000214FB9001FEE0FF75F003A424C0F582EF
:10141700E4342BF583E493FB740193FA740293F994
:10142700900005120910FDACF0EF75F003A424C07D
:10143700F582E4342BF583E493FB740193FA740289
:1014470093F91208E5C39DFEE5F09C900204F0A312
:10145700CEF0900204E0FEA3E0FF4E6099900202F6
:10146700E0FCA3E0FDD3EF9DEE9C4006A3ECF0A3C8
:10147700EDF09001FEE0FF6004C2EC8002C2ACEF29
:1014870075F003A424C0F582E4342BF583E493FBC1
:10149700740193FA740293F9C002C0019001FFE04E
:1014A700F9A3E0FAA3E09001CDC9F0A3EAF0A3E91C
:1014B700F0900204E0FFA3E09001D0CFF0A3EFF09B
:1014C700D001D0021211939001FEE06004D2EC80AB
:1014D70002D2AC900204E0FEA3E0FFC3900203E057
:1014E7009FF0900202E09EF0900200EE8FF012084B
:0414F700B90213FD26
:0114FB0022CE
:051CF20090018DEFF0F0
:101CF70090018DE07003021DA0900227E0FCA3E095
:101D0700FDA3E0FEA3E0FF781F120AAF90018EEF5C
:101D1700F0FB900227E0FCA3E0FDA3E0FEA3E0FFB9
:101D27007815120AAFEB6F90018EF0FB900227E057
:101D3700FCA3E0FDA3E0FEA3E0FF7801120AAFEBEE
:101D47006F90018EF0FB900227A3A3A3E06B900195
:101D57008EF05401F0900227E0FCA3E0FDA3E0FE23
:101D6700A3E0FF7801120AC2900227120AD5900257
:101D770027E0F8A3E0F9A3E0FAA3E0FB90018EE0E7
:101D8700FFEB4FFFEAFEE9FDE8FC900227120AD5B8
:091D970090018DE014F0021CF72C
:011DA0002220
:10160A001201100100000008861A0CFE00010102F6
:10161A00030109023B0002010080320904000001B3
:10162A000301020409211001000122430007058178
:10163A000308000109040100010301010509211041
:10164A0001000122190007058203040001050109AE
:10165A0002A1010901A100050919012903150025A3
:10166A00017501950381027505950181030501093B
:10167A0030093109381581257F75089503810605DA
:10168A000C0A38021581257F750895018106C0C0AC
:10169A00050C0901A101850119002A3C0215002641
:1016AA003C02950175108100C0040309040E0377FA
:1016BA0000630068002E0063006E00220355005389
:1016CA000042002000430043002000500061006EE9
:1016DA000020004D006F007500730065001603447A
:1016EA0000450041004400420045004500460030E4
:1016FA0000360001370141014B00000212120202BA
:03170A0040040395
:10294D007B017A017937EF602890012EE0FCA3E03E
:10295D00F5828C83E493120873740129F9E43AFA31
:10296D0090012FE004F0700690012EE004F01F801E
:01297D00D584
:01297E002236
:092BDD00EF7005F5DD75DCC02286
:051DA100900192EFF03B
:101DA6007068900154E054607055A3E024FB603CD9
:101DB600147047900151E0FEA3E0FFC39408EE942F
:101DC6000040067D087F088000900193EFF01229FD
:101DD6004D900193E0FFFDC3900152E09DF090010C
:101DE60051E09400F08FDD63DC40801EE5E3548013
:101DF600FF900130E04FF5E38008E4F5DD8003E471
:101E0600F5DDE5DC54FC4402F5DC900192E0FF7E52
:101E16000064017019F5D3E5D254FC4402F5D2E40E
:101E2600900142F0A3F0A3F0A3F0900131F0EF642B
:101E3600024E700FF5D5E5D454FC4402F5D4E49077
:031E46000134F074
:011E49002276
:100C1400EF6003020F9F90013EE0FE90013DE0FD76
:100C2400EDFF900151EEF0A3EFF0900138E0900158
:100C340055F0900137E0FF900154F0E490012EF05C
:100C4400A3F0900192F0EF5460FF6003020E1C9039
:100C54000155E0B40C004003020E19900C66F8280C
:100C64002873020C8A020C9A020E19020CE1020E7D
:100C740019020D30020D3B020E19020DFB020E018A
:100C8400020E0C020F33E4900137F0A3F0900192AE
:100C94007402F0020F33900154E0541F6402703A5E
:100CA400900139E0703490013BE0247F60101460BF
:100CB4001B2481707453D27F53D2F3020F3353D267
:100CC400BFE5D254FC4402F5D2020F3353D4BFE53E
:100CD400D454FC4402F5D4020F33020F2D90015476
:100CE400E0541F64027042900139E0703C90013B73
:100CF400E0247F60151460202481702A53D27FE59C
:100D0400D254F3440CF5D2020F3353D2BFE5D2547C
:100D1400FC4403F5D2020F3353D4BFE5D454FC444E
:100D240003F5D4020F33020F2D020F2D900139E089
:100D3400900130F0020F3390013AE024FE60241455
:100D4400603424E17003020DCF24216003020DF806
:100D540090012E7416F0A3740AF09001927412F0AC
:100D6400020F3390012E7416F0A3741CF0900192BC
:100D7400743BF0020F33900139E014601614601FC5
:100D840014601E2403702690012E7416F0A374B30D
:100D9400F0802490012E7416F0A374B7F0801880AC
:100DA4000C90012E7416F0A374E7F0800A90012EC3
:100DB4007416F0A374C5F090012EE0FCA3E0F58254
:100DC4008C83E493900192F0020F3390013BE09006
:100DD400012E70107416F0A37457F09001927443AE
:100DE400F0020F337416F0A3749AF0900192741900
:100DF400F0020F33020F2D900132020EF0900139F0
:100E0400E0900132F0020F33E4900137F090019248
:100E140004F0020F33020F2DEF64206003020F2D44
:100E2400900155E024FE7003020ECB147003020EF1
:100E3400E224FA7003020F33147003020EFD1470DF
:100E440003020F14240A6003020F2B90013BE0708D
:100E54003B900193F0900193E0C3940574809480D7
:100E64005021E0FF2441F582E43401F583E0FE746F
:100E7400372FF582E43401F583EEF0900193E0041A
:100E8400F080D29001927405F0020F33E490019344
:100E9400F0900193E0C39403748094805021E0FFA8
:100EA400244BF582E43401F583E0FE74372FF58298
:100EB400E43401F583EEF0900193E004F080D290E5
:100EC40001927403F0806890013BE0700790013652
:100ED400E0A38007900153E0900137F08013900164
:100EE4003BE070059001338003900135E0900137B9
:100EF400F09001927401F0803690013BE090013A49
:100F04007007E0900136F08026E0900153F0801FD6
:100F140090013BE09001397007E0900133F0800FBD
:100F2400E0900135F08008800090019274FFF09009
:100F34000192E0FFF4700A90015574FFF075DCCF64
:100F4400227E00D3900152E09F900151E09E400523
:100F5400EEF0A3EFF0900151E0FEA3E0FFD394087C
:100F6400EE940040067D087F088000900192EFF027
:100F740090012EE07002A3E06008900192E0FF125D
:100F8400294D900192E0FFFDC3900152E09DF09045
:0B0F94000151E09400F08FDD75DCC01F
:010F9F00222F
:1028A70075DC0275D21275D412E4900141F0A3F0E1
:1028B700A3F0A3F0A3F0900131F0900136F090015E
:1028C7003304F090014BF0E4A3F0A3F0900134F04F
:0A28D700900153F090013504F02247
:10269C00900194E4F0A3F0A3F090019A74FFF0A3DE
:1026AC00742BF0A374DDF090019774FFF0A3741DEC
:1026BC00F0A374A1F09001A574FFF0A3740CF0A327
:1026CC007414F090019D74FFF0A37428F0A374A708
:1026DC00F09001A0E4F0A3F0A3F07BFF7A1679FD53
:0326EC00022001C8
:0D0046009001317401F075D30553D2FC22F6
:092BE600900141E04FF0020046AD
:0C2BC600EFF4FF900141E05FF0020046D8
:0D005600900142E02FF0A3E02DF0020046E3
:0D2BA000900144E02FF0A3E02DF00200466C
:0D2BAD009001347401F075D50353D4FC225F
:0B2BD20090014CEFF0EEA3F0022BADE1
:101EF00002006EE493A3F8E493A34003F68001F29A
:101F000008DFF48029E493A3F85407240CC8C333F2
:101F1000C4540F4420C8834004F456800146F6DFC1
:101F2000E4800B0102040810204080901E4AE47EE9
:101F3000019360BCA3FF543F30E509541FFEE493B6
:101F4000A360010ECF54C025E060A840B8E493A37D
:101F5000FAE493A3F8E493A3C8C582C8CAC583CAA8
:101F6000F0A3C8C582C8CAC583CADFE9DEE780BE60
:011EDD000004
:10082D00BB010689828A83E0225002E722BBFE02C9
:09083D00E32289828A83E49322FC
:10084600BB010CE58229F582E5833AF583E0225067
:1008560006E92582F8E622BBFE06E92582F8E222B1
:0D086600E58229F582E5833AF583E49322CB
:10087300BB010689828A83F0225002F722BBFE0164
:02088300F3225E
:10088500F8BB010DE58229F582E5833AF583E8F0A9
:10089500225006E92582C8F622BBFE05E92582C855
:0208A500F2223D
:1008A700EF8DF0A4A8F0CF8CF0A428CE8DF0A42E65
:0208B700FE221F
:1008B900C5F0F8A3E028F0C5F0F8E58215827002CA
:0608C9001583E038F02267
:1008CF00A3F8E0C5F025F0F0E582158270021583DC
:0608DF00E0C838F0E82239
:1008E500BB010A89828A83E0F5F0A3E022500687DE
:1008F500F009E71922BBFE07E3F5F009E3192289A0
:0B090500828A83E493F5F074019322D2
:10091000BB0110E58229F582E5833AF583E0F5F025
:10092000A3E0225009E92582F886F008E622BBFE02
:100930000AE92582F8E2F5F008E222E5832AF58348
:08094000E993F5F0A3E993220D
:10094800BB010DC58229C582C5833AC5830208B992
:100958005011C58229F808E5F026F618F5F0E58269
:1009680036F622BBFE11C58229F808E225F0F5F01B
:10097800F218E23582F222F8E58229F582E5832A27
:0D098800F58374019325F0F5F0E493382217
:10099500BB010A89828A83F0E5F0A3F0225006F7AD
:0F09A50009A7F01922BBFE06F3E5F009F31922AA
:1009B400F8BB0111E58229F582E5833AF583E8F075
:1009C400E5F0A3F0225009E92582C8F608A6F02232
:0D09D400BBFE09E92582C8F2E5F008F22219
:1009E10075F008758200EF2FFFEE33FECD33CDCCCD
:1009F10033CCC58233C5829BED9AEC99E582984050
:100A01000CF582EE9BFEED9AFDEC99FC0FD5F0D62C
:100A1100E4CEFBE4CDFAE4CCF9A88222B800C1B956
:100A21000059BA002DEC8BF084CFCECDFCE5F0CB94
:100A3100F97818EF2FFFEE33FEED33FDEC33FCEBCD
:100A410033FB10D703994004EB99FB0FD8E5E4F988
:100A5100FA227818EF2FFFEE33FEED33FDEC33FC75
:100A6100C933C910D7059BE99A4007EC9BFCE99A69
:100A7100F90FD8E0E4C9FAE4CCFB2275F010EF2FAE
:100A8100FFEE33FEED33FDCC33CCC833C810D707AE
:100A91009BEC9AE899400AED9BFDEC9AFCE899F8E9
:0E0AA1000FD5F0DAE4CDFBE4CCFAE4C8F9227C
:100AAF00E8600FECC313FCED13FDEE13FEEF13FF25
:030ABF00D8F12249
:100AC200E8600FEFC333FFEE33FEED33FDEC33FC92
:030AD200D8F12236
:0C0AD500ECF0A3EDF0A3EEF0A3EFF02294
:100AE100A8828583F0D083D082120AF8120AF81204
:100AF1000AF8120AF8E473E493A3C583C5F0C58329
:100B0100C8C582C8F0A3C583C5F0C583C8C582C85E
:010B110022C1
:100B1200BB010DE58229F582E5833AF583020BE4F8
:100B22005007E92582F8020BD2BBFE07E92582F8BD
:100B3200020BF6E58229F582E5833AF583020C0879
:100B4200BB0120E58229F582E5833AF583D0F0D016
:100B5200E0F8D0E0F9D0E0FAD0E0FBE8C0E0C0F085
:100B6200020BED5018E92582F8D083D082D0E0F94B
:100B7200D0E0FAD0E0FBC082C083020BDBBBFE18E0
:100B8200E92582F8D083D082D0E0F9D0E0FAD0E033
:090B9200FBC082C083020BFF22AC
:060B9B008A838982E473E5
:100BA100E5092582F582E5083583F583B5080485D5
:100BB10082092210AF06858209F50822858209F58E
:040BC10008D2AF2285
:0D0BC500E5092582F582E5083583F58322D8
:090BD200E6FB08E6FA08E6F92248
:090BDB00EBF608EAF608E9F6223F
:090BE400E0FBA3E0FAA3E0F92212
:090BED00EBF0A3EAF0A3E9F02209
:090BF600E2FB08E2FA08E2F92230
:090BFF00EBF208EAF208E9F22227
:0C0C0800E493FB740193FA740293F92248
:00000001FF
