:03000000021C17C8
:101C1700787FE4F6D8FD7508047509007581090217
:021C27001C643B
:101EB80090014CEBF0A3EAF0A3E9F0900152E0F9AD
:101EC800A3E0FF90014CE0FBA3E0FAA3E0C98FF088
:101ED8001206A990014FE0FBA3E0FAA3E0F9C003C2
:101EE800C002C00190014CE0FBA3E0FAA3E0F99026
:101EF800000212085690014CE0FBA3E0FAA3E0F9B7
:101F0800900005E4F5F01206C8900007E4F5F01219
:0B1F180006C8900009E4F5F00206C8BE
:1014210090FFFF1208B5EDF090FFFD1208B5EBF04B
:10143100A3EAF0A3E9F0850883850982E0FBA3E034
:10144100FAA3E0F9900005120624FFAEF01205F9A7
:10145100FDC3EF9DEE95F040057F0002151290004F
:10146100031208D9E0FF850883850982E0FBA3E028
:10147100FAA3E0F9900002120826C003C002C001DD
:10148100850883850982E0FBA3E0FAA3E0F99000D7
:1014910009120624D001D002D003F58285F083EF32
:1014A1001205AB850883850982E0FBA3E0FAA3E07E
:1014B100F9900009E475F00112065CE92409F9E4E8
:1014C1003AFAC003C002C0011205F9FFAEF0850867
:1014D10083850982E0FBA3E0FAA3E0F91205F92470
:1014E100FFFDE5F034FF5EFEEF5DFFD001D002D0DD
:1014F10003EE8FF01206A9850883850982E0FBA31C
:10150100E0FAA3E0F9900005E475F00112065C7FB2
:07151100019000040208B57F
:1015180090FFFD1208B5EBF0A3EAF0A3E9F090FF05
:04152800FF1208B5F1
:10152C00850883850982A3E0FBA3E0FAA3E0F99088
:10153C00000512062445F07004FF0215FF85088390
:10154C00850982A3E0FBA3E0FAA3E0F99000021264
:10155C000826C003C002C001850883850982A3E068
:10156C00FBA3E0FAA3E0F9900007120624D001D007
:10157C0002D003F58285F08312056C8508838509FA
:10158C0082F0A3E0FBA3E0FAA3E0F9900007E47576
:10159C00F00112065CE92407F9E43AFAC003C00230
:1015AC00C0011205F9FFAEF0850883850982A3E01E
:1015BC00FBA3E0FAA3E0F91205F924FFFDE5F034F2
:1015CC00FF5EFEEF5DFFD001D002D003EE8FF01274
:1015DC0006A9850883850982A3E0FBA3E0FAA3E0B2
:1015EC00F990000574FFF5F012065C8508838509F7
:0315FC0082E0FF8B
:0615FF009000040208B593
:0B0CB400900105EBF0A3EAF0A3E9F0CB
:100CBF00900005120624FFD390010CE09F90010BCA
:100CCF00E095F040037F0022900105E0FBA3E0FADE
:100CDF00A3E0F9900007120624FFAEF01205F9C346
:100CEF009FFFE5F09EFE90010DF0A3EFF0C3900182
:100CFF000CE09F90010BE09E5003020DDD9001056B
:100D0F00A3A3E0900002120826C003C002C0019006
:100D1F000105E0FBA3E0FAA3E0F990000712062417
:100D2F00D001D002D00329F9EA35F0FA90010FEB88
:100D3F00F0A3EAF0A3E9F0E4A3F0A3F090010DE033
:100D4F00FEA3E0FF900112E0FCA3E0FDC39FEC9E29
:100D5F00503C90010FE0FBA3E0FAA3E0F98D828CE9
:100D6F008312056CFF900108E0FBA3E0FAA3E0F902
:100D7F00EF120599900109E475F0011205CD90016C
:100D8F0013E004F07006900112E004F080AE9001C1
:100D9F0005E0FBA3E0FAA3E0F9900007E4F5F012F9
:100DAF0006C8E92405F9E43AFA1205F9FF90010D96
:100DBF00E0FCA3E0FDC3EF9DFFE5F09C8FF0120672
:100DCF00A9C390010CE09DF090010BE09CF0900105
:100DDF0005E0FBA3E0FAA3E0F9900002120826C099
:100DEF0003C002C001900105E0FBA3E0FAA3E0F904
:100DFF00900007120624D001D002D00329F9EA355A
:100E0F00F0FA90010FEBF0A3EAF0A3E9F0E4A3F0FE
:100E1F00A3F090010BE0FEA3E0FF900112E0FCA312
:100E2F00E0FDC39FEC9E503C90010FE0FBA3E0FA66
:100E3F00A3E0F98D828C8312056CFF900108E0FB13
:100E4F00A3E0FAA3E0F9EF120599900109E475F018
:100E5F00011205CD900113E004F07006900112E02D
:100E6F0004F080AE90010BE0FEA3E0FF900105E0DF
:100E7F00FBA3E0FAA3E0F9900007EE8FF012065CF7
:100E8F00E92405F9E43AFA1205F9C39FFFE5F09E4C
:070E9F008FF01206A97F018C
:010EA6002229
:0B0EA700900114EBF0A3EAF0A3E9F0C7
:100EB200900005120624FFAEF01205F9C39FFFE56C
:100EC200F09EFED390011BE09F90011AE09E40032A
:100ED2007F0022900114E0FBA3E0FAA3E0F9900066
:100EE20009120624FFAEF01205F9C39FFFE5F09E3A
:100EF200FE90011CF0A3EFF0C390011BE09F900154
:100F02001AE09E5003020FCD900114A3A3E09000BB
:100F120002120826C003C002C001900114E0FBA324
:100F2200E0FAA3E0F9900009120624D001D002D021
:100F32000329F9EA35F0FA90011EEBF0A3EAF0A3D7
:100F4200E9F0E4A3F0A3F090011CE0FEA3E0FF901F
:100F52000121E0FCA3E0FDC39FEC9E503C900117F1
:100F6200E0FBA3E0FAA3E0F9120553FF90011EE0B3
:100F7200FBA3E0FAA3E0F98D828C83EF1205AB901C
:100F82000118E475F0011205CD900122E004F07021
:100F920006900121E004F080AE900114E0FBA3E092
:100FA200FAA3E0F9900009E4F5F01206C890011CDA
:100FB200E0FEA3E0FF900005EE8FF012065CC39006
:100FC200011BE09FF090011AE09EF0900114E0FBFB
:100FD200A3E0FAA3E0F9900002120826C003C002BF
:100FE200C001900114E0FBA3E0FAA3E0F99000092C
:100FF200120624D001D002D00329F9EA35F0FA9082
:10100200011EEBF0A3EAF0A3E9F0E4A3F0A3F09051
:10101200011AE0FEA3E0FF900121E0FCA3E0FDC382
:101022009FEC9E503C900117E0FBA3E0FAA3E0F98D
:10103200120553FF90011EE0FBA3E0FAA3E0F98D35
:10104200828C83EF1205AB900118E475F001120552
:10105200CD900122E004F07006900121E004F080BE
:10106200AE90011AE0FEA3E0FF900114E0FBA3E0C2
:10107200FAA3E0F9900009EE8FF012065C900005E9
:08108200EE8FF012065C7F0105
:01108A002243
:081DC300410172FF410173FFB1
:0221D900A90754
:1021DB00ED24FD600A24027048AC92AE938004ACEF
:1021EB0096AE97E914601414601614601C240370E7
:1021FB0030EBF4FF5CFCEE5FFE8014EBF45C800BC9
:10220B00EC4BFCEBF45EFE8006EC4BFCEE4BFEED78
:10221B0024FD6009240270098C928E93228C968E79
:01222B00971B
:01222C00228F
:10247B00EF24FD601C2402702FEB9001726006E0CC
:10248B004DFFF08009E0FFEDF4FEEF5EFFF08F9063
:10249B0022EB9001736006E04DFFF08009E0FFED49
:0924AB00F4FEEF5EFFF08FB02299
:1025B700EF24FD600F24027016E5905D60037F0134
:1025C700227F0022E5B05D60037F01227F00227F2A
:0225D7000022E0
:1025D900EF24FD600D24027011900172E04DF0F5B9
:0B25E9009022900173E04DF0F5B0224D
:10256F00EF24FD60122402701B900172E0FFEDF466
:10257F00FEEF5EF0F59022900173E0FFEDF4FEEFB9
:05258F005EF0F5B02232
:03000300021F8D4C
:101F8D00C0E0C083C082C0D030B329900160E06052
:101F9D000E90015FE004F0700690015EE004F09099
:101FAD000162E004F07006900161E004F0900160C0
:101FBD00E4F0802A900160E06404600E90015FE01F
:101FCD0024FFF090015EE034FFF0900162E024FF09
:101FDD00F0900161E034FFF09001607404F0D0D016
:071FED00D082D083D0E03266
:03001300021F23A6
:101F2300C0E0C083C082C0D030B22C900160E064B6
:101F330007600E90015FE024FFF090015EE034FF44
:101F4300F0900162E024FFF0900161E034FFF09033
:101F530001607407F0802A900160E06401600E90D4
:101F6300015FE004F0700690015EE004F09001620E
:101F7300E004F07006900161E004F09001607401E8
:0A1F8300F0D0D0D082D083D0E0323D
:1024E600E490015EF0A3F0900161F0A3F0EFFD7CB3
:1024F600007009D288D28AD2A8D2AA22ED64014CF1
:10250600700DA2B23390015CF0A2B3E433A3F022C3
:10195500A2B2E433FFA2B3E433FEEFF4FD90015CE1
:10196500E0FC5D6021EE601090015FE004F0701610
:1019750090015EE004F0800E90015FE024FFF0909E
:10198500015EE034FFF0EEF4FD90015DE0FB5D608B
:1019950021EF601090015FE024FFF090015EE034DC
:1019A500FFF0800E90015FE004F0700690015EE0AC
:1019B50004F0ECF45F6021EE601090015FE024FF1D
:1019C500F090015EE034FFF0800E90015FE004F0DE
:1019D500700690015EE004F0EBF45E6021EF6010AC
:1019E50090015FE004F0701690015EE004F0800E57
:1019F50090015FE024FFF090015EE034FFF090017C
:081A05005CEFF0AF06A3EEF068
:011A0D0022B6
:101DCB004300FC0000004300FF0000004301020041
:021DDB00000006
:03000B00021FF4DD
:101FF400C0E0C0F0C083C082C0D075D000C000C0B3
:1020040001C002C003C004C005C006C0079000F8A8
:10201400E0FEA3E0F58AEEF58C9000F3E004F070A6
:10202400069000F2E004F09000FCE0FBA3E0FAA3C9
:10203400E0F9EA494B60031208AFD007D006D00597
:10204400D004D003D002D001D000D0D0D082D0832D
:05205400D0F0D0E032E5
:03001B0002205967
:10205900C0E0C0F0C083C082C0D075D000C000C04D
:1020690001C002C003C004C005C006C0079000FA41
:10207900E0FEA3E0F58BEEF58D9000F5E004F0703D
:10208900069000F4E004F09000FFE0FBA3E0FAA35F
:10209900E0F9EA494B60031208AFD007D006D00532
:1020A900D004D003D002D001D000D0D0D082D083C8
:0520B900D0F0D0E03280
:03002B0002217E31
:10217E00C0E0C0F0C083C082C0D075D000C000C027
:10218E0001C002C003C004C005C006C0079000F71E
:10219E00E004F070069000F6E004F0900102E0FB1F
:1021AE00A3E0FAA3E0F9EA494B60031208AFC2CFED
:1021BE00D007D006D005D004D003D002D001D00075
:0B21CE00D0D0D082D083D0F0D0E0321F
:101CA90090012AEBF0A3EAF0A3E9F0EF14603114F4
:101CB90060582402707AC28C5389F043890143C960
:101CC90090E49000F2F0A3F090012AE0F9A3E0FA81
:101CD900A3E09000FCC9F0A3EAF0A3E9F0D2A9229D
:101CE900C28E53890F43891043C9A0E49000F4F0D0
:101CF900A3F090012AE0F9A3E0FAA3E09000FFC95C
:101D0900F0A3EAF0A3E9F0D2AB22E4F5C853C9F095
:101D190043C9C09000F6F0A3F090012AE0F9A3E0CE
:101D2900FAA3E0900102C9F0A3EAF0A3E9F0D2AD69
:011D39002287
:1022D400EDF4FDECF4FCED2401FDE43CFCEF1460B2
:1022E4001A14602A240270399000F8ECF0A3EDF07F
:1022F400F58AECF58CE49000F280239000FAECF07F
:10230400A3EDF0F58BECF58DE49000F480108CCB0C
:102314008DCAAE04AF058ECD8FCCE49000F6F0A349
:01232400F0C8
:012325002295
:10254600EF1460111460182402701DED6003D3802F
:1025560001C392A922ED6003D38001C392AB22EDA1
:092566006003D38001C392AD2291
:10002E00EF14600A14600A24027008D28C22D28E59
:04003E0022D2CA22DE
:10262500EF14600A14600A24027008C28C22C28E5C
:0426350022C2CA22D1
:10232600EF14601414602A24027035AF8CEFFCAFF2
:102336008AEFFD9000F8800BAF8DEFFCAF8BEFFDC1
:102346009000FAE0FEA3E0FFC3ED9FFDEC9EFC804B
:1023560013ACCDADCCC3ED95CAFDEC95CBFC80049A
:08236600E4FEFF22AF05AE0406
:01236E00224C
:10236F00EDF4FDECF4FCED2401FDE43CFCEF146016
:10237F00161460222402702F8D8AECF58CC28DD238
:10238F008C308DFDC28C228D8BECF58DC28FD28E51
:10239F00308FFDC28E22AE04AF058ECD8FCCC2CF53
:0723AF00D2CA30CFFDC2CA03
:0123B6002204
:10251600AE07EE25E024F2F582E43400F583E4F01C
:10252600A3F012002EEE25E024F2F582E43400F545
:1025360083E0FAA3E0C39DEA9C40EAAF06022625A3
:0C267D0001000200000001000D00000040
:03002300021E3E7C
:101E3E00C0E0C0F0C083C082C0D075D000C000C06A
:101E4E0001C002C003C004C005C006C0073098150B
:101E5E00C298AD9990267DE493FB740193FA7402B7
:101E6E0093F9121421309927C299902683E493FB9B
:101E7E00740193FA740293F990000512062445F04A
:101E8E0060071215188F9980069000007401F0D02B
:101E9E0007D006D005D004D003D002D001D000D098
:0A1EAE00D0D082D083D0F0D0E03213
:1017B800900164E0F8A3E0F9A3E0FAA3E0FBE849AC
:1017C8004A4B7005C29CC2AC22EF24FE603E046006
:1017D8000302188D9000007401F043878053890F2D
:1017E800438920C2CCC2CD43C9A0D28E900164E007
:1017F800F8A3E0F9A3E0FAA3E0FB7F607EE37D169F
:101808007C00120731EFF404F58D802F90000074EE
:1018180001F075C83443C9C0900164E0F8A3E0F949
:10182800A3E0FAA3E0FB7F607EE37D167C0012074D
:1018380031C3E49FFFE49EF5CB8FCA75985053C619
:10184800EF900168E042C690014F7401F0A3740064
:10185800F0A37418F0A3E4F0A37440F07B017A00BD
:101868007902121EB890014F7401F0A37400F0A31E
:101878007458F0A3E4F0A37440F07B017A00790D6A
:06188800121EB8D2AC22D2
:10259400EF75F003A4247DF582E43426F583E493F7
:1025A400FB740193FA740293F9900005120624FF58
:0325B400AEF02264
:10222D00EF75F003A4247DF582E43426F583E49361
:10223D00FB740193FA740293F9900002120826C000
:10224D0003C002C001EF75F003A4247DF582E434D0
:10225D0026F583E493FB740193FA740293F99000CD
:10226D0007120624D001D002D003F58285F0831227
:04227D00056CFF22CB
:0523FD00900174EFF0F7
:10240200900174E0FF75F003A4247DF582E4342684
:10241200F583E493FB740193FA740293F990000537
:1024220012062445F060D9EF6004C2EC8002C2AC0F
:0E243200121518900174E06003D2EC22D2ACB7
:012440002279
:0E16050090012FEFF0A3EBF0A3EAF0A3E9F0C1
:10161300A3E0FFA3E0A3CFF0A3EFF0E4A3F0A3F0D4
:10162300900135E07002A3E070030216DE90012FF3
:10163300E075F003A4247DF582E43426F583E49376
:10164300FB740193FA740293F9900005120624FFC8
:10165300900137E5F0F0A3EFF0900135E0FEA3E051
:10166300FFD3900138E09F900137E09E4005EEF0F4
:10167300A3EFF090012FE06004C2EC8002C2ACC083
:1016830002C001900130E0F9A3E0FAA3E090010861
:10169300C9F0A3EAF0A3E9F0900137E0FFA3E090DB
:1016A300010BCFF0A3EFF0D001D002120CB49001E4
:1016B3002FE06004D2EC8002D2AC900137E0FEA3AD
:1016C300E0FFC3900136E09FF0900135E09EF0907B
:0B16D3000131EE8FF01205CD0216234E
:0116DE0022E9
:101A0E00900139EFF0A3EDF0A3EBF0A3EAF0A3E918
:011A1E00F0D7
:101A1F00A3E0FFA3E0A3CFF0A3EFF0900140E070AD
:101A2F0002A3E06075900139E0FF75F003A4247DF7
:101A3F00F582E43426F583E493FB740193FA740280
:101A4F0093F990000512062445F060CFEF6004C2B1
:101A5F00EC8002C2AC121518900142EFF0900139E0
:101A6F00E06004D2EC8002D2AC90013AE0FF90012A
:101A7F0042E0FE6F6024900141E024FFF0900140AE
:101A8F00E034FFF090013BE0FBA3E475F001120599
:101A9F00E3A9F0FAEE1205998081900140E0FEA3D0
:0F1AAF00E0FFC390013FE09FFF90013EE09EFEED
:011ABE002205
:0E188E00900143EFF0A3EBF0A3EAF0A3E9F022
:10189C00E4900149F0A3F0900148E024FFF090019E
:1018AC0047E034FFF0900147E0FEA3E0FFC3900156
:1018BC004AE09F900149E09E5074900143E0FF750F
:1018CC00F003A4247DF582E43426F583E493FB74C1
:1018DC000193FA740293F990000512062445F06006
:1018EC00D9EF6004C2EC8002C2AC12151890014B07
:1018FC00EFF0900143E06004D2EC8002D2AC900196
:10190C004BE0FF900144E0FBA3E0FAA3E0F9900167
:10191C0049E475F0011205E385F082F583EF1205B9
:10192C00ABEF640D6008EF640A60030218B190011C
:10193C0044E0FBA3E0FAA3E0F9900149E0FEA3E048
:09194C00FFF5828E83E40205AB75
:1023B700EF75F003A42483F582E43426F583E493D0
:1023C700FB740193FA740293F9900005120624FD39
:1023D700ACF0EF75F003A42483F582E43426F5838B
:1023E700E493FB740193FA740293F91205F9C39D00
:0623F700FFE5F09CFE2250
:1020BE00900175EFF06004C2EC8002C2AC90017525
:1020CE00E0FF2400F582E43400F583E0601AEF604F
:1020DE00048DC180028D99900175E02400F582E493
:1020EE003400F583E4F0801F900175E075F003A4D1
:1020FE002483F582E43426F583E493FB740193FA8A
:10210E00740293F9121421900175E06003D2EC224F
:03211E00D2AC221E
:0B212100900169EBF0A3EAF0A3E9F0E5
:10212C00E4A3F0A3F0900169E0FBA3E0FAA3E0F9CB
:10213C00A3E0FCA3E0F5828C8312056C6010900187
:10214C006DE004F070DF90016CE004F080D790013A
:10215C0069E0FBA3E0FAA3E0F9A3E0FDA3E09001A2
:10216C0058CDF0A3EDF012108B90016CE0FEA3E0C3
:01217C00FF63
:01217D00223F
:10108B00900155EBF0A3EAF0A3E9F0900154EFF0D7
:10109B00E490015AF0A3F0EF6004C2EC8002C2AC02
:1010AB00900154E0FF2400F582E43400F583E06006
:1010BB0049EF9001556014E0FBA3E475F0011205B4
:1010CB00E3A9F0FA120553F5C18012E0FBA3E47516
:1010DB00F0011205E3A9F0FA120553F599900154AA
:1010EB00E02400F582E43400F583E4F0900159E04C
:1010FB0024FFF0900158E034FFF0900154E06004BD
:10110B00D2EC8002D2AC900158E07002A3E07003E5
:10111B0002120F900154E0FF75F003A42483F582B3
:10112B00E43426F583E493FB740193FA740293F988
:10113B00900005120624FDACF0EF75F003A4248398
:10114B00F582E43426F583E493FB740193FA74027D
:10115B0093F91205F9C39DFEE5F09C90015AF0A39B
:10116B00CEF090015AE0FEA3E0FF4E60999001583B
:10117B00E0FCA3E0FDD3EF9DEE9C4006A3ECF0A3B7
:10118B00EDF0900154E0FF6004C2EC8002C2ACEFC2
:10119B0075F003A42483F582E43426F583E493FBF2
:1011AB00740193FA740293F9C002C001900155E0E7
:1011BB00F9A3E0FAA3E0900117C9F0A3EAF0A3E9C1
:1011CB00F090015AE0FFA3E090011ACFF0A3EFF0EB
:1011DB00D001D002120EA7900154E06004D2EC8033
:1011EB0002D2AC90015AE0FEA3E0FFC3900159E09C
:1011FB009FF0900158E09EF0900156EE8FF0120593
:04120B00CD021111EE
:01120F0022BC
:101DDD004300DE000000430001000000430001004D
:101DED0000004300010000004300E7000000430035
:041DFD00EA000000F8
:0300430002121096
:10121000C0E0C0F0C083C082C0D075D000C000C0A4
:1012200001C002C003C004C005C006C00720D90326
:101230000212C2E5D9543024F0602624F06045241F
:10124000F0605B243070799000E4E0FBA3E0FAA347
:10125000E0F9EA494B6069E5D9540FFF9000E4805A
:10126000559000EEE004F070069000EDE004F09080
:1012700000DEE0FBA3E0FAA3E0F9EA494B6041128B
:1012800008AF803C9000E1E0FBA3E0FAA3E0F9EABC
:10129000494B602CE5D9540FFF9000E18018900075
:1012A000EFE0FBA3E0FAA3E0F9EA494B6012E5D9CD
:1012B000540FFF9000EFA3A3E0F5828A831208B3D6
:1012C000C2D930D81C9000E7E0FBA3E0FAA3E0F914
:1012D000EA494B60031208AF75E300C2DAC2D9C213
:1012E000D830DA1CC2DA9000EAE0FBA3E0FAA3E00F
:1012F000F9EA494B600DE5DA30E2081208AF8003E5
:1013000075D8FFD007D006D005D004D003D002D0C6
:0E13100001D000D0D0D082D083D0F0D0E03217
:101D3A00E49000EDF0A3F075E229F5E375D1811284
:101D4A0005F985F0EDF5EC90000212062485F0EF16
:101D5A00F5EE90000412062485F0E5F5E4900006FD
:101D6A0012062485F0E7F5E690000812056CF5DC0A
:101D7A0090000912056CF5D290000A12056CF5D490
:101D8A0090000B12056CF5D690000C12056CF5DE6E
:101D9A0090000D12056CF5EA90000E12056CF5EB39
:101DAA00E4F5DDF5D3F5D5F5D7F5DF90000F12058B
:091DBA006CF5E175D8FFD2EA22B4
:101E01004200C500004200CA00004100C300410079
:101E1100C7004100C8004100C1014100C9014100A2
:101E2100D2004100C0004100C2004100D500410084
:0C1E3100C4004200D800004200D30000B2
:1016DF009000C6E004F070069000C5E004F09000A2
:1016EF00CBE004F070069000CAE004F09000A0E098
:1016FF0060289000C5E0FEA3E07802CEC313CE139E
:10170F00D8F9FF9000A0E0FEEFC39E400D9000C3FC
:10171F007401F0E49000C5F0A3F09000BDE06028E4
:10172F009000CAE0FEA3E07802CEC313CE13D8F91F
:10173F00FF9000BDE0FEEFC39E400D9000C7740107
:10174F00F0E49000CAF0A3F09000C8E06401705874
:10175F009000D2E060529000D8E07002A3E06022C7
:10176F009000C4E0FF70059000C004F0EF540770C4
:10177F00059000C204F09000D9E024FFF09000D84B
:10178F0080149000D3E07002A3E060109000D4E0CA
:10179F0024FFF09000D3E034FFF080069000D57462
:0917AF0001F09000C4E004F022F6
:100046001226397BF07D01E4FF1221D97B0D7D0359
:10005600E4FF1221D97B327D037F011221D97B0176
:100066007D017F011221D97BFF7A1679DF7F02128B
:100076001CA97DC07C5D7F021222D47F0212002E55
:10008600D2AFC2AE122281E4FF1224E690016E12B4
:1000960007F51337BEEF7D207F0312256F7D107F96
:1000A600011225B7900123EFF0E4A3F07D207F0134
:1000B6001225B7EF70169000C8F07D027F01122559
:1000C600D97D107F031225D97D20801E7D407F01BA
:1000D6001225B7EF70189000C804F07D02FF1225B4
:1000E600D97D207F031225D97D107F03801B7D805B
:1000F6007F011225B7EF70149000C87402F07D30AE
:100106007F031225D97D027F0112256F7D107F01A5
:100116001225B7EF601B900124E0D39404748094F9
:100126008050047F0180027F00900124E02FF08040
:1001360014900124E0FF60047E0180027E00C3EF7C
:100146009E900124F0900123E0FF6008A3E0700474
:100156007E0180027E00900125EEF0EF700C90018A
:1001660024E0640470047F0180027F00900126EF82
:10017600F0900123E06004A3E07008900124E0649D
:100186000470047F0180027F00900123EFF090014C
:100196005EE0A3E0FF900127E0FEC3EF9EFEFD3385
:1001A60095E0FCC3ED94FFEC6480947F400BD3EDA7
:1001B6009401EC648094804033D3ED9400EC648029
:1001C600948040047D0180027D00900128EDF0EED0
:1001D6003395E0C36480948050047E0180027E00E3
:1001E600900129EEF0900127EFF08007E4900128B6
:1001F600F0A3F09000C8E014700302029E1470038E
:10020600020333240260030203CB7D207F01122503
:10021600B7EF603B900125E060057F041226A990A8
:100226000126E060057F04122689900128E0600C13
:100236009000C1E0F404FFE4FD122663900129E07A
:1002460070030203CB9000C1E0FFE4FD0202E190DF
:100256000128E060069000C1E004F0900129E0600A
:10026600069000C1E014F09000C1E0FF3395E0FE77
:10027600C3EF9401EE6480948050037401F0900003
:10028600C1E0FF3395E0FED3EF940AEE64809480DC
:1002960050030203CB02032D7D407F011225B7EFE9
:1002A600603F900126E060119000D2E070047F016B
:1002B60080027F009000D2EFF0900128E0600A9063
:1002C60000C9E0FDE4FF122663900129E0700302F5
:1002D60003CB9000C9E0F404FDE4FF122663020399
:1002E600CB900128E060069000C9E004F090012957
:1002F600E060069000C9E014F09000C9E0FF339575
:10030600E0FEC3EF9401EE6480948050037401F024
:100316009000C9E0FF3395E0FED3EF940AEE6480C7
:10032600948050030203CB740AF00203CB7D807FD6
:10033600011225B7EF6045900128E060127FE97E43
:100346000012269590009EE070FAFFFE1226959008
:100356000129E060127FEA7E0012269590009EE059
:1003660070FAFFFE122695900125E060077FE27E77
:1003760000122695900126E0604B8043900128E00C
:1003860060127FB57E0012269590009EE070FAFFFF
:10039600FE122695900129E060127FB67E00122695
:1003A6009590009EE070FAFFFE122695900125E0DA
:1003B60060077FCD7E00122695900126E06006E458
:1003C600FFFE1226959000C0E060357F10121ABF1E
:1003D60090016EA3A3A3E09000CCF0FB90016EA366
:1003E600A3E0FEEE9000CDF0EB30E7069000CCE007
:1003F60004F09000CDE030E70204F0E49000C0F095
:100406009000C2E070030204B29000CCE0FF339586
:10041600E0FE9000CFE02FF09000CEE03EF090009E
:10042600CDE0FF3395E0FE9000D1E02FF09000D0B4
:10043600E03EF09000DAE0FEA3E07804CEA2E713F7
:10044600CE13D8F8FD9000CEE0FAA3E0FBAE02781A
:1004560004CEA2E713CE13D8F8C39DFF9000D6F0C2
:10046600FC9000DCE0FEA3E07804CEA2E713CE13F6
:10047600D8F8FD9000D0E0FEA3E07804CEA2E71302
:10048600CE13D8F8C39D9000D7F0FD9000DAEAF0BD
:10049600A3EBF09000D0E0FFA3E09000DCCFF0A348
:1004A600EFF0AF04122656E49000C2F09000D5E0BB
:1004B60060797F10121ABF90016EA3A3E0FFA3E03C
:1004C6009000D8CFF0A3EFF07F10121ABF90016E04
:1004D600A3A3E0FFA3E09000D3CFF0A3EFF090003A
:1004E600D8E0FEA3E07802CEC313CE13D8F9F0EE1F
:1004F6009000D8F09000D3E0FEA3E07802CEC313BC
:10050600CE13D8F9F0EE9000D3F09000D9E024E8AD
:10051600F09000D8E03403F09000D4E024E8F090A6
:1005260000D3E03403F0E49000D5F09000C3E0601F
:1005360008122649E49000C3F09000C7E070030259
:0D05460000B2122670E49000C7F00200B26F
:1026390075A15575A1AA53B9F843B90675A1FF2229
:1025F400EF4E601505A105A105A105A105A105A141
:0A26040005A1EF1F70EA1E80E72217
:10260E00AD07AC06ED4C600E7FE87E031225F4EDAF
:07261E001D70F11C80EE228B
:10131E001201100100000008861A0CFE00010102E5
:10132E00030109023B0002010080320904000001A2
:10133E000301020409211001000122430007058167
:10134E000308000109040100010301010509211030
:10135E00010001221900070582030400010501099D
:10136E0002A1010901A10005091901290315002592
:10137E00017501950381027505950181030501092A
:10138E0030093109381581257F75089503810605C9
:10139E000C0A38021581257F750895018106C0C09B
:1013AE00050C0901A101850119002A3C0215002630
:1013BE003C02950175108100C0040309040E0377E9
:1013CE0000630068002E0063006E00220355005378
:1013DE000042002000430043002000500061006ED8
:1013EE000020004D006F0075007300650016034469
:1013FE0000450041004400420045004500460030D3
:10140E0000350000A100AB00B5000002121202026E
:03141E0040040384
:1024B4007B017A0079A1EF6028900098E0FCA3E00A
:1024C400F5828C83E493120599740129F9E43AFAAC
:1024D400900099E004F07006900098E004F01F80EA
:0124E400D522
:0124E50022D4
:0926A000EF7005F5DD75DCC022C8
:051B6E0090012DEFF0D5
:101B730070689000BEE054607055A3E024FB603CA5
:101B83001470479000BBE0FEA3E0FFC39408EE94FB
:101B93000040067D087F08800090012EEFF012249C
:101BA300B490012EE0FFFDC39000BCE09DF09000D7
:101BB300BBE09400F08FDD63DC40801EE5E35480DE
:101BC300FF90009AE04FF5E38008E4F5DD8003E43D
:101BD300F5DDE5DC54FC4402F5DC90012DE0FF7EED
:101BE3000064017019F5D3E5D254FC4402F5D2E444
:101BF3009000ACF0A3F0A3F0A3F090009BF0EF648F
:101C0300024E700FF5D5E5D454FC4402F5D4E490AC
:031C1300009EF040
:011C160022AB
:10092800EF6003020CB39000A8E0FE9000A7E0FD82
:10093800EDFF9000BBEEF0A3EFF09000A2E0900076
:10094800BFF09000A1E0FF9000BEF0E4900098F0A6
:10095800A3F090012DF0EF5460FF6003020B30907C
:1009680000BFE0B40C004003020B2D90097AF82870
:10097800287302099E0209AE020B2D0209F5020B2B
:100988002D020A44020A4F020B2D020B0F020B150F
:10099800020B20020C47E49000A1F0A3F090012D77
:1009A8007402F0020C479000BEE0541F6402703AD3
:1009B8009000A3E070349000A5E0247F60101460DC
:1009C8001B2481707453D27F53D2F3020C4753D245
:1009D800BFE5D254FC4402F5D2020C4753D4BFE51C
:1009E800D454FC4402F5D4020C47020C419000BEDA
:1009F800E0541F640270429000A3E0703C9000A590
:100A0800E0247F60151460202481702A53D27FE58A
:100A1800D254F3440CF5D2020C4753D2BFE5D2545A
:100A2800FC4403F5D2020C4753D4BFE5D454FC442C
:100A380003F5D4020C47020C41020C419000A3E0DC
:100A480090009AF0020C479000A4E024FE60241461
:100A5800603424E17003020AE324216003020B0CD2
:100A68009000987413F0A3741EF090012D7412F086
:100A7800020C479000987413F0A37430F090012D85
:100A8800743BF0020C479000A3E014601614601F3A
:100A980014601E240370269000987413F0A374C782
:100AA800F080249000987413F0A374CBF080188021
:100AB8000C9000987413F0A374FBF0800A900098CF
:100AC8007413F0A374D9F0900098E0FCA3E0F582C9
:100AD8008C83E49390012DF0020C479000A5E090E0
:100AE800009870107413F0A3746BF090012D744388
:100AF800F0020C477413F0A374AEF090012D741932
:100B0800F0020C47020C4190009C020C049000A3D8
:100B1800E090009CF0020C47E49000A1F090012DB9
:100B280004F0020C47020C41EF64206003020C4100
:100B38009000BFE024FE7003020BDF147003020B69
:100B4800F624FA7003020C47147003020C11147097
:100B580003020C28240A6003020C3F9000A5E070F1
:100B68003B90012EF090012EE0C394057480948090
:100B78005021E0FF24ABF582E43400F583E0FE74F5
:100B8800A12FF582E43400F583EEF090012EE00405
:100B9800F080D290012D7405F0020C47E490012EEC
:100BA800F090012EE0C39403748094805021E0FFFC
:100BB80024B5F582E43400F583E0FE74A12FF582B4
:100BC800E43400F583EEF090012EE004F080D2903A
:100BD800012D7403F080689000A5E070079000A0D4
:100BE800E0A380079000BDE09000A1F08013900082
:100BF800A5E0700590009D800390009FE09000A103
:100C0800F090012D7401F080369000A5E09000A4CA
:100C18007007E09000A0F08026E09000BDF0801FF3
:100C28009000A5E09000A37007E090009DF0800F71
:100C3800E090009FF08008800090012D74FFF090F4
:100C4800012DE0FFF4700A9000BF74FFF075DCCF4F
:100C5800227E00D39000BCE09F9000BBE09E400540
:100C6800EEF0A3EFF09000BBE0FEA3E0FFD3940802
:100C7800EE940040067D087F08800090012DEFF07B
:100C8800900098E07002A3E0600890012DE0FF1248
:100C980024B490012DE0FFFDC39000BCE09DF090CE
:0B0CA80000BBE09400F08FDD75DCC0A5
:010CB300221E
:1024410075DC0275D21275D412E49000ABF0A3F0E2
:10245100A3F0A3F0A3F090009BF09000A0F09000F7
:102461009D04F09000B5F0E4A3F0A3F090009EF07D
:0A2471009000BDF090009F04F022DF
:102281009000DEE4F0A3F0A3F09000E474FFF0A36B
:102291007426F0A374A0F09000E174FFF0A3741B06
:1022A100F0A3746EF09000EF74FFF0A37409F0A333
:1022B1007428F09000E774FFF0A37424F0A3744134
:1022C100F09000EAE4F0A3F0A3F07BFF7A14791117
:0322D100021D3AB1
:0D26490090009B7401F075D30553D2FC2264
:0926A9009000ABE04FF00226495D
:0C268900EFF4FF9000ABE05FF002264988
:0D2656009000ACE02FF0A3E02DF00226492B
:0D2663009000AEE02FF0A3E02DF00226491C
:0D26700090009E7401F075D50353D4FC2238
:0B2695009000B6EFF0EEA3F0022670FC
:051ABF0090012AEFF088
:101AC40090012AE07003021B6D90016EE0FCA3E01C
:101AD400FDA3E0FEA3E0FF781F1207C390012BEFE4
:101AE400F0FB90016EE0FCA3E0FDA3E0FEA3E0FFA9
:101AF40078151207C3EB6F90012BF0FB90016EE099
:101B0400FCA3E0FDA3E0FEA3E0FF78011207C3EB12
:101B14006F90012BF0FB90016EA3A3A3E06B9001E7
:101B24002BF05401F090016EE0FCA3E0FDA3E0FE75
:101B3400A3E0FF78011207D690016E1207E9900125
:101B44006EE0F8A3E0F9A3E0FAA3E0FB90012BE038
:101B5400FFEB4FFFEAFEE9FDE8FC90016E1207E996
:091B640090012AE014F0021AC4F9
:011B6D002255
:101C2900020046E493A3F8E493A34003F68001F28B
:101C390008DFF48029E493A3F85407240CC8C333BC
:101C4900C4540F4420C8834004F456800146F6DF8B
:101C5900E4800B0102040810204080901DC3E47E3B
:101C6900019360BCA3FF543F30E509541FFEE49380
:101C7900A360010ECF54C025E060A840B8E493A347
:101C8900FAE493A3F8E493A3C8C582C8CAC583CA72
:101C9900F0A3C8C582C8CAC583CADFE9DEE780BE2A
:011E3D0000A4
:10055300BB010689828A83E0225002E722BBFE02A6
:09056300E32289828A83E49322D9
:10056C00BB010CE58229F582E5833AF583E0225044
:10057C0006E92582F8E622BBFE06E92582F8E2228E
:0D058C00E58229F582E5833AF583E49322A8
:10059900BB010689828A83F0225002F722BBFE0141
:0205A900F3223B
:1005AB00F8BB010DE58229F582E5833AF583E8F086
:1005BB00225006E92582C8F622BBFE05E92582C832
:0205CB00F2221A
:1005CD00C5F0F8A3E028F0C5F0F8E58215827002B9
:0605DD001583E038F02256
:1005E300A3F8E0C5F025F0F0E582158270021583CB
:0605F300E0C838F0E82228
:1005F900BB010A89828A83E0F5F0A3E022500687CD
:10060900F009E71922BBFE07E3F5F009E31922898E
:0B061900828A83E493F5F074019322C1
:10062400BB0110E58229F582E5833AF583E0F5F014
:10063400A3E0225009E92582F886F008E622BBFEF1
:100644000AE92582F8E2F5F008E222E5832AF58337
:08065400E993F5F0A3E99322FC
:10065C00BB010DC58229C582C5833AC5830205CD70
:10066C005011C58229F808E5F026F618F5F0E58258
:10067C0036F622BBFE11C58229F808E225F0F5F00A
:10068C00F218E23582F222F8E58229F582E5832A16
:0D069C00F58374019325F0F5F0E493382206
:1006A900BB010A89828A83F0E5F0A3F0225006F79C
:0F06B90009A7F01922BBFE06F3E5F009F3192299
:1006C800F8BB0111E58229F582E5833AF583E8F064
:1006D800E5F0A3F0225009E92582C8F608A6F02221
:0D06E800BBFE09E92582C8F2E5F008F22208
:1006F50075F008758200EF2FFFEE33FECD33CDCCBC
:1007050033CCC58233C5829BED9AEC99E58298403E
:100715000CF582EE9BFEED9AFDEC99FC0FD5F0D61B
:10072500E4CEFBE4CDFAE4CCF9A88222B800C1B945
:100735000059BA002DEC8BF084CFCECDFCE5F0CB83
:10074500F97818EF2FFFEE33FEED33FDEC33FCEBBC
:1007550033FB10D703994004EB99FB0FD8E5E4F977
:10076500FA227818EF2FFFEE33FEED33FDEC33FC64
:10077500C933C910D7059BE99A4007EC9BFCE99A58
:10078500F90FD8E0E4C9FAE4CCFB2275F010EF2F9D
:10079500FFEE33FEED33FDCC33CCC833C810D7079D
:1007A5009BEC9AE899400AED9BFDEC9AFCE899F8D8
:0E07B5000FD5F0DAE4CDFBE4CCFAE4C8F9226B
:1007C300E8600FECC313FCED13FDEE13FEEF13FF14
:0307D300D8F12238
:1007D600E8600FEFC333FFEE33FEED33FDEC33FC81
:0307E600D8F12225
:0C07E900ECF0A3EDF0A3EEF0A3EFF02283
:1007F500A8828583F0D083D08212080C12080C12CF
:10080500080C12080CE473E493A3C583C5F0C583F3
:10081500C8C582C8F0A3C583C5F0C583C8C582C84D
:0108250022B0
:10082600BB010DE58229F582E5833AF5830208F8D6
:100836005007E92582F80208E6BBFE07E92582F89B
:1008460002090AE58229F582E5833AF58302091C45
:10085600BB0120E58229F582E5833AF583D0F0D005
:10086600E0F8D0E0F9D0E0FAD0E0FBE8C0E0C0F074
:100876000209015018E92582F8D083D082D0E0F928
:10088600D0E0FAD0E0FBC082C0830208EFBBFE18BE
:10089600E92582F8D083D082D0E0F9D0E0FAD0E022
:0908A600FBC082C0830209132289
:0608AF008A838982E473D4
:1008B500E5092582F582E5083583F583B5080485C4
:1008C50082092210AF06858209F50822858209F57D
:0408D50008D2AF2274
:0D08D900E5092582F582E5083583F58322C7
:0908E600E6FB08E6FA08E6F92237
:0908EF00EBF608EAF608E9F6222E
:0908F800E0FBA3E0FAA3E0F92201
:09090100EBF0A3EAF0A3E9F022F7
:09090A00E2FB08E2FA08E2F9221E
:09091300EBF208EAF208E9F22215
:0C091C00E493FB740193FA740293F92237
:00000001FF
