:03000000021C607F
:101C6000787FE4F6D8FD75080475090075810902CE
:021C70001CADA9
:102004009001E2EBF0A3EAF0A3E9F09001E8E0F933
:10201400A3E0FF9001E2E0FBA3E0FAA3E0C98FF0A4
:102024001206F29001E5E0FBA3E0FAA3E0F9C00395
:10203400C002C0019001E2E0FBA3E0FAA3E0F99042
:10204400000212089F9001E2E0FBA3E0FAA3E0F98A
:10205400900005E4F5F0120711900007E4F5F01282
:0B2064000711900009E4F5F0020711DD
:10146A0090FFFF1208FEEDF090FFFD1208FEEBF070
:10147A00A3EAF0A3E9F0850883850982E0FBA3E0EB
:10148A00FAA3E0F990000512066DFFAEF0120642CB
:10149A00FDC3EF9DEE95F040057F0002155B9000BD
:1014AA0003120922E0FF850883850982E0FBA3E095
:1014BA00FAA3E0F990000212086FC003C002C0014B
:1014CA00850883850982E0FBA3E0FAA3E0F990008E
:1014DA000912066DD001D002D003F58285F083EFA0
:1014EA001205F4850883850982E0FBA3E0FAA3E0EC
:1014FA00F9900009E475F0011206A5E92409F9E456
:10150A003AFAC003C002C001120642FFAEF08508D3
:10151A0083850982E0FBA3E0FAA3E0F912064224DC
:10152A00FFFDE5F034FF5EFEEF5DFFD001D002D093
:10153A0003EE8FF01206F2850883850982E0FBA389
:10154A00E0FAA3E0F9900005E475F0011206A57F20
:07155A00019000040208FEED
:1015610090FFFD1208FEEBF0A3EAF0A3E9F090FF73
:04157100FF1208FE5F
:10157500850883850982A3E0FBA3E0FAA3E0F9903F
:10158500000512066D45F07004FF021648850883B4
:10159500850982A3E0FBA3E0FAA3E0F9900002121B
:1015A500086FC003C002C001850883850982A3E0D6
:1015B500FBA3E0FAA3E0F990000712066DD001D075
:1015C50002D003F58285F0831205B5850883850968
:1015D50082F0A3E0FBA3E0FAA3E0F9900007E4752D
:1015E500F0011206A5E92407F9E43AFAC003C0029E
:1015F500C001120642FFAEF0850883850982A3E08B
:10160500FBA3E0FAA3E0F912064224FFFDE5F0345E
:10161500FF5EFEEF5DFFD001D002D003EE8FF0122A
:1016250006F2850883850982A3E0FBA3E0FAA3E01F
:10163500F990000574FFF5F01206A5850883850964
:0316450082E0FF41
:061648009000040208FE00
:0B0CFD0090019BEBF0A3EAF0A3E9F0EC
:100D080090000512066DFFD39001A2E09F9001A10B
:100D1800E095F040037F002290019BE0FBA3E0FAFE
:100D2800A3E0F990000712066DFFAEF0120642C369
:100D38009FFFE5F09EFE9001A3F0A3EFF0C39001A2
:100D4800A2E09F9001A1E09E5003020E2690019B15
:100D5800A3A3E090000212086FC003C002C0019074
:100D6800019BE0FBA3E0FAA3E0F990000712066DEF
:100D7800D001D002D00329F9EA35F0FA9001A5EBA9
:100D8800F0A3EAF0A3E9F0E4A3F0A3F09001A3E054
:100D9800FEA3E0FF9001A8E0FCA3E0FDC39FEC9E4A
:100DA800503C9001A5E0FBA3E0FAA3E0F98D828C0A
:100DB800831205B5FF90019EE0FBA3E0FAA3E0F9DA
:100DC800EF1205E290019FE475F0011206169001FA
:100DD800A9E004F070069001A8E004F080AE90014C
:100DE8009BE0FBA3E0FAA3E0F9900007E4F5F0121A
:100DF8000711E92405F9E43AFA120642FF9001A323
:100E0800E0FCA3E0FDC3EF9DFFE5F09C8FF0120628
:100E1800F2C39001A2E09DF09001A1E09CF0900146
:100E28009BE0FBA3E0FAA3E0F990000212086FC070
:100E380003C002C00190019BE0FBA3E0FAA3E0F924
:100E480090000712066DD001D002D00329F9EA35C7
:100E5800F0FA9001A5EBF0A3EAF0A3E9F0E4A3F01F
:100E6800A3F09001A1E0FEA3E0FF9001A8E0FCA39D
:100E7800E0FDC39FEC9E503C9001A5E0FBA3E0FA87
:100E8800A3E0F98D828C831205B5FF90019EE0FBEB
:100E9800A3E0FAA3E0F9EF1205E290019FE475F0F0
:100EA800011206169001A9E004F070069001A8E06E
:100EB80004F080AE9001A1E0FEA3E0FF90019BE06A
:100EC800FBA3E0FAA3E0F9900007EE8FF01206A565
:100ED800E92405F9E43AFA120642C39FFFE5F09EB9
:070EE8008FF01206F27F01FA
:010EEF0022E0
:0B0EF0009001AAEBF0A3EAF0A3E9F0E8
:100EFB0090000512066DFFAEF0120642C39FFFE590
:100F0B00F09EFED39001B1E09F9001B0E09E4003B4
:100F1B007F00229001AAE0FBA3E0FAA3E0F9900086
:100F2B000912066DFFAEF0120642C39FFFE5F09E5D
:100F3B00FE9001B2F0A3EFF0C39001B1E09F9001DE
:100F4B00B0E09E50030210169001AAA3A3E09000FC
:100F5B000212086FC003C002C0019001AAE0FBA3FC
:100F6B00E0FAA3E0F990000912066DD001D002D08F
:100F7B000329F9EA35F0FA9001B4EBF0A3EAF0A3F8
:100F8B00E9F0E4A3F0A3F09001B2E0FEA3E0FF9040
:100F9B0001B7E0FCA3E0FDC39FEC9E503C9001AD7C
:100FAB00E0FBA3E0FAA3E0F912059CFF9001B4E08B
:100FBB00FBA3E0FAA3E0F98D828C83EF1205F4908A
:100FCB0001AEE475F0011206169001B8E004F07062
:100FDB00069001B7E004F080AE9001AAE0FBA3E01D
:100FEB00FAA3E0F9900009E4F5F01207119001B2B1
:100FFB00E0FEA3E0FF900005EE8FF01206A5C39074
:10100B0001B1E09FF09001B0E09EF09001AAE0FBEF
:10101B00A3E0FAA3E0F990000212086FC003C0022C
:10102B00C0019001AAE0FBA3E0FAA3E0F99000094C
:10103B0012066DD001D002D00329F9EA35F0FA90EF
:10104B0001B4EBF0A3EAF0A3E9F0E4A3F0A3F09072
:10105B0001B0E0FEA3E0FF9001B7E0FCA3E0FDC30D
:10106B009FEC9E503C9001ADE0FBA3E0FAA3E0F9AE
:10107B0012059CFF9001B4E0FBA3E0FAA3E0F98D0D
:10108B00828C83EF1205F49001AEE475F001120629
:10109B00169001B8E004F070069001B7E004F08000
:1010AB00AE9001B0E0FEA3E0FF9001AAE0FBA3E04D
:1010BB00FAA3E0F9900009EE8FF01206A590000557
:0810CB00EE8FF01206A57F0173
:0110D30022FA
:0E1D8300410208FF410209FF43020500000073
:030063000224D1A3
:1024D100C0E0C0F0C083C082C0D075D000C000C0D1
:1024E10001C002C003C004C005C006C007900205B8
:1024F100E0FBA3E0FAA3E0F9EA494B60031208F814
:10250100D007D006D005D004D003D002D001D0002E
:0B251100D0D0D082D083D0F0D0E032D8
:02238400A907A7
:10238600ED24FD600A24027048AC92AE938004AC42
:1023960096AE97E914601414601614601C2403703A
:1023A60030EBF4FF5CFCEE5FFE8014EBF45C800B1C
:1023B600EC4BFCEBF45EFE8006EC4BFCEE4BFEEDCC
:1023C60024FD6009240270098C928E93228C968ECD
:0123D600976F
:0123D70022E3
:10267100EF24FD601C2402702FEB9002086006E03D
:102681004DFFF08009E0FFEDF4FEEF5EFFF08F906B
:1026910022EB9002096006E04DFFF08009E0FFEDBA
:0926A100F4FEEF5EFFF08FB022A1
:1027AD00EF24FD600F24027016E5905D60037F013C
:1027BD00227F0022E5B05D60037F01227F00227F32
:0227CD000022E8
:1027CF00EF24FD600D24027011900208E04DF0F52A
:0B27DF009022900209E04DF0F5B022BE
:10276500EF24FD60122402701B900208E0FFEDF4D7
:10277500FEEF5EF0F59022900209E0FFEDF4FEEF2A
:052785005EF0F5B0223A
:030003000220D9FF
:1020D900C0E0C083C082C0D030B3299001F6E0606F
:1020E9000E9001F5E004F070069001F4E004F09020
:1020F90001F8E004F070069001F7E004F09001F6B1
:10210900E4F0802A9001F6E06404600E9001F5E0A5
:1021190024FFF09001F4E034FFF09001F8E024FF8F
:10212900F09001F7E034FFF09001F67404F0D0D09C
:07213900D082D083D0E03218
:0300130002206F59
:10206F00C0E0C083C082C0D030B22C9001F6E064D3
:10207F0007600E9001F5E024FFF09001F4E034FFCB
:10208F00F09001F8E024FFF09001F7E034FFF090BA
:10209F0001F67407F0802A9001F6E06401600E905B
:1020AF0001F5E004F070069001F4E004F09001F8FF
:1020BF00E004F070069001F7E004F09001F674016F
:0A20CF00F0D0D0D082D083D0E032F0
:1026DC00E49001F4F0A3F09001F7F0A3F0EFFD7C8F
:1026EC00007009D288D28AD2A8D2AA22ED64014CF9
:1026FC00700DA2B2339001F2F0A2B3E433A3F02236
:10199E00A2B2E433FFA2B3E433FEEFF4FD9001F202
:1019AE00E0FC5D6021EE60109001F5E004F0701631
:1019BE009001F4E004F0800E9001F5E024FFF09029
:1019CE0001F4E034FFF0EEF4FD9001F3E0FB5D6016
:1019DE0021EF60109001F5E024FFF09001F4E03467
:1019EE00FFF0800E9001F5E004F070069001F4E037
:1019FE0004F0ECF45F6021EE60109001F5E024FF3E
:101A0E00F09001F4E034FFF0800E9001F5E004F068
:101A1E0070069001F4E004F0EBF45E6021EF6010CC
:101A2E009001F5E004F070169001F4E004F0800EE1
:101A3E009001F5E024FFF09001F4E034FFF0900106
:081A4E00F2EFF0AF06A3EEF089
:011A5600226D
:101D910043019200000043019500000043019800B7
:021DA100000040
:03000B000221408F
:10214000C0E0C0F0C083C082C0D075D000C000C065
:1021500001C002C003C004C005C006C00790018EC4
:10216000E0FEA3E0F58AEEF58C900189E004F070C2
:1021700006900188E004F0900192E0FBA3E0FAA34E
:10218000E0F9EA494B60031208F8D007D006D00501
:10219000D004D003D002D001D000D0D0D082D083E0
:0521A000D0F0D0E03298
:03001B000221A51A
:1021A500C0E0C0F0C083C082C0D075D000C000C000
:1021B50001C002C003C004C005C006C0079001905D
:1021C500E0FEA3E0F58BEEF58D90018BE004F07059
:1021D5000690018AE004F0900195E0FBA3E0FAA3E4
:1021E500E0F9EA494B60031208F8D007D006D0059C
:1021F500D004D003D002D001D000D0D0D082D0837B
:05220500D0F0D0E03232
:03002B0002232984
:10232900C0E0C0F0C083C082C0D075D000C000C07A
:1023390001C002C003C004C005C006C00790018DDA
:10234900E004F0700690018CE004F0900198E0FB45
:10235900A3E0FAA3E0F9EA494B60031208F8C2CFF7
:10236900D007D006D005D004D003D002D001D000C8
:0B237900D0D0D082D083D0F0D0E03272
:101CF2009001C0EBF0A3EAF0A3E9F0EF1460311415
:101D020060582402707AC28C5389F043890143C916
:101D120090E4900188F0A3F09001C0E0F9A3E0FA0A
:101D2200A3E0900192C9F0A3EAF0A3E9F0D2A922BC
:101D3200C28E53890F43891043C9A0E490018AF0EF
:101D4200A3F09001C0E0F9A3E0FAA3E0900195C9E5
:101D5200F0A3EAF0A3E9F0D2AB22E4F5C853C9F04C
:101D620043C9C090018CF0A3F09001C0E0F9A3E058
:101D7200FAA3E0900198C9F0A3EAF0A3E9F0D2AD8A
:011D8200223E
:10247F00EDF4FDECF4FCED2401FDE43CFCEF146005
:10248F001A14602A2402703990018EECF0A3EDF03B
:10249F00F58AECF58CE49001888023900190ECF0A4
:1024AF00A3EDF0F58BECF58DE490018A80108CCBC9
:1024BF008DCAAE04AF058ECD8FCCE490018CF0A306
:0124CF00F01C
:0124D00022E9
:10273C00EF1460111460182402701DED6003D38037
:10274C0001C392A922ED6003D38001C392AB22EDA9
:09275C006003D38001C392AD2299
:10002E00EF14600A14600A24027008D28C22D28E59
:04003E0022D2CA22DE
:10281B00EF14600A14600A24027008C28C22C28E64
:04282B0022C2CA22D9
:10251C00EF14601414602A24027035AF8CEFFCAFFA
:10252C008AEFFD90018E800BAF8DEFFCAF8BEFFD32
:10253C00900190E0FEA3E0FFC3ED9FFDEC9EFC80BC
:10254C0013ACCDADCCC3ED95CAFDEC95CBFC8004A2
:08255C00E4FEFF22AF05AE040E
:012564002254
:10256500EDF4FDECF4FCED2401FDE43CFCEF14601E
:10257500161460222402702F8D8AECF58CC28DD240
:102585008C308DFDC28C228D8BECF58DC28FD28E59
:10259500308FFDC28E22AE04AF058ECD8FCCC2CF5B
:0725A500D2CA30CFFDC2CA0B
:0125AC00220C
:10270C00AE07EE25E02488F582E43401F583E4F08D
:10271C00A3F012002EEE25E02488F582E43401F5B6
:10272C0083E0FAA3E0C39DEA9C40EAAF0602281BB3
:0C28870001000201000D010018010023F7
:03002300021E9C1E
:101E9C00C0E0C0F0C083C082C0D075D000C000C00C
:101EAC0001C002C003C004C005C006C007309815AD
:101EBC00C298AD99902887E493FB740193FA74024D
:101ECC0093F912146A309927C29990288DE493FBE8
:101EDC00740193FA740293F990000512066D45F0A3
:101EEC0060071215618F9980069000007401F0D084
:101EFC0007D006D005D004D003D002D001D000D03A
:0A1F0C00D0D082D083D0F0D0E032B4
:03005300021F1673
:101F1600C0E0C0F0C083C082C0D075D000C000C091
:101F260001C002C003C004C005C006C00730C0150A
:101F3600C2C0ADC190288AE493FB740193FA74027F
:101F460093F912146A30C127C2C1902890E493FB1A
:101F5600740193FA740293F990000512066D45F028
:101F660060071215618FC180069000017401F0D0E0
:101F760007D006D005D004D003D002D001D000D0BF
:0A1F8600D0D082D083D0F0D0E0323A
:101801009001FAE0F8A3E0F9A3E0FAA3E0FBE849CC
:101811004A4B7005C29CC2AC22EF24FE603E0460BC
:10182100030218D69000007401F043878053890F9A
:10183100438920C2CCC2CD43C9A0D28E9001FAE027
:10184100F8A3E0F9A3E0FAA3E0FB7F607EE37D1655
:101851007C0012077AEFF404F58D802F900000745C
:1018610001F075C83443C9C09001FAE0F8A3E0F96A
:10187100A3E0FAA3E0FB7F607EE37D167C00120704
:101881007AC3E49FFFE49EF5CB8FCA75985053C687
:10189100EF9001FEE042C69001E57401F0A37400EF
:1018A100F0A3742EF0A3E4F0A37440F07B017A005E
:1018B10079021220049001E57401F0A37400F0A3F1
:1018C10074AEF0A3E4F0A37440F07B017A007918C0
:0618D100122004D2AC223B
:101F9000EC4D4E4F7005C2C4C2EC2290000174019A
:101FA000F075C030AB07AA06A905A8047F607EE3E0
:101FB0007D167C0012077AEFF404F5C253C6DF9059
:101FC000020EE042C69001E57401F0A37400F0A394
:101FD000746EF0A3E4F0A37440F07B017A00790DF5
:101FE0001220049001E57401F0A37400F0A374EED4
:101FF000F0A3E4F0A37440F07B017A00792312206F
:0420000004D2EC22F8
:10278A00EF75F003A42487F582E43428F583E493F3
:10279A00FB740193FA740293F990000512066DFF17
:0327AA00AEF0226C
:1023D800EF75F003A42487F582E43428F583E493A9
:1023E800FB740193FA740293F990000212086FC00B
:1023F80003C002C001EF75F003A42487F582E4341A
:1024080028F583E493FB740193FA740293F990001E
:102418000712066DD001D002D003F58285F0831231
:0424280005B5FF22D5
:0525F300900218EFF05A
:1025F800900218E0FF75F003A42487F582E43428DC
:10260800F583E493FB740193FA740293F99000053F
:1026180012066D45F060D9EF6004C2EC8002C2ACCE
:0E262800121561900218E06003D2EC22D2ACD1
:012636002281
:0E164E009001C5EFF0A3EBF0A3EAF0A3E9F0E2
:10165C00A3E0FFA3E0A3CFF0A3EFF0E4A3F0A3F08B
:10166C009001CBE07002A3E070030217279001C534
:10167C00E075F003A42487F582E43428F583E49321
:10168C00FB740193FA740293F990000512066DFF36
:10169C009001CDE5F0F0A3EFF09001CBE0FEA3E0DC
:1016AC00FFD39001CEE09F9001CDE09E4005EEF07F
:1016BC00A3EFF09001C5E06004C2EC8002C2ACC0A4
:1016CC0002C0019001C6E0F9A3E0FAA3E090019EEC
:1016DC00C9F0A3EAF0A3E9F09001CDE0FFA3E090FC
:1016EC0001A1CFF0A3EFF0D001D002120CFD9001BC
:1016FC00C5E06004D2EC8002D2AC9001CDE0FEA338
:10170C00E0FFC39001CCE09FF09001CBE09EF09005
:0B171C0001C7EE8FF012061602166CDB
:01172700229F
:101A57009001CFEFF0A3EDF0A3EBF0A3EAF0A3E939
:011A6700F08E
:101A6800A3E0FFA3E0A3CFF0A3EFF09001D6E070CE
:101A780002A3E060759001CFE0FF75F003A424870E
:101A8800F582E43428F583E493FB740193FA740235
:101A980093F990000512066D45F060CFEF6004C21F
:101AA800EC8002C2AC1215619001D8EFF09001CF22
:101AB800E06004D2EC8002D2AC9001D0E0FF90014B
:101AC800D8E0FE6F60249001D7E024FFF09001D6A3
:101AD800E034FFF09001D1E0FBA3E475F0011206B9
:101AE8002CA9F0FAEE1205E280819001D6E0FEA35F
:0F1AF800E0FFC39001D5E09FFF9001D4E09EFE78
:011B070022BB
:0E18D7009001D9EFF0A3EBF0A3EAF0A3E9F043
:1018E500E49001DFF0A3F09001DEE024FFF0900129
:1018F500DDE034FFF09001DDE0FEA3E0FFC39001E1
:10190500E0E09F9001DFE09E50749001D9E0FF7503
:10191500F003A42487F582E43428F583E493FB746B
:101925000193FA740293F990000512066D45F06073
:10193500D9EF6004C2EC8002C2AC1215619001E1DE
:10194500EFF09001D9E06004D2EC8002D2AC9001B6
:10195500E1E0FF9001DAE0FBA3E0FAA3E0F99001F2
:10196500DFE475F00112062C85F082F583EF120590
:10197500F4EF640D6008EF640A60030218FA900141
:10198500DAE0FBA3E0FAA3E0F99001DFE0FEA3E0D3
:09199500FFF5828E83E40205F4E3
:1025AD00EF75F003A4248DF582E43428F583E493CC
:1025BD00FB740193FA740293F990000512066DFDF8
:1025CD00ACF0EF75F003A4248DF582E43428F58387
:1025DD00E493FB740193FA740293F9120642C39DBE
:0625ED00FFE5F09CFE2258
:10220A00900219EFF06004C2EC8002C2AC9002198D
:10221A00E0FF2400F582E43400F583E0601AEF6001
:10222A00048DC180028D99900219E02400F582E4A0
:10223A003400F583E4F0801F900219E075F003A4DE
:10224A00248DF582E43428F583E493FB740193FA30
:10225A00740293F912146A900219E06003D2EC2214
:03226A00D2AC22D1
:0B22CC0090020FEBF0A3EAF0A3E9F092
:1022D700E4A3F0A3F090020FE0FBA3E0FAA3E0F978
:1022E700A3E0FCA3E0F5828C831205B56010900291
:1022F70013E004F070DF900212E004F080D7900240
:102307000FE0FBA3E0FAA3E0F9A3E0FDA3E090014F
:10231700EECDF0A3EDF01210D4900212E0FEA3E090
:01232700FFB6
:012328002292
:1010D4009001EBEBF0A3EAF0A3E9F09001EAEFF062
:1010E400E49001F0F0A3F0EF6004C2EC8002C2AC23
:1010F4009001EAE0FF2400F582E43400F583E06027
:1011040049EF9001EB6014E0FBA3E475F0011206D3
:101114002CA9F0FA12059CF5C18012E0FBA3E4753A
:10112400F00112062CA9F0FA12059CF5999001EA37
:10113400E02400F582E43400F583E4F09001EFE06C
:1011440024FFF09001EEE034FFF09001EAE0600447
:10115400D2EC8002D2AC9001EEE07002A3E0700306
:101164000212589001EAE0FF75F003A4248DF58281
:10117400E43428F583E493FB740193FA740293F93D
:1011840090000512066DFDACF0EF75F003A4248DFC
:10119400F582E43428F583E493FB740193FA740232
:1011A40093F9120642C39DFEE5F09C9001F0F0A372
:1011B400CEF09001F0E0FEA3E0FF4E60999001EEC6
:1011C400E0FCA3E0FDD3EF9DEE9C4006A3ECF0A36E
:1011D400EDF09001EAE0FF6004C2EC8002C2ACEFE3
:1011E40075F003A4248DF582E43428F583E493FB9D
:1011F400740193FA740293F9C002C0019001EBE008
:10120400F9A3E0FAA3E09001ADC9F0A3EAF0A3E9E1
:10121400F09001F0E0FFA3E09001B0CFF0A3EFF075
:10122400D001D002120EF09001EAE06004D2EC800A
:1012340002D2AC9001F0E0FEA3E0FFC39001EFE026
:101244009FF09001EEE09EF09001ECEE8FF012061C
:041254001602115A13
:011258002273
:101DA30043017400000043000100000043000100F0
:101DB300000043000100000043017D0000004301D7
:041DC300800000009C
:030043000212594D
:10125900C0E0C0F0C083C082C0D075D000C000C05B
:1012690001C002C003C004C005C006C00720D903DD
:1012790002130BE5D9543024F0602624F06045248C
:10128900F0605B2430707990017AE0FBA3E0FAA367
:10129900E0F9EA494B6069E5D9540FFF90017A807A
:1012A90055900184E004F07006900183E004F09009
:1012B9000174E0FBA3E0FAA3E0F9EA494B604112AB
:1012C90008F8803C900177E0FBA3E0FAA3E0F9EA93
:1012D900494B602CE5D9540FFF9001778018900194
:1012E90085E0FBA3E0FAA3E0F9EA494B6012E5D9EE
:1012F900540FFF900185A3A3E0F5828A831208FCAD
:10130900C2D930D81C90017DE0FBA3E0FAA3E0F933
:10131900EA494B60031208F875E300C2DAC2D9C280
:10132900D830DA1CC2DA900180E0FBA3E0FAA3E02E
:10133900F9EA494B600DE5DA30E2081208F8800352
:1013490075D8FFD007D006D005D004D003D002D07D
:0E13590001D000D0D0D082D083D0F0D0E032CE
:101E1300E4900183F0A3F075E229F5E375D1811213
:101E2300064285F0EDF5EC90000212066D85F0EFA9
:101E3300F5EE90000412066D85F0E5F5E4900006DA
:101E430012066D85F0E7F5E69000081205B5F5DC9E
:101E53009000091205B5F5D290000A1205B5F5D424
:101E630090000B1205B5F5D690000C1205B5F5DE02
:101E730090000D1205B5F5EA90000E1205B5F5EBCD
:101E8300E4F5DDF5D3F5D5F5D7F5DF90000F1205B1
:091E9300B5F5E175D8FFD2EA2291
:101DC70042015B00004201600000410159004101EE
:101DD7005D0041015E004101570141015F01410181
:101DE7006800410156004101580041016B00410163
:0C1DF7005A0042016E0000420169000029
:1017280090015CE004F0700690015BE004F0900129
:1017380061E004F07006900160E004F0900136E08A
:10174800602890015BE0FEA3E07802CEC313CE13BD
:10175800D8F9FF900136E0FEEFC39E400D90015985
:101768007401F0E490015BF0A3F0900153E060286D
:10177800900160E0FEA3E07802CEC313CE13D8F93F
:10178800FF900153E0FEEFC39E400D90015D740190
:10179800F0E4900160F0A3F090015EE064017058FD
:1017A800900168E0605290016EE07002A3E0602250
:1017B80090015AE0FF700590015604F0EF5407704D
:1017C8000590015804F090016FE024FFF090016E3D
:1017D8008014900169E07002A3E0601090016AE053
:1017E80024FFF0900169E034FFF0800690016B74EB
:0917F80001F090015AE004F02216
:10006E007F061228507BF07D01E4FF1223847B0D66
:10007E007D03E4FF1223847B327D037F01122384F0
:10008E007B017D017F011223847BFF7A1779287F04
:10009E0002121CF27DC07C5D7F0212247F7F021251
:1000AE00002ED2AFC2AEE5875430642070077FF4C5
:1000BE007E0112280412242C7F011226DC900214D9
:1000CE0012083E1337BEEFE4F5FF7F011228407D84
:1000DE00207F031227657D107F011227AD9001B995
:1000EE00EFF0E4A3F07D207F011227ADEF701690A4
:1000FE00015EF07D027F011227CF7D107F03122754
:10010E00CF7D20801E7D407F011227ADEF701890AD
:10011E00015E04F07D02FF1227CF7D207F031227A0
:10012E00CF7D107F03801B7D807F011227ADEF7086
:10013E001490015E7402F07D307F031227CF7D0292
:10014E007F011227657D107F011227ADEF601B9096
:10015E0001BAE0D394087480948050047F01800229
:10016E007F009001BAE02FF080149001BAE0FF609A
:10017E00047E0180027E00C3EF9E9001BAF09001D2
:10018E00B9E0FF6008A3E070047E0180027E00905B
:10019E0001BBEEF0EF700C9001BAE0640870047FC2
:1001AE000180027F009001BCEFF09001B9E0600485
:1001BE00A3E070089001BAE0640870047F01800229
:1001CE007F009001B9EFF012199E9001F4E0A3E0C8
:1001DE00FF9001BDE0FEC3EF9EFEFD3395E0FCC334
:1001EE00ED94FFEC6480947F400BD3ED9401EC64AE
:1001FE008094804033D3ED9400EC6480948040046E
:10020E007D0180027D009001BEEDF0EE3395E0C3DE
:10021E006480948050047E0180027E009001BFEEC7
:10022E00F09001BDEFF08007E49001BEF0A3F090D6
:10023E00015EE01470030202E214700302037C24D8
:10024E000260030204147D207F011227ADEF603B94
:10025E009001BBE060057F041228B39001BCE06002
:10026E00057F041228939001BEE0600C900157E0C8
:10027E00F404FFE4FD1228609001BFE07003020455
:10028E0014900157E0FFE4FD02032A9001BEE060E6
:10029E0006900157E004F09001BFE0600690015710
:1002AE00E014F0900157E0FF3395E0FEC3EF9401A8
:1002BE00EE6480948050037401F0900157E0FF3398
:1002CE0095E0FED3EF940AEE64809480500302040E
:1002DE00140203767D407F011227ADEF604490013A
:1002EE00BCE06016900168E070047F0180027F0020
:1002FE00900168EFF0E4A3F0A3F09001BEE0600A75
:10030E0090015FE0FDE4FF1228609001BFE07003F2
:10031E0002041490015FE0F404FDE4FF1228600271
:10032E0004149001BEE0600690015FE004F09001BD
:10033E00BFE0600690015FE014F090015FE0FF33D4
:10034E0095E0FEC3EF9401EE648094805003740137
:10035E00F090015FE0FF3395E0FED3EF940AEE6478
:10036E008094805003020414740AF00204147D80F9
:10037E007F011227ADEF60459001BEE060127FE96C
:10038E007E0012289F900134E070FAFFFE12289F23
:10039E009001BFE060127FEA7E0012289F90013428
:1003AE00E070FAFFFE12289F9001BBE060077FE22B
:1003BE007E0012289F9001BCE0604B80439001BEEE
:1003CE00E060127FB57E0012289F900134E070FA33
:1003DE00FFFE12289F9001BFE060127FB67E0012D2
:1003EE00289F900134E070FAFFFE12289F9001BB07
:1003FE00E060077FCD7E0012289F9001BCE0600672
:10040E00E4FFFE12289F900156E060357F10121B0C
:10041E0008900214A3A3A3E0900162F0FB900214D3
:10042E00A3A3E0FEEE900163F0EB30E706900162CD
:10043E00E004F0900163E030E70204F0E49001562E
:10044E00F0900158E070030204FB900162E0FF336C
:10045E0095E0FE900165E02FF0900164E03EF09093
:10046E000163E0FF3395E0FE900167E02FF090010D
:10047E0066E03EF0900170E0FEA3E07804CEA2E7C5
:10048E0013CE13D8F8FD900164E0FAA3E0FBAE02A0
:10049E007804CEA2E713CE13D8F8C39DFF90016C5B
:1004AE00F0FC900172E0FEA3E07804CEA2E713CE3A
:1004BE0013D8F8FD900166E0FEA3E07804CEA2E723
:1004CE0013CE13D8F8C39D90016DF0FD900170EA24
:1004DE00F0A3EBF0900166E0FFA3E0900172CFF085
:1004EE00A3EFF0AF04120056E4900158F090016BA8
:1004FE00E060797F10121B08900214A3A3E0FFA303
:10050E00E090016ECFF0A3EFF07F10121B08900267
:10051E0014A3A3E0FFA3E0900169CFF0A3EFF09046
:10052E00016EE0FEA3E07802CEC313CE13D8F9F02D
:10053E00EE90016EF0900169E0FEA3E07802CEC36A
:10054E0013CE13D8F9F0EE900169F090016FE0240C
:10055E00E8F090016EE03403F090016AE024E8F0D8
:10056E00900169E03403F0E490016BF0900159E0E2
:10057E006008120046E4900159F090015DE06008B9
:0E058E0012286DE490015DF0E4F5FF0200F329
:101367001201100100000008861A0CFE000101029C
:10137700030109023B000201008032090400000159
:10138700030102040921100100012243000705811E
:1013970003080001090401000103010105092110E7
:1013A7000100012219000705820304000105010954
:1013B70002A1010901A10005091901290315002549
:1013C70001750195038102750595018103050109E1
:1013D70030093109381581257F7508950381060580
:1013E7000C0A38021581257F750895018106C0C052
:1013F700050C0901A101850119002A3C02150026E7
:101407003C02950175108100C0040309040E03779F
:1014170000630068002E0063006E0022035500532E
:101427000042002000430043002000500061006E8E
:101437000020004D006F007500730065001603441F
:101447000045004100440042004500450046003089
:1014570000350001370141014B0000021212020260
:031467004004033B
:1026AA007B017A017937EF602890012EE0FCA3E0E4
:1026BA00F5828C83E4931205E2740129F9E43AFA6B
:1026CA0090012FE004F0700690012EE004F01F80C4
:0126DA00D52A
:0126DB0022DC
:0928AA00EF7005F5DD75DCC022BC
:051BB7009001C3EFF0F6
:101BBC007068900154E054607055A3E024FB603CC5
:101BCC00147047900151E0FEA3E0FFC39408EE941B
:101BDC000040067D087F0880009001C4EFF01226BB
:101BEC00AA9001C4E0FFFDC3900152E09DF090016A
:101BFC0051E09400F08FDD63DC40801EE5E35480FF
:101C0C00FF900130E04FF5E38008E4F5DD8003E45C
:101C1C00F5DDE5DC54FC4402F5DC9001C3E0FF7E0D
:101C2C000064017019F5D3E5D254FC4402F5D2E4FA
:101C3C00900142F0A3F0A3F0A3F0900131F0EF6417
:101C4C00024E700FF5D5E5D454FC4402F5D4E49063
:031C5C000134F060
:011C5F002262
:10097100EF6003020CFC90013EE0FE90013DE0FDC2
:10098100EDFF900151EEF0A3EFF0900138E09001FE
:1009910055F0900137E0FF900154F0E490012EF002
:1009A100A3F09001C3F0EF5460FF6003020B799054
:1009B1000155E0B40C004003020B769009C3F828FE
:1009C10028730209E70209F7020B76020A3E020BBD
:1009D10076020A8D020A98020B76020B58020B5E10
:1009E100020B69020C90E4900137F0A3F09001C36F
:1009F1007402F0020C90900154E0541F6402703AAA
:100A0100900139E0703490013BE0247F6010146064
:100A11001B2481707453D27F53D2F3020C9053D2B2
:100A2100BFE5D254FC4402F5D2020C9053D4BFE589
:100A3100D454FC4402F5D4020C90020C8A90015467
:100A4100E0541F64027042900139E0703C90013B18
:100A5100E0247F60151460202481702A53D27FE541
:100A6100D254F3440CF5D2020C9053D2BFE5D254C8
:100A7100FC4403F5D2020C9053D4BFE5D454FC449A
:100A810003F5D4020C90020C8A020C8A900139E021
:100A9100900130F0020C9090013AE024FE602414A1
:100AA100603424E17003020B2C24216003020B55F6
:100AB10090012E7413F0A37467F09001C37412F0C7
:100AC100020C9090012E7413F0A37479F09001C37D
:100AD100743BF0020C90900139E014601614601F11
:100AE10014601E2403702690012E7414F0A3741058
:100AF100F0802490012E7414F0A37414F0801880F7
:100B01000C90012E7414F0A37444F0800A90012E0D
:100B11007414F0A37422F090012EE0FCA3E0F5829E
:100B21008C83E4939001C3F0020C9090013BE09020
:100B3100012E70107413F0A374B4F09001C37443C8
:100B4100F0020C907413F0A374F7F09001C37419C0
:100B5100F0020C90020C8A900132020C4D90013986
:100B6100E0900132F0020C90E4900137F09001C363
:100B710004F0020C90020C8AEF64206003020C8ADC
:100B8100900155E024FE7003020C28147003020C3E
:100B91003F24FA7003020C90147003020C5A147073
:100BA10003020C71240A6003020C8890013BE0707F
:100BB1003B9001C4F09001C4E0C39405748094801B
:100BC1005021E0FF2441F582E43401F583E0FE7415
:100BD100372FF582E43401F583EEF09001C4E0048F
:100BE100F080D29001C37405F0020C90E49001C42E
:100BF100F09001C4E0C39403748094805021E0FF1D
:100C0100244BF582E43401F583E0FE74372FF5823D
:100C1100E43401F583EEF09001C4E004F080D29059
:100C210001C37403F0806890013BE07007900136C6
:100C3100E0A38007900153E0900137F08013900109
:100C41003BE070059001338003900135E09001375E
:100C5100F09001C37401F0803690013BE090013ABD
:100C61007007E0900136F08026E0900153F0801F7C
:100C710090013BE09001397007E0900133F0800F63
:100C8100E0900135F0800880009001C374FFF0907E
:100C910001C3E0FFF4700A90015574FFF075DCCFD9
:100CA100227E00D3900152E09F900151E09E4005C9
:100CB100EEF0A3EFF0900151E0FEA3E0FFD3940822
:100CC100EE940040067D087F0880009001C3EFF09C
:100CD10090012EE07002A3E060089001C3E0FF12D2
:100CE10026AA9001C3E0FFFDC3900152E09DF09060
:0B0CF1000151E09400F08FDD75DCC0C5
:010CFC0022D5
:1026370075DC0275D21275D412E4900141F0A3F053
:10264700A3F0A3F0A3F0900131F0900136F09001D0
:102657003304F090014BF0E4A3F0A3F0900134F0C1
:0A266700900153F090013504F022B9
:10242C00900174E4F0A3F0A3F090017A74FFF0A390
:10243C007428F0A374AAF090017774FFF0A3741BB6
:10244C00F0A374B7F090018574FFF0A37409F0A3A6
:10245C007471F090017D74FFF0A37426F0A37437AF
:10246C00F0900180E4F0A3F0A3F07BFF7A14795A8A
:03247C00021E132A
:0D0046009001317401F075D30553D2FC22F6
:0928B300900141E04FF0020046E3
:0C289300EFF4FF900141E05FF00200460E
:0D005600900142E02FF0A3E02DF0020046E3
:0D286000900144E02FF0A3E02DF0020046AF
:0D286D009001347401F075D50353D4FC22A2
:0B289F0090014CEFF0EEA3F002286D5A
:051B08009001C0EFF0A8
:101B0D009001C0E07003021BB6900214E0FCA3E04C
:101B1D00FDA3E0FEA3E0FF781F12080C9001C1EFBA
:101B2D00F0FB900214E0FCA3E0FDA3E0FEA3E0FFB8
:101B3D00781512080CEB6F9001C1F0FB900214E0C8
:101B4D00FCA3E0FDA3E0FEA3E0FF780112080CEB7F
:101B5D006F9001C1F0FB900214A3A3A3E06B900161
:101B6D00C1F05401F0900214E0FCA3E0FDA3E0FEEF
:101B7D00A3E0FF780112081F9002141208329002A0
:101B8D0014E0F8A3E0F9A3E0FAA3E0FB9001C1E0B3
:101B9D00FFEB4FFFEAFEE9FDE8FC9002141208325C
:091BAD009001C0E014F0021B0DD0
:011BB600220C
:0F1E0300410201004201FF000043020200000003
:03006B0002226D01
:10226D00C0E0C0F0C083C082C0D075D000C000C037
:10227D0001C002C003C004C005C006C00790020122
:10228D00E0F5FF900200E004F070069001FFE0041D
:10229D00F0900202E0FBA3E0FAA3E0F9EA494B60FB
:1022AD00031208F8D007D006D005D004D003D00211
:0F22BD00D001D000D0D0D082D083D0F0D0E0328A
:1028400075A15575A1AA53B1FEEF42B175A1FF2242
:10282F0075A15575A1AAE5B9543F4FF5B975A1FF2B
:01283F002276
:1028500075A15575A1AA53B9F8EF42B975A1FF2228
:0D287A0075A15575A1AA43B11075A1FF22EB
:1027EA00EF4E601505A105A105A105A105A105A149
:0A27FA0005A1EF1F70EA1E80E72220
:10280400AD07AC06ED4C600E7FE87E031227EAEDBF
:072814001D70F11C80EE2293
:101C720002006EE493A3F8E493A34003F68001F21A
:101C820008DFF48029E493A3F85407240CC8C33373
:101C9200C4540F4420C8834004F456800146F6DF42
:101CA200E4800B0102040810204080901D83E47E32
:101CB200019360BCA3FF543F30E509541FFEE49337
:101CC200A360010ECF54C025E060A840B8E493A3FE
:101CD200FAE493A3F8E493A3C8C582C8CAC583CA29
:101CE200F0A3C8C582C8CAC583CADFE9DEE780BEE1
:011E120000CF
:10059C00BB010689828A83E0225002E722BBFE025D
:0905AC00E32289828A83E4932290
:1005B500BB010CE58229F582E5833AF583E02250FB
:1005C50006E92582F8E622BBFE06E92582F8E22245
:0D05D500E58229F582E5833AF583E493225F
:1005E200BB010689828A83F0225002F722BBFE01F8
:0205F200F322F2
:1005F400F8BB010DE58229F582E5833AF583E8F03D
:10060400225006E92582C8F622BBFE05E92582C8E8
:02061400F222D0
:10061600C5F0F8A3E028F0C5F0F8E582158270026F
:060626001583E038F0220C
:10062C00A3F8E0C5F025F0F0E58215827002158381
:06063C00E0C838F0E822DE
:10064200BB010A89828A83E0F5F0A3E02250068783
:10065200F009E71922BBFE07E3F5F009E319228945
:0B066200828A83E493F5F07401932278
:10066D00BB0110E58229F582E5833AF583E0F5F0CB
:10067D00A3E0225009E92582F886F008E622BBFEA8
:10068D000AE92582F8E2F5F008E222E5832AF583EE
:08069D00E993F5F0A3E99322B3
:1006A500BB010DC58229C582C5833AC583020616DD
:1006B5005011C58229F808E5F026F618F5F0E5820F
:1006C50036F622BBFE11C58229F808E225F0F5F0C1
:1006D500F218E23582F222F8E58229F582E5832ACD
:0D06E500F58374019325F0F5F0E4933822BD
:1006F200BB010A89828A83F0E5F0A3F0225006F753
:0F07020009A7F01922BBFE06F3E5F009F319224F
:10071100F8BB0111E58229F582E5833AF583E8F01A
:10072100E5F0A3F0225009E92582C8F608A6F022D7
:0D073100BBFE09E92582C8F2E5F008F222BE
:10073E0075F008758200EF2FFFEE33FECD33CDCC72
:10074E0033CCC58233C5829BED9AEC99E5829840F5
:10075E000CF582EE9BFEED9AFDEC99FC0FD5F0D6D2
:10076E00E4CEFBE4CDFAE4CCF9A88222B800C1B9FC
:10077E000059BA002DEC8BF084CFCECDFCE5F0CB3A
:10078E00F97818EF2FFFEE33FEED33FDEC33FCEB73
:10079E0033FB10D703994004EB99FB0FD8E5E4F92E
:1007AE00FA227818EF2FFFEE33FEED33FDEC33FC1B
:1007BE00C933C910D7059BE99A4007EC9BFCE99A0F
:1007CE00F90FD8E0E4C9FAE4CCFB2275F010EF2F54
:1007DE00FFEE33FEED33FDCC33CCC833C810D70754
:1007EE009BEC9AE899400AED9BFDEC9AFCE899F88F
:0E07FE000FD5F0DAE4CDFBE4CCFAE4C8F92222
:10080C00E8600FECC313FCED13FDEE13FEEF13FFCA
:03081C00D8F122EE
:10081F00E8600FEFC333FFEE33FEED33FDEC33FC37
:03082F00D8F122DB
:0C083200ECF0A3EDF0A3EEF0A3EFF02239
:10083E00A8828583F0D083D08212085512085512F3
:10084E000855120855E473E493A3C583C5F0C58318
:10085E00C8C582C8F0A3C583C5F0C583C8C582C804
:01086E002267
:10086F00BB010DE58229F582E5833AF58302094143
:10087F005007E92582F802092FBBFE07E92582F808
:10088F00020953E58229F582E5833AF5830209656A
:10089F00BB0120E58229F582E5833AF583D0F0D0BC
:1008AF00E0F8D0E0F9D0E0FAD0E0FBE8C0E0C0F02B
:1008BF0002094A5018E92582F8D083D082D0E0F996
:1008CF00D0E0FAD0E0FBC082C083020938BBFE182B
:1008DF00E92582F8D083D082D0E0F9D0E0FAD0E0D9
:0908EF00FBC082C08302095C22F7
:0608F8008A838982E4738B
:1008FE00E5092582F582E5083583F583B50804857B
:10090E0082092210AF06858209F50822858209F533
:04091E0008D2AF222A
:0D092200E5092582F582E5083583F583227D
:09092F00E6FB08E6FA08E6F922ED
:09093800EBF608EAF608E9F622E4
:09094100E0FBA3E0FAA3E0F922B7
:09094A00EBF0A3EAF0A3E9F022AE
:09095300E2FB08E2FA08E2F922D5
:09095C00EBF208EAF208E9F222CC
:0C096500E493FB740193FA740293F922EE
:00000001FF
