:03000000021C5D82
:101C5D00787FE4F6D8FD75080475090075810902D1
:021C6D001CAAAF
:102001009001E2EBF0A3EAF0A3E9F09001E8E0F936
:10201100A3E0FF9001E2E0FBA3E0FAA3E0C98FF0A7
:102021001206EF9001E5E0FBA3E0FAA3E0F9C0039B
:10203100C002C0019001E2E0FBA3E0FAA3E0F99045
:10204100000212089C9001E2E0FBA3E0FAA3E0F990
:10205100900005E4F5F012070E900007E4F5F01288
:0B206100070E900009E4F5F002070EE6
:1014670090FFFF1208FBEDF090FFFD1208FBEBF079
:10147700A3EAF0A3E9F0850883850982E0FBA3E0EE
:10148700FAA3E0F990000512066AFFAEF012063FD4
:10149700FDC3EF9DEE95F040057F000215589000C3
:1014A7000312091FE0FF850883850982E0FBA3E09B
:1014B700FAA3E0F990000212086CC003C002C00151
:1014C700850883850982E0FBA3E0FAA3E0F9900091
:1014D7000912066AD001D002D003F58285F083EFA6
:1014E7001205F1850883850982E0FBA3E0FAA3E0F2
:1014F700F9900009E475F0011206A2E92409F9E45C
:101507003AFAC003C002C00112063FFFAEF08508D9
:1015170083850982E0FBA3E0FAA3E0F912063F24E2
:10152700FFFDE5F034FF5EFEEF5DFFD001D002D096
:1015370003EE8FF01206EF850883850982E0FBA38F
:10154700E0FAA3E0F9900005E475F0011206A27F26
:07155700019000040208FBF3
:10155E0090FFFD1208FBEBF0A3EAF0A3E9F090FF79
:04156E00FF1208FB65
:10157200850883850982A3E0FBA3E0FAA3E0F99042
:10158200000512066A45F07004FF021645850883BD
:10159200850982A3E0FBA3E0FAA3E0F9900002121E
:1015A200086CC003C002C001850883850982A3E0DC
:1015B200FBA3E0FAA3E0F990000712066AD001D07B
:1015C20002D003F58285F0831205B285088385096E
:1015D20082F0A3E0FBA3E0FAA3E0F9900007E47530
:1015E200F0011206A2E92407F9E43AFAC003C002A4
:1015F200C00112063FFFAEF0850883850982A3E091
:10160200FBA3E0FAA3E0F912063F24FFFDE5F03464
:10161200FF5EFEEF5DFFD001D002D003EE8FF0122D
:1016220006EF850883850982A3E0FBA3E0FAA3E025
:10163200F990000574FFF5F01206A285088385096A
:0316420082E0FF44
:061645009000040208FB06
:0B0CFA0090019BEBF0A3EAF0A3E9F0EF
:100D050090000512066AFFD39001A2E09F9001A111
:100D1500E095F040037F002290019BE0FBA3E0FA01
:100D2500A3E0F990000712066AFFAEF012063FC372
:100D35009FFFE5F09EFE9001A3F0A3EFF0C39001A5
:100D4500A2E09F9001A1E09E5003020E2390019B1B
:100D5500A3A3E090000212086CC003C002C001907A
:100D6500019BE0FBA3E0FAA3E0F990000712066AF5
:100D7500D001D002D00329F9EA35F0FA9001A5EBAC
:100D8500F0A3EAF0A3E9F0E4A3F0A3F09001A3E057
:100D9500FEA3E0FF9001A8E0FCA3E0FDC39FEC9E4D
:100DA500503C9001A5E0FBA3E0FAA3E0F98D828C0D
:100DB500831205B2FF90019EE0FBA3E0FAA3E0F9E0
:100DC500EF1205DF90019FE475F001120613900103
:100DD500A9E004F070069001A8E004F080AE90014F
:100DE5009BE0FBA3E0FAA3E0F9900007E4F5F0121D
:100DF500070EE92405F9E43AFA12063FFF9001A32C
:100E0500E0FCA3E0FDC3EF9DFFE5F09C8FF012062B
:100E1500EFC39001A2E09DF09001A1E09CF090014C
:100E25009BE0FBA3E0FAA3E0F990000212086CC076
:100E350003C002C00190019BE0FBA3E0FAA3E0F927
:100E450090000712066AD001D002D00329F9EA35CD
:100E5500F0FA9001A5EBF0A3EAF0A3E9F0E4A3F022
:100E6500A3F09001A1E0FEA3E0FF9001A8E0FCA3A0
:100E7500E0FDC39FEC9E503C9001A5E0FBA3E0FA8A
:100E8500A3E0F98D828C831205B2FF90019EE0FBF1
:100E9500A3E0FAA3E0F9EF1205DF90019FE475F0F6
:100EA500011206139001A9E004F070069001A8E074
:100EB50004F080AE9001A1E0FEA3E0FF90019BE06D
:100EC500FBA3E0FAA3E0F9900007EE8FF01206A26B
:100ED500E92405F9E43AFA12063FC39FFFE5F09EBF
:070EE5008FF01206EF7F0100
:010EEC0022E3
:0B0EED009001AAEBF0A3EAF0A3E9F0EB
:100EF80090000512066AFFAEF012063FC39FFFE599
:100F0800F09EFED39001B1E09F9001B0E09E4003B7
:100F18007F00229001AAE0FBA3E0FAA3E0F9900089
:100F28000912066AFFAEF012063FC39FFFE5F09E66
:100F3800FE9001B2F0A3EFF0C39001B1E09F9001E1
:100F4800B0E09E50030210139001AAA3A3E0900002
:100F58000212086CC003C002C0019001AAE0FBA302
:100F6800E0FAA3E0F990000912066AD001D002D095
:100F78000329F9EA35F0FA9001B4EBF0A3EAF0A3FB
:100F8800E9F0E4A3F0A3F09001B2E0FEA3E0FF9043
:100F980001B7E0FCA3E0FDC39FEC9E503C9001AD7F
:100FA800E0FBA3E0FAA3E0F9120599FF9001B4E091
:100FB800FBA3E0FAA3E0F98D828C83EF1205F19090
:100FC80001AEE475F0011206139001B8E004F07068
:100FD800069001B7E004F080AE9001AAE0FBA3E020
:100FE800FAA3E0F9900009E4F5F012070E9001B2B7
:100FF800E0FEA3E0FF900005EE8FF01206A2C3907A
:1010080001B1E09FF09001B0E09EF09001AAE0FBF2
:10101800A3E0FAA3E0F990000212086CC003C00232
:10102800C0019001AAE0FBA3E0FAA3E0F99000094F
:1010380012066AD001D002D00329F9EA35F0FA90F5
:1010480001B4EBF0A3EAF0A3E9F0E4A3F0A3F09075
:1010580001B0E0FEA3E0FF9001B7E0FCA3E0FDC310
:101068009FEC9E503C9001ADE0FBA3E0FAA3E0F9B1
:10107800120599FF9001B4E0FBA3E0FAA3E0F98D13
:10108800828C83EF1205F19001AEE475F00112062F
:10109800139001B8E004F070069001B7E004F08006
:1010A800AE9001B0E0FEA3E0FF9001AAE0FBA3E050
:1010B800FAA3E0F9900009EE8FF01206A29000055D
:0810C800EE8FF01206A27F0179
:0110D00022FD
:0E1D8000410208FF410209FF43020500000076
:030063000224CEA6
:1024CE00C0E0C0F0C083C082C0D075D000C000C0D4
:1024DE0001C002C003C004C005C006C007900205BB
:1024EE00E0FBA3E0FAA3E0F9EA494B60031208F51A
:1024FE00D007D006D005D004D003D002D001D00032
:0B250E00D0D0D082D083D0F0D0E032DB
:02238100A907AA
:10238300ED24FD600A24027048AC92AE938004AC45
:1023930096AE97E914601414601614601C2403703D
:1023A30030EBF4FF5CFCEE5FFE8014EBF45C800B1F
:1023B300EC4BFCEBF45EFE8006EC4BFCEE4BFEEDCF
:1023C30024FD6009240270098C928E93228C968ED0
:0123D3009772
:0123D40022E6
:10266E00EF24FD601C2402702FEB9002086006E040
:10267E004DFFF08009E0FFEDF4FEEF5EFFF08F906E
:10268E0022EB9002096006E04DFFF08009E0FFEDBD
:09269E00F4FEEF5EFFF08FB022A4
:1027AA00EF24FD600F24027016E5905D60037F013F
:1027BA00227F0022E5B05D60037F01227F00227F35
:0227CA000022EB
:1027CC00EF24FD600D24027011900208E04DF0F52D
:0B27DC009022900209E04DF0F5B022C1
:10276200EF24FD60122402701B900208E0FFEDF4DA
:10277200FEEF5EF0F59022900209E0FFEDF4FEEF2D
:052782005EF0F5B0223D
:030003000220D602
:1020D600C0E0C083C082C0D030B3299001F6E06072
:1020E6000E9001F5E004F070069001F4E004F09023
:1020F60001F8E004F070069001F7E004F09001F6B4
:10210600E4F0802A9001F6E06404600E9001F5E0A8
:1021160024FFF09001F4E034FFF09001F8E024FF92
:10212600F09001F7E034FFF09001F67404F0D0D09F
:07213600D082D083D0E0321B
:0300130002206C5C
:10206C00C0E0C083C082C0D030B22C9001F6E064D6
:10207C0007600E9001F5E024FFF09001F4E034FFCE
:10208C00F09001F8E024FFF09001F7E034FFF090BD
:10209C0001F67407F0802A9001F6E06401600E905E
:1020AC0001F5E004F070069001F4E004F09001F802
:1020BC00E004F070069001F7E004F09001F6740172
:0A20CC00F0D0D0D082D083D0E032F3
:1026D900E49001F4F0A3F09001F7F0A3F0EFFD7C92
:1026E900007009D288D28AD2A8D2AA22ED64014CFC
:1026F900700DA2B2339001F2F0A2B3E433A3F02239
:10199B00A2B2E433FFA2B3E433FEEFF4FD9001F205
:1019AB00E0FC5D6021EE60109001F5E004F0701634
:1019BB009001F4E004F0800E9001F5E024FFF0902C
:1019CB0001F4E034FFF0EEF4FD9001F3E0FB5D6019
:1019DB0021EF60109001F5E024FFF09001F4E0346A
:1019EB00FFF0800E9001F5E004F070069001F4E03A
:1019FB0004F0ECF45F6021EE60109001F5E024FF41
:101A0B00F09001F4E034FFF0800E9001F5E004F06B
:101A1B0070069001F4E004F0EBF45E6021EF6010CF
:101A2B009001F5E004F070169001F4E004F0800EE4
:101A3B009001F5E024FFF09001F4E034FFF0900109
:081A4B00F2EFF0AF06A3EEF08C
:011A53002270
:101D8E0043019200000043019500000043019800BA
:021D9E00000043
:03000B0002213D92
:10213D00C0E0C0F0C083C082C0D075D000C000C068
:10214D0001C002C003C004C005C006C00790018EC7
:10215D00E0FEA3E0F58AEEF58C900189E004F070C5
:10216D0006900188E004F0900192E0FBA3E0FAA351
:10217D00E0F9EA494B60031208F5D007D006D00507
:10218D00D004D003D002D001D000D0D0D082D083E3
:05219D00D0F0D0E0329B
:03001B000221A21D
:1021A200C0E0C0F0C083C082C0D075D000C000C003
:1021B20001C002C003C004C005C006C00790019060
:1021C200E0FEA3E0F58BEEF58D90018BE004F0705C
:1021D2000690018AE004F0900195E0FBA3E0FAA3E7
:1021E200E0F9EA494B60031208F5D007D006D005A2
:1021F200D004D003D002D001D000D0D0D082D0837E
:05220200D0F0D0E03235
:03002B0002232687
:10232600C0E0C0F0C083C082C0D075D000C000C07D
:1023360001C002C003C004C005C006C00790018DDD
:10234600E004F0700690018CE004F0900198E0FB48
:10235600A3E0FAA3E0F9EA494B60031208F5C2CFFD
:10236600D007D006D005D004D003D002D001D000CB
:0B237600D0D0D082D083D0F0D0E03275
:101CEF009001C0EBF0A3EAF0A3E9F0EF1460311418
:101CFF0060582402707AC28C5389F043890143C91A
:101D0F0090E4900188F0A3F09001C0E0F9A3E0FA0D
:101D1F00A3E0900192C9F0A3EAF0A3E9F0D2A922BF
:101D2F00C28E53890F43891043C9A0E490018AF0F2
:101D3F00A3F09001C0E0F9A3E0FAA3E0900195C9E8
:101D4F00F0A3EAF0A3E9F0D2AB22E4F5C853C9F04F
:101D5F0043C9C090018CF0A3F09001C0E0F9A3E05B
:101D6F00FAA3E0900198C9F0A3EAF0A3E9F0D2AD8D
:011D7F002241
:10247C00EDF4FDECF4FCED2401FDE43CFCEF146008
:10248C001A14602A2402703990018EECF0A3EDF03E
:10249C00F58AECF58CE49001888023900190ECF0A7
:1024AC00A3EDF0F58BECF58DE490018A80108CCBCC
:1024BC008DCAAE04AF058ECD8FCCE490018CF0A309
:0124CC00F01F
:0124CD0022EC
:10273900EF1460111460182402701DED6003D3803A
:1027490001C392A922ED6003D38001C392AB22EDAC
:092759006003D38001C392AD229C
:10002E00EF14600A14600A24027008D28C22D28E59
:04003E0022D2CA22DE
:10281800EF14600A14600A24027008C28C22C28E67
:0428280022C2CA22DC
:10251900EF14601414602A24027035AF8CEFFCAFFD
:102529008AEFFD90018E800BAF8DEFFCAF8BEFFD35
:10253900900190E0FEA3E0FFC3ED9FFDEC9EFC80BF
:1025490013ACCDADCCC3ED95CAFDEC95CBFC8004A5
:08255900E4FEFF22AF05AE0411
:012561002257
:10256200EDF4FDECF4FCED2401FDE43CFCEF146021
:10257200161460222402702F8D8AECF58CC28DD243
:102582008C308DFDC28C228D8BECF58DC28FD28E5C
:10259200308FFDC28E22AE04AF058ECD8FCCC2CF5E
:0725A200D2CA30CFFDC2CA0E
:0125A900220F
:10270900AE07EE25E02488F582E43401F583E4F090
:10271900A3F012002EEE25E02488F582E43401F5B9
:1027290083E0FAA3E0C39DEA9C40EAAF06022818B9
:0C28840001000201000D010018010023FA
:03002300021E9921
:101E9900C0E0C0F0C083C082C0D075D000C000C00F
:101EA90001C002C003C004C005C006C007309815B0
:101EB900C298AD99902884E493FB740193FA740253
:101EC90093F9121467309927C29990288AE493FBF1
:101ED900740193FA740293F990000512066A45F0A9
:101EE900600712155E8F9980069000007401F0D08A
:101EF90007D006D005D004D003D002D001D000D03D
:0A1F0900D0D082D083D0F0D0E032B7
:03005300021F1376
:101F1300C0E0C0F0C083C082C0D075D000C000C094
:101F230001C002C003C004C005C006C00730C0150D
:101F3300C2C0ADC1902887E493FB740193FA740285
:101F430093F912146730C127C2C190288DE493FB23
:101F5300740193FA740293F990000512066A45F02E
:101F6300600712155E8FC180069000017401F0D0E6
:101F730007D006D005D004D003D002D001D000D0C2
:0A1F8300D0D082D083D0F0D0E0323D
:1017FE009001FAE0F8A3E0F9A3E0FAA3E0FBE849D0
:10180E004A4B7005C29CC2AC22EF24FE603E0460BF
:10181E00030218D39000007401F043878053890FA0
:10182E00438920C2CCC2CD43C9A0D28E9001FAE02A
:10183E00F8A3E0F9A3E0FAA3E0FB7F607EE37D1658
:10184E007C00120777EFF404F58D802F9000007462
:10185E0001F075C83443C9C09001FAE0F8A3E0F96D
:10186E00A3E0FAA3E0FB7F607EE37D167C00120707
:10187E0077C3E49FFFE49EF5CB8FCA75985053C68D
:10188E00EF9001FEE042C69001E57401F0A37400F2
:10189E00F0A3742EF0A3E4F0A37440F07B017A0061
:1018AE0079021220019001E57401F0A37400F0A3F7
:1018BE0074AEF0A3E4F0A37440F07B017A007918C3
:0618CE00122001D2AC2241
:101F8D00EC4D4E4F7005C2C4C2EC2290000174019D
:101F9D00F075C030AB07AA06A905A8047F607EE3E3
:101FAD007D167C00120777EFF404F5C253C6DF905F
:101FBD00020EE042C69001E57401F0A37400F0A397
:101FCD00746EF0A3E4F0A37440F07B017A00790DF8
:101FDD001220019001E57401F0A37400F0A374EEDA
:101FED00F0A3E4F0A37440F07B017A007923122072
:041FFD0001D2EC22FF
:10278700EF75F003A42484F582E43428F583E493F9
:10279700FB740193FA740293F990000512066AFF1D
:0327A700AEF0226F
:1023D500EF75F003A42484F582E43428F583E493AF
:1023E500FB740193FA740293F990000212086CC011
:1023F50003C002C001EF75F003A42484F582E43420
:1024050028F583E493FB740193FA740293F9900021
:102415000712066AD001D002D003F58285F0831237
:0424250005B2FF22DB
:0525F000900218EFF05D
:1025F500900218E0FF75F003A42484F582E43428E2
:10260500F583E493FB740193FA740293F990000542
:1026150012066A45F060D9EF6004C2EC8002C2ACD4
:0E26250012155E900218E06003D2EC22D2ACD7
:012633002284
:0E164B009001C5EFF0A3EBF0A3EAF0A3E9F0E5
:10165900A3E0FFA3E0A3CFF0A3EFF0E4A3F0A3F08E
:101669009001CBE07002A3E070030217249001C53A
:10167900E075F003A42484F582E43428F583E49327
:10168900FB740193FA740293F990000512066AFF3C
:101699009001CDE5F0F0A3EFF09001CBE0FEA3E0DF
:1016A900FFD39001CEE09F9001CDE09E4005EEF082
:1016B900A3EFF09001C5E06004C2EC8002C2ACC0A7
:1016C90002C0019001C6E0F9A3E0FAA3E090019EEF
:1016D900C9F0A3EAF0A3E9F09001CDE0FFA3E090FF
:1016E90001A1CFF0A3EFF0D001D002120CFA9001C2
:1016F900C5E06004D2EC8002D2AC9001CDE0FEA33B
:10170900E0FFC39001CCE09FF09001CBE09EF09008
:0B17190001C7EE8FF0120613021669E4
:0117240022A2
:101A54009001CFEFF0A3EDF0A3EBF0A3EAF0A3E93C
:011A6400F091
:101A6500A3E0FFA3E0A3CFF0A3EFF09001D6E070D1
:101A750002A3E060759001CFE0FF75F003A4248414
:101A8500F582E43428F583E493FB740193FA740238
:101A950093F990000512066A45F060CFEF6004C225
:101AA500EC8002C2AC12155E9001D8EFF09001CF28
:101AB500E06004D2EC8002D2AC9001D0E0FF90014E
:101AC500D8E0FE6F60249001D7E024FFF09001D6A6
:101AD500E034FFF09001D1E0FBA3E475F0011206BC
:101AE50029A9F0FAEE1205DF80819001D6E0FEA368
:0F1AF500E0FFC39001D5E09FFF9001D4E09EFE7B
:011B040022BE
:0E18D4009001D9EFF0A3EBF0A3EAF0A3E9F046
:1018E200E49001DFF0A3F09001DEE024FFF090012C
:1018F200DDE034FFF09001DDE0FEA3E0FFC39001E4
:10190200E0E09F9001DFE09E50749001D9E0FF7506
:10191200F003A42484F582E43428F583E493FB7471
:101922000193FA740293F990000512066A45F06079
:10193200D9EF6004C2EC8002C2AC12155E9001E1E4
:10194200EFF09001D9E06004D2EC8002D2AC9001B9
:10195200E1E0FF9001DAE0FBA3E0FAA3E0F99001F5
:10196200DFE475F00112062985F082F583EF120596
:10197200F1EF640D6008EF640A60030218F790014A
:10198200DAE0FBA3E0FAA3E0F99001DFE0FEA3E0D6
:09199200FFF5828E83E40205F1E9
:1025AA00EF75F003A4248AF582E43428F583E493D2
:1025BA00FB740193FA740293F990000512066AFDFE
:1025CA00ACF0EF75F003A4248AF582E43428F5838D
:1025DA00E493FB740193FA740293F912063FC39DC4
:0625EA00FFE5F09CFE225B
:10220700900219EFF06004C2EC8002C2AC90021990
:10221700E0FF2400F582E43400F583E0601AEF6004
:10222700048DC180028D99900219E02400F582E4A3
:102237003400F583E4F0801F900219E075F003A4E1
:10224700248AF582E43428F583E493FB740193FA36
:10225700740293F9121467900219E06003D2EC221A
:03226700D2AC22D4
:0B22C90090020FEBF0A3EAF0A3E9F095
:1022D400E4A3F0A3F090020FE0FBA3E0FAA3E0F97B
:1022E400A3E0FCA3E0F5828C831205B26010900297
:1022F40013E004F070DF900212E004F080D7900243
:102304000FE0FBA3E0FAA3E0F9A3E0FDA3E0900152
:10231400EECDF0A3EDF01210D1900212E0FEA3E096
:01232400FFB9
:012325002295
:1010D1009001EBEBF0A3EAF0A3E9F09001EAEFF065
:1010E100E49001F0F0A3F0EF6004C2EC8002C2AC26
:1010F1009001EAE0FF2400F582E43400F583E0602A
:1011010049EF9001EB6014E0FBA3E475F0011206D6
:1011110029A9F0FA120599F5C18012E0FBA3E47543
:10112100F001120629A9F0FA120599F5999001EA40
:10113100E02400F582E43400F583E4F09001EFE06F
:1011410024FFF09001EEE034FFF09001EAE060044A
:10115100D2EC8002D2AC9001EEE07002A3E0700309
:101161000212559001EAE0FF75F003A4248AF5828A
:10117100E43428F583E493FB740193FA740293F940
:1011810090000512066AFDACF0EF75F003A4248A05
:10119100F582E43428F583E493FB740193FA740235
:1011A10093F912063FC39DFEE5F09C9001F0F0A378
:1011B100CEF09001F0E0FEA3E0FF4E60999001EEC9
:1011C100E0FCA3E0FDD3EF9DEE9C4006A3ECF0A371
:1011D100EDF09001EAE0FF6004C2EC8002C2ACEFE6
:1011E10075F003A4248AF582E43428F583E493FBA3
:1011F100740193FA740293F9C002C0019001EBE00B
:10120100F9A3E0FAA3E09001ADC9F0A3EAF0A3E9E4
:10121100F09001F0E0FFA3E09001B0CFF0A3EFF078
:10122100D001D002120EED9001EAE06004D2EC8010
:1012310002D2AC9001F0E0FEA3E0FFC39001EFE029
:101241009FF09001EEE09EF09001ECEE8FF012061F
:04125100130211571C
:011255002276
:101DA00043017400000043000100000043000100F3
:101DB000000043000100000043017D0000004301DA
:041DC000800000009F
:0300430002125650
:10125600C0E0C0F0C083C082C0D075D000C000C05E
:1012660001C002C003C004C005C006C00720D903E0
:10127600021308E5D9543024F0602624F060452492
:10128600F0605B2430707990017AE0FBA3E0FAA36A
:10129600E0F9EA494B6069E5D9540FFF90017A807D
:1012A60055900184E004F07006900183E004F0900C
:1012B6000174E0FBA3E0FAA3E0F9EA494B604112AE
:1012C60008F5803C900177E0FBA3E0FAA3E0F9EA99
:1012D600494B602CE5D9540FFF9001778018900197
:1012E60085E0FBA3E0FAA3E0F9EA494B6012E5D9F1
:1012F600540FFF900185A3A3E0F5828A831208F9B3
:10130600C2D930D81C90017DE0FBA3E0FAA3E0F936
:10131600EA494B60031208F575E300C2DAC2D9C286
:10132600D830DA1CC2DA900180E0FBA3E0FAA3E031
:10133600F9EA494B600DE5DA30E2081208F5800358
:1013460075D8FFD007D006D005D004D003D002D080
:0E13560001D000D0D0D082D083D0F0D0E032D1
:101E1000E4900183F0A3F075E229F5E375D1811216
:101E2000063F85F0EDF5EC90000212066A85F0EFB2
:101E3000F5EE90000412066A85F0E5F5E4900006E0
:101E400012066A85F0E7F5E69000081205B2F5DCA7
:101E50009000091205B2F5D290000A1205B2F5D42D
:101E600090000B1205B2F5D690000C1205B2F5DE0B
:101E700090000D1205B2F5EA90000E1205B2F5EBD6
:101E8000E4F5DDF5D3F5D5F5D7F5DF90000F1205B4
:091E9000B2F5E175D8FFD2EA2297
:101DC40042015B00004201600000410159004101F1
:101DD4005D0041015E004101570141015F01410184
:101DE4006800410156004101580041016B00410166
:0C1DF4005A0042016E000042016900002C
:1017250090015CE004F0700690015BE004F090012C
:1017350061E004F07006900160E004F0900136E08D
:10174500602890015BE0FEA3E07802CEC313CE13C0
:10175500D8F9FF900136E0FEEFC39E400D90015988
:101765007401F0E490015BF0A3F0900153E0602870
:10177500900160E0FEA3E07802CEC313CE13D8F942
:10178500FF900153E0FEEFC39E400D90015D740193
:10179500F0E4900160F0A3F090015EE06401705800
:1017A500900168E0605290016EE07002A3E0602253
:1017B50090015AE0FF700590015604F0EF54077050
:1017C5000590015804F090016FE024FFF090016E40
:1017D5008014900169E07002A3E0601090016AE056
:1017E50024FFF0900169E034FFF0800690016B74EE
:0917F50001F090015AE004F02219
:10006E007F0612284D7BF07D01E4FF1223817B0D6C
:10007E007D03E4FF1223817B327D037F01122381F6
:10008E007B017D017F011223817BFF7A1779257F0A
:10009E0002121CEF7DC07C5D7F0212247C7F021257
:1000AE00002ED2AFC2AEE5875430642070077FF4C5
:1000BE007E01122801122429E4FF1226D99002147F
:1000CE0012083B1337BEEFE4F5FF7F0112283D7D8A
:1000DE00207F031227627D107F011227AA9001B99B
:1000EE00EFF0E4A3F07D207F011227AAEF701690A7
:1000FE00015EF07D027F011227CC7D107F03122757
:10010E00CC7D20801E7D407F011227AAEF701890B3
:10011E00015E04F07D02FF1227CC7D207F031227A3
:10012E00CC7D107F03801B7D807F011227AAEF708C
:10013E001490015E7402F07D307F031227CC7D0295
:10014E007F011227627D107F011227AAEF601B909C
:10015E0001BAE0D394087480948050047F01800229
:10016E007F009001BAE02FF080149001BAE0FF609A
:10017E00047E0180027E00C3EF9E9001BAF09001D2
:10018E00B9E0FF6008A3E070047E0180027E00905B
:10019E0001BBEEF0EF700C9001BAE0640870047FC2
:1001AE000180027F009001BCEFF09001B9E0600485
:1001BE00A3E070089001BAE0640870047F01800229
:1001CE007F009001B9EFF09001F4E0A3E0FF900101
:1001DE00BDE0FEC3EF9EFEFD3395E0FCC3ED94FF44
:1001EE00EC6480947F400BD3ED9401EC648094809A
:1001FE004033D3ED9400EC6480948040047D018004
:10020E00027D009001BEEDF0EE3395E0C364809464
:10021E008050047E0180027E009001BFEEF09001BE
:10022E00BDEFF08007E49001BEF0A3F090015EE018
:10023E001470030202DF14700302037924026003B8
:10024E000204117D207F011227AAEF603B9001BBB3
:10025E00E060057F041228B09001BCE060057F04C9
:10026E001228909001BEE0600C900157E0F404FF5C
:10027E00E4FD12285D9001BFE070030204119001AD
:10028E0057E0FFE4FD0203279001BEE060069001F7
:10029E0057E004F09001BFE06006900157E014F0C3
:1002AE00900157E0FF3395E0FEC3EF9401EE6480BA
:1002BE00948050037401F0900157E0FF3395E0FEF7
:1002CE00D3EF940AEE64809480500302041102036B
:1002DE00737D407F011227AAEF60449001BCE0605D
:1002EE0016900168E070047F0180027F0090016823
:1002FE00EFF0E4A3F0A3F09001BEE0600A90015F7E
:10030E00E0FDE4FF12285D9001BFE07003020411CE
:10031E0090015FE0F404FDE4FF12285D02041190E9
:10032E0001BEE0600690015FE004F09001BFE06066
:10033E000690015FE014F090015FE0FF3395E0FE60
:10034E00C3EF9401EE6480948050037401F0900129
:10035E005FE0FF3395E0FED3EF940AEE6480948065
:10036E005003020411740AF00204117D807F011201
:10037E0027AAEF60459001BEE060127FE97E001271
:10038E00289C900134E070FAFFFE12289C9001BF69
:10039E00E060127FEA7E0012289C900134E070FA31
:1003AE00FFFE12289C9001BBE060077FE27E0012E8
:1003BE00289C9001BCE0604B80439001BEE060122F
:1003CE007FB57E0012289C900134E070FAFFFE1279
:1003DE00289C9001BFE060127FB67E0012289C9090
:1003EE000134E070FAFFFE12289C9001BBE060071A
:1003FE007FCD7E0012289C9001BCE06006E4FFFEDB
:10040E0012289C900156E060357F10121B05900259
:10041E0014A3A3A3E0900162F0FB900214A3A3E047
:10042E00FEEE900163F0EB30E706900162E004F01F
:10043E00900163E030E70204F0E4900156F0900181
:10044E0058E070030204F8900162E0FF3395E0FE7D
:10045E00900165E02FF0900164E03EF0900163E0C2
:10046E00FF3395E0FE900167E02FF0900166E03ECD
:10047E00F0900170E0FEA3E07804CEA2E713CE1355
:10048E00D8F8FD900164E0FAA3E0FBAE027804CE4A
:10049E00A2E713CE13D8F8C39DFF90016CF0FC9029
:1004AE000172E0FEA3E07804CEA2E713CE13D8F8D3
:1004BE00FD900166E0FEA3E07804CEA2E713CE1312
:1004CE00D8F8C39D90016DF0FD900170EAF0A3EB9A
:1004DE00F0900166E0FFA3E0900172CFF0A3EFF081
:1004EE00AF04120056E4900158F090016BE0607971
:1004FE007F10121B05900214A3A3E0FFA3E090014E
:10050E006ECFF0A3EFF07F10121B05900214A3A381
:10051E00E0FFA3E0900169CFF0A3EFF090016EE051
:10052E00FEA3E07802CEC313CE13D8F9F0EE9001FD
:10053E006EF0900169E0FEA3E07802CEC313CE13F5
:10054E00D8F9F0EE900169F090016FE024E8F09098
:10055E00016EE03403F090016AE024E8F090016946
:10056E00E03403F0E490016BF0900159E060081262
:10057E000046E4900159F090015DE0600812286A8F
:0B058E00E490015DF0E4F5FF0200F3D3
:101364001201100100000008861A0CFE000101029F
:10137400030109023B00020100803209040000015C
:101384000301020409211001000122430007058121
:1013940003080001090401000103010105092110EA
:1013A4000100012219000705820304000105010957
:1013B40002A1010901A1000509190129031500254C
:1013C40001750195038102750595018103050109E4
:1013D40030093109381581257F7508950381060583
:1013E4000C0A38021581257F750895018106C0C055
:1013F400050C0901A101850119002A3C02150026EA
:101404003C02950175108100C0040309040E0377A2
:1014140000630068002E0063006E00220355005331
:101424000042002000430043002000500061006E91
:101434000020004D006F0075007300650016034422
:10144400004500410044004200450045004600308C
:1014540000350001370141014B0000021212020263
:031464004004033E
:1026A7007B017A017937EF602890012EE0FCA3E0E7
:1026B700F5828C83E4931205DF740129F9E43AFA71
:1026C70090012FE004F0700690012EE004F01F80C7
:0126D700D52D
:0126D80022DF
:0928A700EF7005F5DD75DCC022BF
:051BB4009001C3EFF0F9
:101BB9007068900154E054607055A3E024FB603CC8
:101BC900147047900151E0FEA3E0FFC39408EE941E
:101BD9000040067D087F0880009001C4EFF01226BE
:101BE900A79001C4E0FFFDC3900152E09DF0900170
:101BF90051E09400F08FDD63DC40801EE5E3548002
:101C0900FF900130E04FF5E38008E4F5DD8003E45F
:101C1900F5DDE5DC54FC4402F5DC9001C3E0FF7E10
:101C29000064017019F5D3E5D254FC4402F5D2E4FD
:101C3900900142F0A3F0A3F0A3F0900131F0EF641A
:101C4900024E700FF5D5E5D454FC4402F5D4E49066
:031C59000134F063
:011C5C002265
:10096E00EF6003020CF990013EE0FE90013DE0FDC8
:10097E00EDFF900151EEF0A3EFF0900138E0900101
:10098E0055F0900137E0FF900154F0E490012EF005
:10099E00A3F09001C3F0EF5460FF6003020B76905A
:1009AE000155E0B40C004003020B739009C0F82807
:1009BE0028730209E40209F4020B73020A3B020BCC
:1009CE0073020A8A020A95020B73020B55020B5B25
:1009DE00020B66020C8DE4900137F0A3F09001C378
:1009EE007402F0020C8D900154E0541F6402703AB0
:1009FE00900139E0703490013BE0247F6010146068
:100A0E001B2481707453D27F53D2F3020C8D53D2B8
:100A1E00BFE5D254FC4402F5D2020C8D53D4BFE58F
:100A2E00D454FC4402F5D4020C8D020C8790015470
:100A3E00E0541F64027042900139E0703C90013B1B
:100A4E00E0247F60151460202481702A53D27FE544
:100A5E00D254F3440CF5D2020C8D53D2BFE5D254CE
:100A6E00FC4403F5D2020C8D53D4BFE5D454FC44A0
:100A7E0003F5D4020C8D020C87020C87900139E02D
:100A8E00900130F0020C8D90013AE024FE602414A7
:100A9E00603424E17003020B2924216003020B52FF
:100AAE0090012E7413F0A37464F09001C37412F0CD
:100ABE00020C8D90012E7413F0A37476F09001C386
:100ACE00743BF0020C8D900139E014601614601F17
:100ADE0014601E2403702690012E7414F0A3740D5E
:100AEE00F0802490012E7414F0A37411F0801880FD
:100AFE000C90012E7414F0A37441F0800A90012E14
:100B0E007414F0A3741FF090012EE0FCA3E0F582A4
:100B1E008C83E4939001C3F0020C8D90013BE09026
:100B2E00012E70107413F0A374B1F09001C37443CE
:100B3E00F0020C8D7413F0A374F4F09001C37419C9
:100B4E00F0020C8D020C87900132020C4A90013992
:100B5E00E0900132F0020C8DE4900137F09001C369
:100B6E0004F0020C8D020C87EF64206003020C87E8
:100B7E00900155E024FE7003020C25147003020C44
:100B8E003C24FA7003020C8D147003020C5714707F
:100B9E0003020C6E240A6003020C8590013BE07088
:100BAE003B9001C4F09001C4E0C39405748094801E
:100BBE005021E0FF2441F582E43401F583E0FE7418
:100BCE00372FF582E43401F583EEF09001C4E00492
:100BDE00F080D29001C37405F0020C8DE49001C434
:100BEE00F09001C4E0C39403748094805021E0FF20
:100BFE00244BF582E43401F583E0FE74372FF58241
:100C0E00E43401F583EEF09001C4E004F080D2905C
:100C1E0001C37403F0806890013BE07007900136C9
:100C2E00E0A38007900153E0900137F0801390010C
:100C3E003BE070059001338003900135E090013761
:100C4E00F09001C37401F0803690013BE090013AC0
:100C5E007007E0900136F08026E0900153F0801F7F
:100C6E0090013BE09001397007E0900133F0800F66
:100C7E00E0900135F0800880009001C374FFF09081
:100C8E0001C3E0FFF4700A90015574FFF075DCCFDC
:100C9E00227E00D3900152E09F900151E09E4005CC
:100CAE00EEF0A3EFF0900151E0FEA3E0FFD3940825
:100CBE00EE940040067D087F0880009001C3EFF09F
:100CCE0090012EE07002A3E060089001C3E0FF12D5
:100CDE0026A79001C3E0FFFDC3900152E09DF09066
:0B0CEE000151E09400F08FDD75DCC0C8
:010CF90022D8
:1026340075DC0275D21275D412E4900141F0A3F056
:10264400A3F0A3F0A3F0900131F0900136F09001D3
:102654003304F090014BF0E4A3F0A3F0900134F0C4
:0A266400900153F090013504F022BC
:10242900900174E4F0A3F0A3F090017A74FFF0A393
:102439007428F0A374A7F090017774FFF0A3741BBC
:10244900F0A374B4F090018574FFF0A37409F0A3AC
:10245900746EF090017D74FFF0A37426F0A37434B8
:10246900F0900180E4F0A3F0A3F07BFF7A14795790
:03247900021E1030
:0D0046009001317401F075D30553D2FC22F6
:0928B000900141E04FF0020046E6
:0C289000EFF4FF900141E05FF002004611
:0D005600900142E02FF0A3E02DF0020046E3
:0D285D00900144E02FF0A3E02DF0020046B2
:0D286A009001347401F075D50353D4FC22A5
:0B289C0090014CEFF0EEA3F002286A60
:051B05009001C0EFF0AB
:101B0A009001C0E07003021BB3900214E0FCA3E052
:101B1A00FDA3E0FEA3E0FF781F1208099001C1EFC0
:101B2A00F0FB900214E0FCA3E0FDA3E0FEA3E0FFBB
:101B3A007815120809EB6F9001C1F0FB900214E0CE
:101B4A00FCA3E0FDA3E0FEA3E0FF7801120809EB85
:101B5A006F9001C1F0FB900214A3A3A3E06B900164
:101B6A00C1F05401F0900214E0FCA3E0FDA3E0FEF2
:101B7A00A3E0FF780112081C90021412082F9002A9
:101B8A0014E0F8A3E0F9A3E0FAA3E0FB9001C1E0B6
:101B9A00FFEB4FFFEAFEE9FDE8FC90021412082F62
:091BAA009001C0E014F0021B0AD6
:011BB300220F
:0F1E0000410201004201FF000043020200000006
:03006B0002226A04
:10226A00C0E0C0F0C083C082C0D075D000C000C03A
:10227A0001C002C003C004C005C006C00790020125
:10228A00E0F5FF900200E004F070069001FFE00420
:10229A00F0900202E0FBA3E0FAA3E0F9EA494B60FE
:1022AA00031208F5D007D006D005D004D003D00217
:0F22BA00D001D000D0D0D082D083D0F0D0E0328D
:10283D0075A15575A1AA53B1FEEF42B175A1FF2245
:10282C0075A15575A1AAE5B9543F4FF5B975A1FF2E
:01283C002279
:10284D0075A15575A1AA53B9F8EF42B975A1FF222B
:0D28770075A15575A1AA43B11075A1FF22EE
:1027E700EF4E601505A105A105A105A105A105A14C
:0A27F70005A1EF1F70EA1E80E72223
:10280100AD07AC06ED4C600E7FE87E031227E7EDC5
:072811001D70F11C80EE2296
:101C6F0002006EE493A3F8E493A34003F68001F21D
:101C7F0008DFF48029E493A3F85407240CC8C33376
:101C8F00C4540F4420C8834004F456800146F6DF45
:101C9F00E4800B0102040810204080901D80E47E38
:101CAF00019360BCA3FF543F30E509541FFEE4933A
:101CBF00A360010ECF54C025E060A840B8E493A301
:101CCF00FAE493A3F8E493A3C8C582C8CAC583CA2C
:101CDF00F0A3C8C582C8CAC583CADFE9DEE780BEE4
:011E0F0000D2
:10059900BB010689828A83E0225002E722BBFE0260
:0905A900E32289828A83E4932293
:1005B200BB010CE58229F582E5833AF583E02250FE
:1005C20006E92582F8E622BBFE06E92582F8E22248
:0D05D200E58229F582E5833AF583E4932262
:1005DF00BB010689828A83F0225002F722BBFE01FB
:0205EF00F322F5
:1005F100F8BB010DE58229F582E5833AF583E8F040
:10060100225006E92582C8F622BBFE05E92582C8EB
:02061100F222D3
:10061300C5F0F8A3E028F0C5F0F8E5821582700272
:060623001583E038F0220F
:10062900A3F8E0C5F025F0F0E58215827002158384
:06063900E0C838F0E822E1
:10063F00BB010A89828A83E0F5F0A3E02250068786
:10064F00F009E71922BBFE07E3F5F009E319228948
:0B065F00828A83E493F5F0740193227B
:10066A00BB0110E58229F582E5833AF583E0F5F0CE
:10067A00A3E0225009E92582F886F008E622BBFEAB
:10068A000AE92582F8E2F5F008E222E5832AF583F1
:08069A00E993F5F0A3E99322B6
:1006A200BB010DC58229C582C5833AC583020613E3
:1006B2005011C58229F808E5F026F618F5F0E58212
:1006C20036F622BBFE11C58229F808E225F0F5F0C4
:1006D200F218E23582F222F8E58229F582E5832AD0
:0D06E200F58374019325F0F5F0E4933822C0
:1006EF00BB010A89828A83F0E5F0A3F0225006F756
:0F06FF0009A7F01922BBFE06F3E5F009F3192253
:10070E00F8BB0111E58229F582E5833AF583E8F01D
:10071E00E5F0A3F0225009E92582C8F608A6F022DA
:0D072E00BBFE09E92582C8F2E5F008F222C1
:10073B0075F008758200EF2FFFEE33FECD33CDCC75
:10074B0033CCC58233C5829BED9AEC99E5829840F8
:10075B000CF582EE9BFEED9AFDEC99FC0FD5F0D6D5
:10076B00E4CEFBE4CDFAE4CCF9A88222B800C1B9FF
:10077B000059BA002DEC8BF084CFCECDFCE5F0CB3D
:10078B00F97818EF2FFFEE33FEED33FDEC33FCEB76
:10079B0033FB10D703994004EB99FB0FD8E5E4F931
:1007AB00FA227818EF2FFFEE33FEED33FDEC33FC1E
:1007BB00C933C910D7059BE99A4007EC9BFCE99A12
:1007CB00F90FD8E0E4C9FAE4CCFB2275F010EF2F57
:1007DB00FFEE33FEED33FDCC33CCC833C810D70757
:1007EB009BEC9AE899400AED9BFDEC9AFCE899F892
:0E07FB000FD5F0DAE4CDFBE4CCFAE4C8F92225
:10080900E8600FECC313FCED13FDEE13FEEF13FFCD
:03081900D8F122F1
:10081C00E8600FEFC333FFEE33FEED33FDEC33FC3A
:03082C00D8F122DE
:0C082F00ECF0A3EDF0A3EEF0A3EFF0223C
:10083B00A8828583F0D083D08212085212085212FC
:10084B000852120852E473E493A3C583C5F0C58321
:10085B00C8C582C8F0A3C583C5F0C583C8C582C807
:01086B00226A
:10086C00BB010DE58229F582E5833AF58302093E49
:10087C005007E92582F802092CBBFE07E92582F80E
:10088C00020950E58229F582E5833AF58302096273
:10089C00BB0120E58229F582E5833AF583D0F0D0BF
:1008AC00E0F8D0E0F9D0E0FAD0E0FBE8C0E0C0F02E
:1008BC000209475018E92582F8D083D082D0E0F99C
:1008CC00D0E0FAD0E0FBC082C083020935BBFE1831
:1008DC00E92582F8D083D082D0E0F9D0E0FAD0E0DC
:0908EC00FBC082C08302095922FD
:0608F5008A838982E4738E
:1008FB00E5092582F582E5083583F583B50804857E
:10090B0082092210AF06858209F50822858209F536
:04091B0008D2AF222D
:0D091F00E5092582F582E5083583F5832280
:09092C00E6FB08E6FA08E6F922F0
:09093500EBF608EAF608E9F622E7
:09093E00E0FBA3E0FAA3E0F922BA
:09094700EBF0A3EAF0A3E9F022B1
:09095000E2FB08E2FA08E2F922D8
:09095900EBF208EAF208E9F222CF
:0C096200E493FB740193FA740293F922F1
:00000001FF
